{
  "_format": "hh-sol-artifact-1",
  "contractName": "BondController",
  "sourceName": "button-tranche/contracts/BondController.sol",
  "abi": [
    {
      "anonymous": false,
      "inputs": [
        {
          "indexed": false,
          "internalType": "address",
          "name": "from",
          "type": "address"
        },
        {
          "indexed": false,
          "internalType": "uint256",
          "name": "amount",
          "type": "uint256"
        },
        {
          "indexed": false,
          "internalType": "uint256",
          "name": "feeBps",
          "type": "uint256"
        }
      ],
      "name": "Deposit",
      "type": "event"
    },
    {
      "anonymous": false,
      "inputs": [
        {
          "indexed": false,
          "internalType": "uint256",
          "name": "newFee",
          "type": "uint256"
        }
      ],
      "name": "FeeUpdate",
      "type": "event"
    },
    {
      "anonymous": false,
      "inputs": [
        {
          "indexed": false,
          "internalType": "uint8",
          "name": "version",
          "type": "uint8"
        }
      ],
      "name": "Initialized",
      "type": "event"
    },
    {
      "anonymous": false,
      "inputs": [
        {
          "indexed": false,
          "internalType": "address",
          "name": "caller",
          "type": "address"
        }
      ],
      "name": "Mature",
      "type": "event"
    },
    {
      "anonymous": false,
      "inputs": [
        {
          "indexed": true,
          "internalType": "address",
          "name": "previousOwner",
          "type": "address"
        },
        {
          "indexed": true,
          "internalType": "address",
          "name": "newOwner",
          "type": "address"
        }
      ],
      "name": "OwnershipTransferred",
      "type": "event"
    },
    {
      "anonymous": false,
      "inputs": [
        {
          "indexed": false,
          "internalType": "address",
          "name": "user",
          "type": "address"
        },
        {
          "indexed": false,
          "internalType": "uint256[]",
          "name": "amounts",
          "type": "uint256[]"
        }
      ],
      "name": "Redeem",
      "type": "event"
    },
    {
      "anonymous": false,
      "inputs": [
        {
          "indexed": false,
          "internalType": "address",
          "name": "user",
          "type": "address"
        },
        {
          "indexed": false,
          "internalType": "address",
          "name": "tranche",
          "type": "address"
        },
        {
          "indexed": false,
          "internalType": "uint256",
          "name": "amount",
          "type": "uint256"
        }
      ],
      "name": "RedeemMature",
      "type": "event"
    },
    {
      "inputs": [],
      "name": "collateralToken",
      "outputs": [
        {
          "internalType": "address",
          "name": "",
          "type": "address"
        }
      ],
      "stateMutability": "view",
      "type": "function"
    },
    {
      "inputs": [],
      "name": "creationDate",
      "outputs": [
        {
          "internalType": "uint256",
          "name": "",
          "type": "uint256"
        }
      ],
      "stateMutability": "view",
      "type": "function"
    },
    {
      "inputs": [
        {
          "internalType": "uint256",
          "name": "amount",
          "type": "uint256"
        }
      ],
      "name": "deposit",
      "outputs": [],
      "stateMutability": "nonpayable",
      "type": "function"
    },
    {
      "inputs": [],
      "name": "depositLimit",
      "outputs": [
        {
          "internalType": "uint256",
          "name": "",
          "type": "uint256"
        }
      ],
      "stateMutability": "view",
      "type": "function"
    },
    {
      "inputs": [],
      "name": "feeBps",
      "outputs": [
        {
          "internalType": "uint256",
          "name": "",
          "type": "uint256"
        }
      ],
      "stateMutability": "view",
      "type": "function"
    },
    {
      "inputs": [
        {
          "internalType": "address",
          "name": "_trancheFactory",
          "type": "address"
        },
        {
          "internalType": "address",
          "name": "_collateralToken",
          "type": "address"
        },
        {
          "internalType": "address",
          "name": "_admin",
          "type": "address"
        },
        {
          "internalType": "uint256[]",
          "name": "trancheRatios",
          "type": "uint256[]"
        },
        {
          "internalType": "uint256",
          "name": "_maturityDate",
          "type": "uint256"
        },
        {
          "internalType": "uint256",
          "name": "_depositLimit",
          "type": "uint256"
        }
      ],
      "name": "init",
      "outputs": [],
      "stateMutability": "nonpayable",
      "type": "function"
    },
    {
      "inputs": [],
      "name": "isMature",
      "outputs": [
        {
          "internalType": "bool",
          "name": "",
          "type": "bool"
        }
      ],
      "stateMutability": "view",
      "type": "function"
    },
    {
      "inputs": [],
      "name": "mature",
      "outputs": [],
      "stateMutability": "nonpayable",
      "type": "function"
    },
    {
      "inputs": [],
      "name": "maturityDate",
      "outputs": [
        {
          "internalType": "uint256",
          "name": "",
          "type": "uint256"
        }
      ],
      "stateMutability": "view",
      "type": "function"
    },
    {
      "inputs": [],
      "name": "owner",
      "outputs": [
        {
          "internalType": "address",
          "name": "",
          "type": "address"
        }
      ],
      "stateMutability": "view",
      "type": "function"
    },
    {
      "inputs": [
        {
          "internalType": "uint256[]",
          "name": "amounts",
          "type": "uint256[]"
        }
      ],
      "name": "redeem",
      "outputs": [],
      "stateMutability": "nonpayable",
      "type": "function"
    },
    {
      "inputs": [
        {
          "internalType": "address",
          "name": "tranche",
          "type": "address"
        },
        {
          "internalType": "uint256",
          "name": "amount",
          "type": "uint256"
        }
      ],
      "name": "redeemMature",
      "outputs": [],
      "stateMutability": "nonpayable",
      "type": "function"
    },
    {
      "inputs": [],
      "name": "renounceOwnership",
      "outputs": [],
      "stateMutability": "nonpayable",
      "type": "function"
    },
    {
      "inputs": [
        {
          "internalType": "uint256",
          "name": "newFeeBps",
          "type": "uint256"
        }
      ],
      "name": "setFee",
      "outputs": [],
      "stateMutability": "nonpayable",
      "type": "function"
    },
    {
      "inputs": [],
      "name": "totalDebt",
      "outputs": [
        {
          "internalType": "uint256",
          "name": "",
          "type": "uint256"
        }
      ],
      "stateMutability": "view",
      "type": "function"
    },
    {
      "inputs": [],
      "name": "trancheCount",
      "outputs": [
        {
          "internalType": "uint256",
          "name": "",
          "type": "uint256"
        }
      ],
      "stateMutability": "view",
      "type": "function"
    },
    {
      "inputs": [
        {
          "internalType": "address",
          "name": "",
          "type": "address"
        }
      ],
      "name": "trancheTokenAddresses",
      "outputs": [
        {
          "internalType": "bool",
          "name": "",
          "type": "bool"
        }
      ],
      "stateMutability": "view",
      "type": "function"
    },
    {
      "inputs": [
        {
          "internalType": "uint256",
          "name": "",
          "type": "uint256"
        }
      ],
      "name": "tranches",
      "outputs": [
        {
          "internalType": "contract ITranche",
          "name": "token",
          "type": "address"
        },
        {
          "internalType": "uint256",
          "name": "ratio",
          "type": "uint256"
        }
      ],
      "stateMutability": "view",
      "type": "function"
    },
    {
      "inputs": [
        {
          "internalType": "address",
          "name": "newOwner",
          "type": "address"
        }
      ],
      "name": "transferOwnership",
      "outputs": [],
      "stateMutability": "nonpayable",
      "type": "function"
    }
  ],
  "bytecode": "0x608060405234801561001057600080fd5b50612652806100206000396000f3fe608060405234801561001057600080fd5b50600436106101215760003560e01c806387b65207116100ad578063d59624b411610071578063d59624b41461025c578063ecf7085814610265578063f2fde38b1461026e578063f9afb26a14610281578063fc7b9c181461029457610121565b806387b65207146101fc5780638da5cb5b14610204578063ae4e7fdf14610229578063b2016bd414610236578063b6b55f251461024957610121565b80632a76ef31116100f45780632a76ef31146101b057806333d20e34146101c557806359eb8224146101d857806369fe0e2d146101e1578063715018a6146101f457610121565b806305b344101461012657806320e8e89e1461014257806324a9d8531461017557806326c259621461017e575b600080fd5b61012f60695481565b6040519081526020015b60405180910390f35b610165610150366004612082565b60686020526000908152604090205460ff1681565b6040519015158152602001610139565b61012f606e5481565b61019161018c36600461224d565b61029d565b604080516001600160a01b039093168352602083019190915201610139565b6101c36101be3660046120ba565b6102d5565b005b6101c36101d336600461213f565b610865565b61012f60675481565b6101c36101ef36600461224d565b6109f3565b6101c3610b0b565b6101c3610b41565b6033546001600160a01b03165b6040516001600160a01b039091168152602001610139565b606b546101659060ff1681565b606554610211906001600160a01b031681565b6101c361025736600461224d565b611073565b61012f606a5481565b61012f606d5481565b6101c361027c366004612082565b61161c565b6101c361028f36600461216a565b6116b7565b61012f606c5481565b606681815481106102ad57600080fd5b6000918252602090912060029091020180546001909101546001600160a01b03909116915082565b60006102e16001611aff565b905080156102f9576000805461ff0019166101001790555b6001600160a01b03871661036b5760405162461bcd60e51b815260206004820152602e60248201527f426f6e64436f6e74726f6c6c65723a20696e76616c6964207472616e6368654660448201526d6163746f7279206164647265737360901b60648201526084015b60405180910390fd5b6001600160a01b0386166103d95760405162461bcd60e51b815260206004820152602f60248201527f426f6e64436f6e74726f6c6c65723a20696e76616c696420636f6c6c6174657260448201526e616c546f6b656e206164647265737360881b6064820152608401610362565b6001600160a01b03851661043d5760405162461bcd60e51b815260206004820152602560248201527f426f6e64436f6e74726f6c6c65723a20696e76616c69642061646d696e206164604482015264647265737360d81b6064820152608401610362565b601a8451111561049d5760405162461bcd60e51b815260206004820152602560248201527f426f6e64436f6e74726f6c6c65723a20696e76616c6964207472616e6368652060448201526418dbdd5b9d60da1b6064820152608401610362565b6104a5611b85565b6104ae8561161c565b8351606755606580546001600160a01b0319166001600160a01b038816908117909155604080516395d89b4160e01b81529051600092916395d89b419160048083019286929190829003018186803b15801561050957600080fd5b505afa15801561051d573d6000803e3d6000fd5b505050506040513d6000823e601f3d908101601f1916820160405261054591908101906121bd565b90506000805b865181101561074757600087828151811061057657634e487b7160e01b600052603260045260246000fd5b602002602001015190506103e88111156105e05760405162461bcd60e51b815260206004820152602560248201527f426f6e64436f6e74726f6c6c65723a20496e76616c6964207472616e63686520604482015264726174696f60d81b6064820152608401610362565b6105ea8184612522565b925060008b6001600160a01b031663ef55207c61060987868d51611bb4565b61061588878e51611bea565b8e6040518463ffffffff1660e01b8152600401610634939291906123e5565b602060405180830381600087803b15801561064e57600080fd5b505af1158015610662573d6000803e3d6000fd5b505050506040513d601f19601f82011682018060405250810190610686919061209e565b6040805180820182526001600160a01b0392831680825260208083019687526066805460018082018355600092835294517f46501879b8ca8525e8c2fd519e2fbfcfa2ebea26501294aa02cbfcfb12e94354600290920291820180546001600160a01b031916919098161790965596517f46501879b8ca8525e8c2fd519e2fbfcfa2ebea26501294aa02cbfcfb12e943559095019490945585526068909252909220805460ff1916909217909155508061073f816125c0565b91505061054b565b506103e881146107a85760405162461bcd60e51b815260206004820152602660248201527f426f6e64436f6e74726f6c6c65723a20496e76616c6964207472616e63686520604482015265726174696f7360d01b6064820152608401610362565b4285116108055760405162461bcd60e51b815260206004820152602560248201527f426f6e64436f6e74726f6c6c65723a20496e76616c6964206d61747572697479604482015264206461746560d81b6064820152608401610362565b505042606955606a839055606d829055801561085c576000805461ff0019169055604051600181527f7f26b83ff96e1f2b6a682f133852f6798a09c465da95921460cefb3847402498906020015b60405180910390a15b50505050505050565b606b5460ff166108c25760405162461bcd60e51b815260206004820152602260248201527f426f6e64436f6e74726f6c6c65723a20426f6e64206973206e6f74206d617475604482015261726560f01b6064820152608401610362565b6001600160a01b03821660009081526068602052604090205460ff1661093a5760405162461bcd60e51b815260206004820152602760248201527f426f6e64436f6e74726f6c6c65723a20496e76616c6964207472616e636865206044820152666164647265737360c81b6064820152608401610362565b604051630e6dfcd560e01b81526001600160a01b03831690630e6dfcd59061096a9033908190869060040161236b565b600060405180830381600087803b15801561098457600080fd5b505af1158015610998573d6000803e3d6000fd5b5050505080606c60008282546109ae9190612579565b909155507f5e9473a427344c9398fd27f132e093a6582e7177334cb912336f3c17af206edb90503383836040516109e79392919061236b565b60405180910390a15050565b6033546001600160a01b03163314610a1d5760405162461bcd60e51b815260040161036290612471565b606b5460ff1615610a7f5760405162461bcd60e51b815260206004820152602660248201527f426f6e64436f6e74726f6c6c65723a20496e76616c69642063616c6c20746f2060448201526573657446656560d01b6064820152608401610362565b6032811115610ad05760405162461bcd60e51b815260206004820181905260248201527f426f6e64436f6e74726f6c6c65723a204e65772066656520746f6f20686967686044820152606401610362565b606e8190556040518181527f88258d7c1f0510045362f22cdeb36a2c501ef80d7a06168881189fb8480cfe2f9060200160405180910390a150565b6033546001600160a01b03163314610b355760405162461bcd60e51b815260040161036290612471565b610b3f6000611c08565b565b606b5460ff1615610b945760405162461bcd60e51b815260206004820152601e60248201527f426f6e64436f6e74726f6c6c65723a20416c7265616479206d617475726500006044820152606401610362565b6033546001600160a01b0316331480610bae575042606a54105b610c095760405162461bcd60e51b815260206004820152602660248201527f426f6e64436f6e74726f6c6c65723a20496e76616c69642063616c6c20746f206044820152656d617475726560d01b6064820152608401610362565b606b805460ff19166001179055606680546040805160208084028201810190925282815260009390929091849084015b82821015610c81576000848152602090819020604080518082019091526002850290910180546001600160a01b03168252600190810154828401529083529092019101610c39565b50506065546040516370a0823160e01b81523060048201529394506000936001600160a01b0390911692506370a08231915060240160206040518083038186803b158015610cce57600080fd5b505afa158015610ce2573d6000803e3d6000fd5b505050506040513d601f19601f82011682018060405250810190610d069190612265565b905060005b60018351610d199190612579565b81108015610d275750600082115b15610efc576000838281518110610d4e57634e487b7160e01b600052603260045260246000fd5b60200260200101516000015190506000610dd8826001600160a01b03166318160ddd6040518163ffffffff1660e01b815260040160206040518083038186803b158015610d9a57600080fd5b505afa158015610dae573d6000803e3d6000fd5b505050506040513d601f19601f82011682018060405250810190610dd29190612265565b85611c5a565b9050610de48185612579565b606554909450610dfe906001600160a01b03168383611c72565b816001600160a01b0316630e6dfcd530610e206033546001600160a01b031690565b6040516370a0823160e01b81523060048201526001600160a01b038716906370a082319060240160206040518083038186803b158015610e5f57600080fd5b505afa158015610e73573d6000803e3d6000fd5b505050506040513d601f19601f82011682018060405250810190610e979190612265565b6040518463ffffffff1660e01b8152600401610eb59392919061236b565b600060405180830381600087803b158015610ecf57600080fd5b505af1158015610ee3573d6000803e3d6000fd5b5050505050508080610ef4906125c0565b915050610d0b565b5080156110435760008260018451610f149190612579565b81518110610f3257634e487b7160e01b600052603260045260246000fd5b602090810291909101015151606554909150610f58906001600160a01b03168284611c72565b806001600160a01b0316630e6dfcd530610f7a6033546001600160a01b031690565b6040516370a0823160e01b81523060048201526001600160a01b038616906370a082319060240160206040518083038186803b158015610fb957600080fd5b505afa158015610fcd573d6000803e3d6000fd5b505050506040513d601f19601f82011682018060405250810190610ff19190612265565b6040518463ffffffff1660e01b815260040161100f9392919061236b565b600060405180830381600087803b15801561102957600080fd5b505af115801561103d573d6000803e3d6000fd5b50505050505b6040513381527f2eb828fdc16ef5c267a7b18c3f8edf180aaff1a8921c4fe994fef55ddc8abe60906020016109e7565b600081116110c35760405162461bcd60e51b815260206004820152601e60248201527f426f6e64436f6e74726f6c6c65723a20696e76616c696420616d6f756e7400006044820152606401610362565b606c54801515806110d957506402540be4008210155b6111345760405162461bcd60e51b815260206004820152602660248201527f426f6e64436f6e74726f6c6c65723a20696e76616c696420696e697469616c20604482015265185b5bdd5b9d60d21b6064820152608401610362565b606b5460ff16156111875760405162461bcd60e51b815260206004820152601e60248201527f426f6e64436f6e74726f6c6c65723a20416c7265616479206d617475726500006044820152606401610362565b6065546040516370a0823160e01b81523060048201526000916001600160a01b0316906370a082319060240160206040518083038186803b1580156111cb57600080fd5b505afa1580156111df573d6000803e3d6000fd5b505050506040513d601f19601f820116820180604052508101906112039190612265565b9050606d54600014806112215750606d5461121e8483612522565b11155b61126d5760405162461bcd60e51b815260206004820152601d60248201527f426f6e64436f6e74726f6c6c65723a204465706f736974206c696d69740000006044820152606401610362565b60006066805480602002602001604051908101604052809291908181526020016000905b828210156112d9576000848152602090819020604080518082019091526002850290910180546001600160a01b03168252600190810154828401529083529092019101611291565b50505050905060008060675467ffffffffffffffff81111561130b57634e487b7160e01b600052604160045260246000fd5b604051908082528060200260200182016040528015611334578160200160208202803683370190505b50905060005b83518110156114035760006103e885838151811061136857634e487b7160e01b600052603260045260246000fd5b6020026020010151602001518961137f919061255a565b611389919061253a565b905060008611801561139b5750600087115b156113b857856113ab888361255a565b6113b5919061253a565b90505b6113c28185612522565b9350808383815181106113e557634e487b7160e01b600052603260045260246000fd5b602090810291909101015250806113fb816125c0565b91505061133a565b5081606c60008282546114169190612522565b9091555050606554611433906001600160a01b0316333089611d8d565b606e5460005b82518110156115dd57600083828151811061146457634e487b7160e01b600052603260045260246000fd5b602002602001015190506000612710848361147f919061255a565b611489919061253a565b9050801561151f578683815181106114b157634e487b7160e01b600052603260045260246000fd5b6020908102919091010151516040516340c10f1960e01b8152306004820152602481018390526001600160a01b03909116906340c10f1990604401600060405180830381600087803b15801561150657600080fd5b505af115801561151a573d6000803e3d6000fd5b505050505b86838151811061153f57634e487b7160e01b600052603260045260246000fd5b6020026020010151600001516001600160a01b03166340c10f196115603390565b61156a8486612579565b6040516001600160e01b031960e085901b1681526001600160a01b0390921660048301526024820152604401600060405180830381600087803b1580156115b057600080fd5b505af11580156115c4573d6000803e3d6000fd5b50505050505080806115d5906125c0565b915050611439565b5060408051338152602081018990529081018290527f90890809c654f11d6e72a28fa60149770a0d11ec6c92319d6ceb2bb0a4ea1a1590606001610853565b6033546001600160a01b031633146116465760405162461bcd60e51b815260040161036290612471565b6001600160a01b0381166116ab5760405162461bcd60e51b815260206004820152602660248201527f4f776e61626c653a206e6577206f776e657220697320746865207a65726f206160448201526564647265737360d01b6064820152608401610362565b6116b481611c08565b50565b606b5460ff16156117195760405162461bcd60e51b815260206004820152602660248201527f426f6e64436f6e74726f6c6c65723a20426f6e6420697320616c7265616479206044820152656d617475726560d01b6064820152608401610362565b60006066805480602002602001604051908101604052809291908181526020016000905b82821015611785576000848152602090819020604080518082019091526002850290910180546001600160a01b0316825260019081015482840152908352909201910161173d565b50505050905080518251146117eb5760405162461bcd60e51b815260206004820152602660248201527f426f6e64436f6e74726f6c6c65723a20496e76616c69642072656465656d20616044820152656d6f756e747360d01b6064820152608401610362565b6000805b835181101561183f5783818151811061181857634e487b7160e01b600052603260045260246000fd5b60200260200101518261182b9190612522565b915080611837816125c0565b9150506117ef565b5060005b83518110156119f55782818151811061186c57634e487b7160e01b600052603260045260246000fd5b602002602001015160200151826103e886848151811061189c57634e487b7160e01b600052603260045260246000fd5b60200260200101516118ae919061255a565b6118b8919061253a565b146119165760405162461bcd60e51b815260206004820152602860248201527f426f6e64436f6e74726f6c6c65723a20496e76616c696420726564656d7074696044820152676f6e20726174696f60c01b6064820152608401610362565b82818151811061193657634e487b7160e01b600052603260045260246000fd5b6020026020010151600001516001600160a01b0316639dc29fac6119573390565b86848151811061197757634e487b7160e01b600052603260045260246000fd5b60200260200101516040518363ffffffff1660e01b81526004016119b09291906001600160a01b03929092168252602082015260400190565b600060405180830381600087803b1580156119ca57600080fd5b505af11580156119de573d6000803e3d6000fd5b5050505080806119ed906125c0565b915050611843565b506065546040516370a0823160e01b81523060048201526000916001600160a01b0316906370a082319060240160206040518083038186803b158015611a3a57600080fd5b505afa158015611a4e573d6000803e3d6000fd5b505050506040513d601f19601f82011682018060405250810190611a729190612265565b90506000606c548284611a85919061255a565b611a8f919061253a565b905082606c6000828254611aa39190612579565b9091555050606554611abf906001600160a01b03163383611c72565b7f95a8789c26436cc55b5951f117195be05dfa3022c619a84c1449f83f9cf870683386604051611af092919061238f565b60405180910390a15050505050565b60008054610100900460ff1615611b46578160ff166001148015611b225750303b155b611b3e5760405162461bcd60e51b815260040161036290612423565b506000611b80565b60005460ff808416911610611b6d5760405162461bcd60e51b815260040161036290612423565b506000805460ff191660ff831617905560015b919050565b600054610100900460ff16611bac5760405162461bcd60e51b8152600401610362906124a6565b610b3f611eb9565b606083611bc18484611ee9565b604051602001611bd29291906122c5565b60405160208183030381529060405290509392505050565b606083611bf78484611ee9565b604051602001611bd292919061231b565b603380546001600160a01b038381166001600160a01b0319831681179093556040519116919082907f8be0079c531659141344cd1fd0a4f28419497f9722a3daafe3b4186f6b6457e090600090a35050565b6000818310611c695781611c6b565b825b9392505050565b604080516001600160a01b038481166024830152604480830185905283518084039091018152606490920183526020820180516001600160e01b031663a9059cbb60e01b1790529151600092839290871691611cce91906122a9565b6000604051808303816000865af19150503d8060008114611d0b576040519150601f19603f3d011682016040523d82523d6000602084013e611d10565b606091505b5091509150818015611d3a575080511580611d3a575080806020019051810190611d3a919061219d565b611d865760405162461bcd60e51b815260206004820152601f60248201527f5472616e7366657248656c7065723a205452414e534645525f4641494c4544006044820152606401610362565b5050505050565b600080856001600160a01b03166323b872dd868686604051602401611db49392919061236b565b6040516020818303038152906040529060e01b6020820180516001600160e01b038381831617835250505050604051611ded91906122a9565b6000604051808303816000865af19150503d8060008114611e2a576040519150601f19603f3d011682016040523d82523d6000602084013e611e2f565b606091505b5091509150818015611e59575080511580611e59575080806020019051810190611e59919061219d565b611eb15760405162461bcd60e51b8152602060048201526024808201527f5472616e7366657248656c7065723a205452414e534645525f46524f4d5f46416044820152631253115160e21b6064820152608401610362565b505050505050565b600054610100900460ff16611ee05760405162461bcd60e51b8152600401610362906124a6565b610b3f33611c08565b604080518082018252601981527f4142434445464748494a4b4c4d4e4f505152535455565758590000000000000060208201528151600180825281840190935260609260009190602082018180368337019050509050611f4a600185612579565b851415611f9357602d60f91b81600081518110611f7757634e487b7160e01b600052603260045260246000fd5b60200101906001600160f81b031916908160001a905350611ff7565b818581518110611fb357634e487b7160e01b600052603260045260246000fd5b602001015160f81c60f81b81600081518110611fdf57634e487b7160e01b600052603260045260246000fd5b60200101906001600160f81b031916908160001a9053505b949350505050565b600082601f83011261200f578081fd5b8135602067ffffffffffffffff82111561202b5761202b6125f1565b8160051b61203a8282016124f1565b838152828101908684018388018501891015612054578687fd5b8693505b85841015612076578035835260019390930192918401918401612058565b50979650505050505050565b600060208284031215612093578081fd5b8135611c6b81612607565b6000602082840312156120af578081fd5b8151611c6b81612607565b60008060008060008060c087890312156120d2578182fd5b86356120dd81612607565b955060208701356120ed81612607565b945060408701356120fd81612607565b9350606087013567ffffffffffffffff811115612118578283fd5b61212489828a01611fff565b9350506080870135915060a087013590509295509295509295565b60008060408385031215612151578182fd5b823561215c81612607565b946020939093013593505050565b60006020828403121561217b578081fd5b813567ffffffffffffffff811115612191578182fd5b611ff784828501611fff565b6000602082840312156121ae578081fd5b81518015158114611c6b578182fd5b6000602082840312156121ce578081fd5b815167ffffffffffffffff808211156121e5578283fd5b818401915084601f8301126121f8578283fd5b81518181111561220a5761220a6125f1565b61221d601f8201601f19166020016124f1565b9150808252856020828501011115612233578384fd5b612244816020840160208601612590565b50949350505050565b60006020828403121561225e578081fd5b5035919050565b600060208284031215612276578081fd5b5051919050565b60008151808452612295816020860160208601612590565b601f01601f19169290920160200192915050565b600082516122bb818460208701612590565b9190910192915050565b60006d0213aba3a37b72a3930b731b432960951b825283516122ee81600e850160208801612590565b600160fd1b600e91840191820152835161230f81600f840160208801612590565b01600f01949350505050565b6000675452414e4348452d60c01b8252835161233e816008850160208801612590565b602d60f81b600891840191820152835161235f816009840160208801612590565b01600901949350505050565b6001600160a01b039384168152919092166020820152604081019190915260600190565b6001600160a01b038316815260406020808301829052835191830182905260009184820191906060850190845b818110156123d8578451835293830193918301916001016123bc565b5090979650505050505050565b6000606082526123f8606083018661227d565b828103602084015261240a818661227d565b91505060018060a01b0383166040830152949350505050565b6020808252602e908201527f496e697469616c697a61626c653a20636f6e747261637420697320616c72656160408201526d191e481a5b9a5d1a585b1a5e995960921b606082015260800190565b6020808252818101527f4f776e61626c653a2063616c6c6572206973206e6f7420746865206f776e6572604082015260600190565b6020808252602b908201527f496e697469616c697a61626c653a20636f6e7472616374206973206e6f74206960408201526a6e697469616c697a696e6760a81b606082015260800190565b604051601f8201601f1916810167ffffffffffffffff8111828210171561251a5761251a6125f1565b604052919050565b60008219821115612535576125356125db565b500190565b60008261255557634e487b7160e01b81526012600452602481fd5b500490565b6000816000190483118215151615612574576125746125db565b500290565b60008282101561258b5761258b6125db565b500390565b60005b838110156125ab578181015183820152602001612593565b838111156125ba576000848401525b50505050565b60006000198214156125d4576125d46125db565b5060010190565b634e487b7160e01b600052601160045260246000fd5b634e487b7160e01b600052604160045260246000fd5b6001600160a01b03811681146116b457600080fdfea26469706673582212204cabe8b296de4f5427a09b2b5306e8f086792d973fe69323cf400e4df44f87f764736f6c63430008030033",
  "linkReferences": {},
  "deployedLinkReferences": {}
}