{
  "_format": "hh-sol-artifact-1",
  "contractName": "ButtonToken",
  "sourceName": "button-token/contracts/ButtonToken.sol",
  "abi": [
    {
      "anonymous": false,
      "inputs": [
        {
          "indexed": true,
          "internalType": "address",
          "name": "owner",
          "type": "address"
        },
        {
          "indexed": true,
          "internalType": "address",
          "name": "spender",
          "type": "address"
        },
        {
          "indexed": false,
          "internalType": "uint256",
          "name": "value",
          "type": "uint256"
        }
      ],
      "name": "Approval",
      "type": "event"
    },
    {
      "anonymous": false,
      "inputs": [
        {
          "indexed": false,
          "internalType": "uint8",
          "name": "version",
          "type": "uint8"
        }
      ],
      "name": "Initialized",
      "type": "event"
    },
    {
      "anonymous": false,
      "inputs": [
        {
          "indexed": false,
          "internalType": "address",
          "name": "oracle",
          "type": "address"
        }
      ],
      "name": "OracleUpdated",
      "type": "event"
    },
    {
      "anonymous": false,
      "inputs": [
        {
          "indexed": true,
          "internalType": "address",
          "name": "previousOwner",
          "type": "address"
        },
        {
          "indexed": true,
          "internalType": "address",
          "name": "newOwner",
          "type": "address"
        }
      ],
      "name": "OwnershipTransferred",
      "type": "event"
    },
    {
      "anonymous": false,
      "inputs": [
        {
          "indexed": true,
          "internalType": "uint256",
          "name": "epoch",
          "type": "uint256"
        },
        {
          "indexed": false,
          "internalType": "uint256",
          "name": "newScalar",
          "type": "uint256"
        }
      ],
      "name": "Rebase",
      "type": "event"
    },
    {
      "anonymous": false,
      "inputs": [
        {
          "indexed": true,
          "internalType": "address",
          "name": "from",
          "type": "address"
        },
        {
          "indexed": true,
          "internalType": "address",
          "name": "to",
          "type": "address"
        },
        {
          "indexed": false,
          "internalType": "uint256",
          "name": "value",
          "type": "uint256"
        }
      ],
      "name": "Transfer",
      "type": "event"
    },
    {
      "inputs": [],
      "name": "MAX_PRICE",
      "outputs": [
        {
          "internalType": "uint256",
          "name": "",
          "type": "uint256"
        }
      ],
      "stateMutability": "view",
      "type": "function"
    },
    {
      "inputs": [],
      "name": "MAX_UNDERLYING",
      "outputs": [
        {
          "internalType": "uint256",
          "name": "",
          "type": "uint256"
        }
      ],
      "stateMutability": "view",
      "type": "function"
    },
    {
      "inputs": [],
      "name": "PRICE_DECIMALS",
      "outputs": [
        {
          "internalType": "uint256",
          "name": "",
          "type": "uint256"
        }
      ],
      "stateMutability": "view",
      "type": "function"
    },
    {
      "inputs": [
        {
          "internalType": "address",
          "name": "owner_",
          "type": "address"
        },
        {
          "internalType": "address",
          "name": "spender",
          "type": "address"
        }
      ],
      "name": "allowance",
      "outputs": [
        {
          "internalType": "uint256",
          "name": "",
          "type": "uint256"
        }
      ],
      "stateMutability": "view",
      "type": "function"
    },
    {
      "inputs": [
        {
          "internalType": "address",
          "name": "spender",
          "type": "address"
        },
        {
          "internalType": "uint256",
          "name": "amount",
          "type": "uint256"
        }
      ],
      "name": "approve",
      "outputs": [
        {
          "internalType": "bool",
          "name": "",
          "type": "bool"
        }
      ],
      "stateMutability": "nonpayable",
      "type": "function"
    },
    {
      "inputs": [
        {
          "internalType": "address",
          "name": "account",
          "type": "address"
        }
      ],
      "name": "balanceOf",
      "outputs": [
        {
          "internalType": "uint256",
          "name": "",
          "type": "uint256"
        }
      ],
      "stateMutability": "view",
      "type": "function"
    },
    {
      "inputs": [
        {
          "internalType": "address",
          "name": "who",
          "type": "address"
        }
      ],
      "name": "balanceOfUnderlying",
      "outputs": [
        {
          "internalType": "uint256",
          "name": "",
          "type": "uint256"
        }
      ],
      "stateMutability": "view",
      "type": "function"
    },
    {
      "inputs": [
        {
          "internalType": "uint256",
          "name": "amount",
          "type": "uint256"
        }
      ],
      "name": "burn",
      "outputs": [
        {
          "internalType": "uint256",
          "name": "",
          "type": "uint256"
        }
      ],
      "stateMutability": "nonpayable",
      "type": "function"
    },
    {
      "inputs": [],
      "name": "burnAll",
      "outputs": [
        {
          "internalType": "uint256",
          "name": "",
          "type": "uint256"
        }
      ],
      "stateMutability": "nonpayable",
      "type": "function"
    },
    {
      "inputs": [
        {
          "internalType": "address",
          "name": "to",
          "type": "address"
        }
      ],
      "name": "burnAllTo",
      "outputs": [
        {
          "internalType": "uint256",
          "name": "",
          "type": "uint256"
        }
      ],
      "stateMutability": "nonpayable",
      "type": "function"
    },
    {
      "inputs": [
        {
          "internalType": "address",
          "name": "to",
          "type": "address"
        },
        {
          "internalType": "uint256",
          "name": "amount",
          "type": "uint256"
        }
      ],
      "name": "burnTo",
      "outputs": [
        {
          "internalType": "uint256",
          "name": "",
          "type": "uint256"
        }
      ],
      "stateMutability": "nonpayable",
      "type": "function"
    },
    {
      "inputs": [],
      "name": "decimals",
      "outputs": [
        {
          "internalType": "uint8",
          "name": "",
          "type": "uint8"
        }
      ],
      "stateMutability": "view",
      "type": "function"
    },
    {
      "inputs": [
        {
          "internalType": "address",
          "name": "spender",
          "type": "address"
        },
        {
          "internalType": "uint256",
          "name": "subtractedAmount",
          "type": "uint256"
        }
      ],
      "name": "decreaseAllowance",
      "outputs": [
        {
          "internalType": "bool",
          "name": "",
          "type": "bool"
        }
      ],
      "stateMutability": "nonpayable",
      "type": "function"
    },
    {
      "inputs": [
        {
          "internalType": "uint256",
          "name": "uAmount",
          "type": "uint256"
        }
      ],
      "name": "deposit",
      "outputs": [
        {
          "internalType": "uint256",
          "name": "",
          "type": "uint256"
        }
      ],
      "stateMutability": "nonpayable",
      "type": "function"
    },
    {
      "inputs": [
        {
          "internalType": "address",
          "name": "to",
          "type": "address"
        },
        {
          "internalType": "uint256",
          "name": "uAmount",
          "type": "uint256"
        }
      ],
      "name": "depositFor",
      "outputs": [
        {
          "internalType": "uint256",
          "name": "",
          "type": "uint256"
        }
      ],
      "stateMutability": "nonpayable",
      "type": "function"
    },
    {
      "inputs": [
        {
          "internalType": "address",
          "name": "spender",
          "type": "address"
        },
        {
          "internalType": "uint256",
          "name": "addedAmount",
          "type": "uint256"
        }
      ],
      "name": "increaseAllowance",
      "outputs": [
        {
          "internalType": "bool",
          "name": "",
          "type": "bool"
        }
      ],
      "stateMutability": "nonpayable",
      "type": "function"
    },
    {
      "inputs": [
        {
          "internalType": "address",
          "name": "underlying_",
          "type": "address"
        },
        {
          "internalType": "string",
          "name": "name_",
          "type": "string"
        },
        {
          "internalType": "string",
          "name": "symbol_",
          "type": "string"
        },
        {
          "internalType": "address",
          "name": "oracle_",
          "type": "address"
        }
      ],
      "name": "initialize",
      "outputs": [],
      "stateMutability": "nonpayable",
      "type": "function"
    },
    {
      "inputs": [],
      "name": "lastPrice",
      "outputs": [
        {
          "internalType": "uint256",
          "name": "",
          "type": "uint256"
        }
      ],
      "stateMutability": "view",
      "type": "function"
    },
    {
      "inputs": [
        {
          "internalType": "uint256",
          "name": "amount",
          "type": "uint256"
        }
      ],
      "name": "mint",
      "outputs": [
        {
          "internalType": "uint256",
          "name": "",
          "type": "uint256"
        }
      ],
      "stateMutability": "nonpayable",
      "type": "function"
    },
    {
      "inputs": [
        {
          "internalType": "address",
          "name": "to",
          "type": "address"
        },
        {
          "internalType": "uint256",
          "name": "amount",
          "type": "uint256"
        }
      ],
      "name": "mintFor",
      "outputs": [
        {
          "internalType": "uint256",
          "name": "",
          "type": "uint256"
        }
      ],
      "stateMutability": "nonpayable",
      "type": "function"
    },
    {
      "inputs": [],
      "name": "name",
      "outputs": [
        {
          "internalType": "string",
          "name": "",
          "type": "string"
        }
      ],
      "stateMutability": "view",
      "type": "function"
    },
    {
      "inputs": [],
      "name": "oracle",
      "outputs": [
        {
          "internalType": "address",
          "name": "",
          "type": "address"
        }
      ],
      "stateMutability": "view",
      "type": "function"
    },
    {
      "inputs": [],
      "name": "owner",
      "outputs": [
        {
          "internalType": "address",
          "name": "",
          "type": "address"
        }
      ],
      "stateMutability": "view",
      "type": "function"
    },
    {
      "inputs": [],
      "name": "rebase",
      "outputs": [],
      "stateMutability": "nonpayable",
      "type": "function"
    },
    {
      "inputs": [],
      "name": "renounceOwnership",
      "outputs": [],
      "stateMutability": "nonpayable",
      "type": "function"
    },
    {
      "inputs": [
        {
          "internalType": "address",
          "name": "account",
          "type": "address"
        }
      ],
      "name": "scaledBalanceOf",
      "outputs": [
        {
          "internalType": "uint256",
          "name": "",
          "type": "uint256"
        }
      ],
      "stateMutability": "view",
      "type": "function"
    },
    {
      "inputs": [],
      "name": "scaledTotalSupply",
      "outputs": [
        {
          "internalType": "uint256",
          "name": "",
          "type": "uint256"
        }
      ],
      "stateMutability": "view",
      "type": "function"
    },
    {
      "inputs": [],
      "name": "symbol",
      "outputs": [
        {
          "internalType": "string",
          "name": "",
          "type": "string"
        }
      ],
      "stateMutability": "view",
      "type": "function"
    },
    {
      "inputs": [],
      "name": "totalSupply",
      "outputs": [
        {
          "internalType": "uint256",
          "name": "",
          "type": "uint256"
        }
      ],
      "stateMutability": "view",
      "type": "function"
    },
    {
      "inputs": [],
      "name": "totalUnderlying",
      "outputs": [
        {
          "internalType": "uint256",
          "name": "",
          "type": "uint256"
        }
      ],
      "stateMutability": "view",
      "type": "function"
    },
    {
      "inputs": [
        {
          "internalType": "address",
          "name": "to",
          "type": "address"
        },
        {
          "internalType": "uint256",
          "name": "amount",
          "type": "uint256"
        }
      ],
      "name": "transfer",
      "outputs": [
        {
          "internalType": "bool",
          "name": "",
          "type": "bool"
        }
      ],
      "stateMutability": "nonpayable",
      "type": "function"
    },
    {
      "inputs": [
        {
          "internalType": "address",
          "name": "to",
          "type": "address"
        }
      ],
      "name": "transferAll",
      "outputs": [
        {
          "internalType": "bool",
          "name": "",
          "type": "bool"
        }
      ],
      "stateMutability": "nonpayable",
      "type": "function"
    },
    {
      "inputs": [
        {
          "internalType": "address",
          "name": "from",
          "type": "address"
        },
        {
          "internalType": "address",
          "name": "to",
          "type": "address"
        }
      ],
      "name": "transferAllFrom",
      "outputs": [
        {
          "internalType": "bool",
          "name": "",
          "type": "bool"
        }
      ],
      "stateMutability": "nonpayable",
      "type": "function"
    },
    {
      "inputs": [
        {
          "internalType": "address",
          "name": "from",
          "type": "address"
        },
        {
          "internalType": "address",
          "name": "to",
          "type": "address"
        },
        {
          "internalType": "uint256",
          "name": "amount",
          "type": "uint256"
        }
      ],
      "name": "transferFrom",
      "outputs": [
        {
          "internalType": "bool",
          "name": "",
          "type": "bool"
        }
      ],
      "stateMutability": "nonpayable",
      "type": "function"
    },
    {
      "inputs": [
        {
          "internalType": "address",
          "name": "newOwner",
          "type": "address"
        }
      ],
      "name": "transferOwnership",
      "outputs": [],
      "stateMutability": "nonpayable",
      "type": "function"
    },
    {
      "inputs": [],
      "name": "underlying",
      "outputs": [
        {
          "internalType": "address",
          "name": "",
          "type": "address"
        }
      ],
      "stateMutability": "view",
      "type": "function"
    },
    {
      "inputs": [
        {
          "internalType": "uint256",
          "name": "uAmount",
          "type": "uint256"
        }
      ],
      "name": "underlyingToWrapper",
      "outputs": [
        {
          "internalType": "uint256",
          "name": "",
          "type": "uint256"
        }
      ],
      "stateMutability": "view",
      "type": "function"
    },
    {
      "inputs": [
        {
          "internalType": "address",
          "name": "oracle_",
          "type": "address"
        }
      ],
      "name": "updateOracle",
      "outputs": [],
      "stateMutability": "nonpayable",
      "type": "function"
    },
    {
      "inputs": [
        {
          "internalType": "uint256",
          "name": "uAmount",
          "type": "uint256"
        }
      ],
      "name": "withdraw",
      "outputs": [
        {
          "internalType": "uint256",
          "name": "",
          "type": "uint256"
        }
      ],
      "stateMutability": "nonpayable",
      "type": "function"
    },
    {
      "inputs": [],
      "name": "withdrawAll",
      "outputs": [
        {
          "internalType": "uint256",
          "name": "",
          "type": "uint256"
        }
      ],
      "stateMutability": "nonpayable",
      "type": "function"
    },
    {
      "inputs": [
        {
          "internalType": "address",
          "name": "to",
          "type": "address"
        }
      ],
      "name": "withdrawAllTo",
      "outputs": [
        {
          "internalType": "uint256",
          "name": "",
          "type": "uint256"
        }
      ],
      "stateMutability": "nonpayable",
      "type": "function"
    },
    {
      "inputs": [
        {
          "internalType": "address",
          "name": "to",
          "type": "address"
        },
        {
          "internalType": "uint256",
          "name": "uAmount",
          "type": "uint256"
        }
      ],
      "name": "withdrawTo",
      "outputs": [
        {
          "internalType": "uint256",
          "name": "",
          "type": "uint256"
        }
      ],
      "stateMutability": "nonpayable",
      "type": "function"
    },
    {
      "inputs": [
        {
          "internalType": "uint256",
          "name": "amount",
          "type": "uint256"
        }
      ],
      "name": "wrapperToUnderlying",
      "outputs": [
        {
          "internalType": "uint256",
          "name": "",
          "type": "uint256"
        }
      ],
      "stateMutability": "view",
      "type": "function"
    }
  ],
  "bytecode": "0x608060405234801561001057600080fd5b506123ec806100206000396000f3fe608060405234801561001057600080fd5b50600436106102695760003560e01c8063853828b611610151578063af14052c116100c3578063da1919b311610087578063da1919b3146104ef578063dd62ed3e14610502578063ea785a5e1461053b578063ed0287c01461054e578063f1a640f814610561578063f2fde38b1461056957600080fd5b8063af14052c146104b9578063b1bf962d146104c1578063b6b55f25146104c9578063c70920bc146104c1578063ca9add8f146104dc57600080fd5b8063a0712d6811610115578063a0712d6814610447578063a3a7e7f31461045a578063a457c2d71461046d578063a4fa956814610480578063a9059cbb14610493578063aab3b7db146104a657600080fd5b8063853828b61461040b5780638da5cb5b1461041357806395d89b41146104245780639975038c1461042c5780639b543aab1461043457600080fd5b80632f4f21e2116101ea578063613d25bb116101ae578063613d25bb1461038c5780636f307dc31461039f57806370a08231146103ca578063715018a6146103dd5780637dc0d1d0146103e557806384d4b410146103f857600080fd5b80632f4f21e214610339578063313ce5671461034c57806339509351146103665780633af9e669146102ed57806342966c681461037957600080fd5b80631cb44dfc116102315780631cb44dfc146102d85780631da24f3e146102ed578063205c28781461030057806323b872dd146103135780632e1a7d4d1461032657600080fd5b806301c11d961461026e578063053f14da1461028f57806306fdde0314610298578063095ea7b3146102ad57806318160ddd146102d0575b600080fd5b61027c6001600160601b0381565b6040519081526020015b60405180910390f35b61027c60675481565b6102a061057c565b6040516102869190611fe9565b6102c06102bb366004611f2f565b61060a565b6040519015158152602001610286565b61027c610661565b6102eb6102e6366004611e26565b610686565b005b61027c6102fb366004611e26565b610795565b61027c61030e366004611f2f565b6107cf565b6102c0610321366004611e72565b610824565b61027c610334366004611f72565b610966565b61027c610347366004611f2f565b6109ba565b610354610a05565b60405160ff9091168152602001610286565b6102c0610374366004611f2f565b610a87565b61027c610387366004611f72565b610b14565b6102eb61039a366004611ead565b610b5f565b6065546103b2906001600160a01b031681565b6040516001600160a01b039091168152602001610286565b61027c6103d8366004611e26565b610cdb565b6102eb610d2b565b6066546103b2906001600160a01b031681565b6102c0610406366004611e40565b610d61565b61027c610ec6565b6033546001600160a01b03166103b2565b6102a0610f2a565b61027c610f37565b61027c6b033b2e3c9fd0803ce800000081565b61027c610455366004611f72565b610f96565b6102c0610468366004611e26565b610fe1565b6102c061047b366004611f2f565b61108b565b61027c61048e366004611e26565b611121565b6102c06104a1366004611f2f565b611186565b61027c6104b4366004611f72565b611208565b6102eb611228565b61027c61124b565b61027c6104d7366004611f72565b611258565b61027c6104ea366004611e26565b6112a3565b61027c6104fd366004611f2f565b6112f9565b61027c610510366004611e40565b6001600160a01b039182166000908152606c6020908152604080832093909416825291909152205490565b61027c610549366004611f2f565b611344565b61027c61055c366004611f72565b61138f565b61027c600881565b6102eb610577366004611e26565b6113a9565b60698054610589906122ea565b80601f01602080910402602001604051908101604052809291908181526020018280546105b5906122ea565b80156106025780601f106105d757610100808354040283529160200191610602565b820191906000526020600020905b8154815290600101906020018083116105e557829003601f168201915b505050505081565b336000818152606c602090815260408083206001600160a01b038716808552908352818420869055905185815292939092909160008051602061239783398151915291015b60405180910390a35060015b92915050565b60008061066c611444565b50905061068061067a611506565b82611560565b91505090565b6033546001600160a01b031633146106b95760405162461bcd60e51b81526004016106b0906120ae565b60405180910390fd5b606680546001600160a01b0319166001600160a01b0383161790556000806106df611444565b9092509050806107475760405162461bcd60e51b815260206004820152602d60248201527f427574746f6e546f6b656e3a20756e61626c6520746f2066657463682064617460448201526c612066726f6d206f7261636c6560981b60648201526084016106b0565b6066546040516001600160a01b0390911681527f3df77beb5db05fcdd70a30fc8adf3f83f9501b68579455adbd100b81809403949060200160405180910390a161079082611575565b505050565b60006001600160a01b0382166107ad57506000919050565b6001600160a01b0382166000908152606b602052604090205461065b906115e1565b60008060006107dc611444565b909250905080156107f0576107f082611575565b60006107fb8561161c565b9050600061080b82606754611560565b905061081a3388888486611657565b9695505050505050565b6000826001600160a01b03811661084d5760405162461bcd60e51b81526004016106b0906120e3565b6001600160a01b0381163014156108765760405162461bcd60e51b81526004016106b09061201c565b600080610881611444565b909250905080156108955761089582611575565b6001600160a01b0387166000908152606c6020908152604080832033845290915290205460001914610942576001600160a01b0387166000908152606c60209081526040808320338452909152812080548792906108f49084906122a7565b90915550506001600160a01b0387166000818152606c602090815260408083203380855290835292819020549051908152919291600080516020612397833981519152910160405180910390a35b6109598787610953886067546116de565b886116f3565b5060019695505050505050565b6000806000610973611444565b909250905080156109875761098782611575565b60006109928561161c565b905060006109a282606754611560565b90506109b13333888486611657565b95945050505050565b60008060006109c7611444565b909250905080156109db576109db82611575565b60006109e68561161c565b905060006109f682606754611560565b905061081a33888884866117d9565b6065546040805163313ce56760e01b815290516000926001600160a01b03169163313ce567916004808301926020929190829003018186803b158015610a4a57600080fd5b505afa158015610a5e573d6000803e3d6000fd5b505050506040513d601f19601f82011682018060405250810190610a829190611fac565b905090565b336000908152606c602090815260408083206001600160a01b0386168452909152812080548391908390610abc908490612171565b90915550506001600160a01b038316335b336000908152606c602090815260408083206001600160a01b038981168552908352928190205490519081529290911691600080516020612397833981519152910161064f565b6000806000610b21611444565b90925090508015610b3557610b3582611575565b6000610b43856067546116de565b90506000610b50826115e1565b90506109b13333838986611657565b6000610b6b6001611861565b90508015610b83576000805461ff0019166101001790555b6001600160a01b038516610beb5760405162461bcd60e51b815260206004820152602960248201527f427574746f6e546f6b656e3a20696e76616c696420756e6465726c79696e67206044820152687265666572656e636560b81b60648201526084016106b0565b610bf36118ee565b606580546001600160a01b0319166001600160a01b0387161790558351610c21906069906020870190611cdf565b508251610c3590606a906020860190611cdf565b50610c4e6b033b2e3c9fd0803ce8000000600019612340565b610c5a906000196122a7565b60008052606b6020527fc8cc8bda7ad4886bea3ebbdafa02e79d37c39bf4011696b26a31a0802fd9458b55610c8e82610686565b8015610cd4576000805461ff0019169055604051600181527f7f26b83ff96e1f2b6a682f133852f6798a09c465da95921460cefb38474024989060200160405180910390a15b5050505050565b60006001600160a01b038216610cf357506000919050565b6000610cfd611444565b506001600160a01b0384166000908152606b6020526040902054909150610d249082611560565b9392505050565b6033546001600160a01b03163314610d555760405162461bcd60e51b81526004016106b0906120ae565b610d5f600061191d565b565b6000816001600160a01b038116610d8a5760405162461bcd60e51b81526004016106b0906120e3565b6001600160a01b038116301415610db35760405162461bcd60e51b81526004016106b09061201c565b600080610dbe611444565b90925090508015610dd257610dd282611575565b6001600160a01b0386166000908152606b6020526040812054606754909190610dfc908390611560565b6001600160a01b0389166000908152606c6020908152604080832033845290915290205490915060001914610eac576001600160a01b0388166000908152606c6020908152604080832033845290915281208054839290610e5e9084906122a7565b90915550506001600160a01b0388166000818152606c602090815260408083203380855290835292819020549051908152919291600080516020612397833981519152910160405180910390a35b610eb8888884846116f3565b506001979650505050505050565b6000806000610ed3611444565b90925090508015610ee757610ee782611575565b336000908152606b602052604081205490610f01826115e1565b90506000610f1183606754611560565b9050610f21335b33848487611657565b94505050505090565b606a8054610589906122ea565b6000806000610f44611444565b90925090508015610f5857610f5882611575565b336000908152606b602052604081205490610f72826115e1565b90506000610f8283606754611560565b9050610f8d33610f18565b50935050505090565b6000806000610fa3611444565b90925090508015610fb757610fb782611575565b6000610fc5856067546116de565b90506000610fd2826115e1565b90506109b133338389866117d9565b6000816001600160a01b03811661100a5760405162461bcd60e51b81526004016106b0906120e3565b6001600160a01b0381163014156110335760405162461bcd60e51b81526004016106b09061201c565b60008061103e611444565b909250905080156110525761105282611575565b336000818152606b6020526040902054606754909161107f918890849061107a908290611560565b6116f3565b50600195945050505050565b336000908152606c602090815260408083206001600160a01b038616845290915281205482106110de57336000908152606c602090815260408083206001600160a01b0387168452909152812055611111565b336000908152606c602090815260408083206001600160a01b038716845290915281208054849290610abc9084906122a7565b6001600160a01b03831633610acd565b600080600061112e611444565b909250905080156111425761114282611575565b336000908152606b60205260408120549061115c826115e1565b9050600061116c83606754611560565b905061117c335b88848487611657565b5095945050505050565b6000826001600160a01b0381166111af5760405162461bcd60e51b81526004016106b0906120e3565b6001600160a01b0381163014156111d85760405162461bcd60e51b81526004016106b09061201c565b6000806111e3611444565b909250905080156111f7576111f782611575565b61107f3387610953886067546116de565b600080611213611444565b509050610d2461122384836116de565b6115e1565b600080611233611444565b909250905080156112475761124782611575565b5050565b6000610a82611223611506565b6000806000611265611444565b909250905080156112795761127982611575565b60006112848561161c565b9050600061129482606754611560565b90506109b133338884866117d9565b60008060006112b0611444565b909250905080156112c4576112c482611575565b336000908152606b6020526040812054906112de826115e1565b905060006112ee83606754611560565b905061081a33611173565b6000806000611306611444565b9092509050801561131a5761131a82611575565b6000611328856067546116de565b90506000611335826115e1565b905061081a33888389866117d9565b6000806000611351611444565b909250905080156113655761136582611575565b6000611373856067546116de565b90506000611380826115e1565b905061081a3388838986611657565b60008061139a611444565b509050610d2461067a8461161c565b6033546001600160a01b031633146113d35760405162461bcd60e51b81526004016106b0906120ae565b6001600160a01b0381166114385760405162461bcd60e51b815260206004820152602660248201527f4f776e61626c653a206e6577206f776e657220697320746865207a65726f206160448201526564647265737360d01b60648201526084016106b0565b6114418161191d565b50565b600080600080606660009054906101000a90046001600160a01b03166001600160a01b0316633bc5de306040518163ffffffff1660e01b8152600401604080518083038186803b15801561149757600080fd5b505afa1580156114ab573d6000803e3d6000fd5b505050506040513d601f19601f820116820180604052508101906114cf9190611f8a565b90925090508080156114e15750600082115b6114ed576067546114ef565b815b8180156114fc5750600083115b9350935050509091565b6000808052606b6020527fc8cc8bda7ad4886bea3ebbdafa02e79d37c39bf4011696b26a31a0802fd9458b5461154a6b033b2e3c9fd0803ce8000000600019612340565b611556906000196122a7565b610a8291906122a7565b600061156b8261196f565b610d249084612189565b6001600160601b0381111561158e57506001600160601b035b6067819055606880549060006115a383612325565b90915550506068546040518281527f11c6bf55864ff83827df712625d7a80e5583eef0264921025e7cd22003a215119060200160405180910390a250565b60006b033b2e3c9fd0803ce80000006115fc81600019612340565b611608906000196122a7565b6116129190612189565b61065b9083612189565b60006b033b2e3c9fd0803ce800000061163781600019612340565b611643906000196122a7565b61164d9190612189565b61065b9083612288565b600082116116ba5760405162461bcd60e51b815260206004820152602a60248201527f427574746f6e546f6b656e3a20746f6f2066657720627574746f6e20746f6b656044820152693739903a3790313ab93760b11b60648201526084016106b0565b6116c785600083856116f3565b606554610cd4906001600160a01b031685856119c1565b60006116e98261196f565b610d249084612288565b6001600160a01b0384166000908152606b60205260408120805484929061171b9084906122a7565b90915550506001600160a01b0383166000908152606b602052604081208054849290611748908490612171565b92505081905550826001600160a01b0316846001600160a01b03167fddf252ad1be2c89b69c2b068fc378daa952ba7f163c4a11628f55a4df523b3ef8360405161179491815260200190565b60405180910390a36001600160a01b0384166000908152606b60205260409020546117d3576001600160a01b0384166000908152606b60205260408120555b50505050565b6000821161183c5760405162461bcd60e51b815260206004820152602a60248201527f427574746f6e546f6b656e3a20746f6f2066657720627574746f6e20746f6b656044820152691b9cc81d1bc81b5a5b9d60b21b60648201526084016106b0565b606554611854906001600160a01b0316863086611a24565b610cd460008583856116f3565b60008054610100900460ff16156118a8578160ff1660011480156118845750303b155b6118a05760405162461bcd60e51b81526004016106b090612060565b506000919050565b60005460ff8084169116106118cf5760405162461bcd60e51b81526004016106b090612060565b506000805460ff191660ff92909216919091179055600190565b919050565b600054610100900460ff166119155760405162461bcd60e51b81526004016106b090612126565b610d5f611a5c565b603380546001600160a01b038381166001600160a01b0319831681179093556040519116919082907f8be0079c531659141344cd1fd0a4f28419497f9722a3daafe3b4186f6b6457e090600090a35050565b60008161197e6008600a6121e0565b6b033b2e3c9fd0803ce800000061199781600019612340565b6119a3906000196122a7565b6119ad9190612189565b6119b79190612288565b61065b9190612189565b6040516001600160a01b03831660248201526044810182905261079090849063a9059cbb60e01b906064015b60408051601f198184030181529190526020810180516001600160e01b03166001600160e01b031990931692909217909152611a8c565b6040516001600160a01b03808516602483015283166044820152606481018290526117d39085906323b872dd60e01b906084016119ed565b600054610100900460ff16611a835760405162461bcd60e51b81526004016106b090612126565b610d5f3361191d565b6000611ae1826040518060400160405280602081526020017f5361666545524332303a206c6f772d6c6576656c2063616c6c206661696c6564815250856001600160a01b0316611b5e9092919063ffffffff16565b8051909150156107905780806020019051810190611aff9190611f58565b6107905760405162461bcd60e51b815260206004820152602a60248201527f5361666545524332303a204552433230206f7065726174696f6e20646964206e6044820152691bdd081cdd58d8d9595960b21b60648201526084016106b0565b6060611b6d8484600085611b75565b949350505050565b606082471015611bd65760405162461bcd60e51b815260206004820152602660248201527f416464726573733a20696e73756666696369656e742062616c616e636520666f6044820152651c8818d85b1b60d21b60648201526084016106b0565b6001600160a01b0385163b611c2d5760405162461bcd60e51b815260206004820152601d60248201527f416464726573733a2063616c6c20746f206e6f6e2d636f6e747261637400000060448201526064016106b0565b600080866001600160a01b03168587604051611c499190611fcd565b60006040518083038185875af1925050503d8060008114611c86576040519150601f19603f3d011682016040523d82523d6000602084013e611c8b565b606091505b5091509150611c9b828286611ca6565b979650505050505050565b60608315611cb5575081610d24565b825115611cc55782518084602001fd5b8160405162461bcd60e51b81526004016106b09190611fe9565b828054611ceb906122ea565b90600052602060002090601f016020900481019282611d0d5760008555611d53565b82601f10611d2657805160ff1916838001178555611d53565b82800160010185558215611d53579182015b82811115611d53578251825591602001919060010190611d38565b50611d5f929150611d63565b5090565b5b80821115611d5f5760008155600101611d64565b80356001600160a01b03811681146118e957600080fd5b805180151581146118e957600080fd5b600082601f830112611daf578081fd5b813567ffffffffffffffff80821115611dca57611dca612380565b604051601f8301601f19908116603f01168101908282118183101715611df257611df2612380565b81604052838152866020858801011115611e0a578485fd5b8360208701602083013792830160200193909352509392505050565b600060208284031215611e37578081fd5b610d2482611d78565b60008060408385031215611e52578081fd5b611e5b83611d78565b9150611e6960208401611d78565b90509250929050565b600080600060608486031215611e86578081fd5b611e8f84611d78565b9250611e9d60208501611d78565b9150604084013590509250925092565b60008060008060808587031215611ec2578081fd5b611ecb85611d78565b9350602085013567ffffffffffffffff80821115611ee7578283fd5b611ef388838901611d9f565b94506040870135915080821115611f08578283fd5b50611f1587828801611d9f565b925050611f2460608601611d78565b905092959194509250565b60008060408385031215611f41578182fd5b611f4a83611d78565b946020939093013593505050565b600060208284031215611f69578081fd5b610d2482611d8f565b600060208284031215611f83578081fd5b5035919050565b60008060408385031215611f9c578182fd5b82519150611e6960208401611d8f565b600060208284031215611fbd578081fd5b815160ff81168114610d24578182fd5b60008251611fdf8184602087016122be565b9190910192915050565b60208152600082518060208401526120088160408501602087016122be565b601f01601f19169190910160400192915050565b60208082526024908201527f427574746f6e546f6b656e3a20726563697069656e7420746f6b656e206164646040820152637265737360e01b606082015260800190565b6020808252602e908201527f496e697469616c697a61626c653a20636f6e747261637420697320616c72656160408201526d191e481a5b9a5d1a585b1a5e995960921b606082015260800190565b6020808252818101527f4f776e61626c653a2063616c6c6572206973206e6f7420746865206f776e6572604082015260600190565b60208082526023908201527f427574746f6e546f6b656e3a20726563697069656e74207a65726f206164647260408201526265737360e81b606082015260800190565b6020808252602b908201527f496e697469616c697a61626c653a20636f6e7472616374206973206e6f74206960408201526a6e697469616c697a696e6760a81b606082015260800190565b6000821982111561218457612184612354565b500190565b6000826121985761219861236a565b500490565b600181815b808511156121d85781600019048211156121be576121be612354565b808516156121cb57918102915b93841c93908002906121a2565b509250929050565b6000610d2483836000826121f65750600161065b565b816122035750600061065b565b816001811461221957600281146122235761223f565b600191505061065b565b60ff84111561223457612234612354565b50506001821b61065b565b5060208310610133831016604e8410600b8410161715612262575081810a61065b565b61226c838361219d565b806000190482111561228057612280612354565b029392505050565b60008160001904831182151516156122a2576122a2612354565b500290565b6000828210156122b9576122b9612354565b500390565b60005b838110156122d95781810151838201526020016122c1565b838111156117d35750506000910152565b600181811c908216806122fe57607f821691505b6020821081141561231f57634e487b7160e01b600052602260045260246000fd5b50919050565b600060001982141561233957612339612354565b5060010190565b60008261234f5761234f61236a565b500690565b634e487b7160e01b600052601160045260246000fd5b634e487b7160e01b600052601260045260246000fd5b634e487b7160e01b600052604160045260246000fdfe8c5be1e5ebec7d5bd14f71427d1e84f3dd0314c0f7b2291e5b200ac8c7c3b925a2646970667358221220a666eb2027c71c72d9f34b06cb8b501f1ed0f42867bb9b22138f99381ff8ad9064736f6c63430008040033",
  "linkReferences": {},
  "deployedLinkReferences": {}
}