{
  "_format": "hh-sol-artifact-1",
  "contractName": "MedianOracle",
  "sourceName": "contracts/MedianOracle.sol",
  "abi": [
    {
      "anonymous": false,
      "inputs": [
        {
          "indexed": false,
          "internalType": "uint8",
          "name": "version",
          "type": "uint8"
        }
      ],
      "name": "Initialized",
      "type": "event"
    },
    {
      "anonymous": false,
      "inputs": [
        {
          "indexed": true,
          "internalType": "address",
          "name": "previousOwner",
          "type": "address"
        },
        {
          "indexed": true,
          "internalType": "address",
          "name": "newOwner",
          "type": "address"
        }
      ],
      "name": "OwnershipTransferred",
      "type": "event"
    },
    {
      "anonymous": false,
      "inputs": [
        {
          "indexed": false,
          "internalType": "address",
          "name": "provider",
          "type": "address"
        }
      ],
      "name": "ProviderAdded",
      "type": "event"
    },
    {
      "anonymous": false,
      "inputs": [
        {
          "indexed": false,
          "internalType": "address",
          "name": "provider",
          "type": "address"
        }
      ],
      "name": "ProviderRemoved",
      "type": "event"
    },
    {
      "anonymous": false,
      "inputs": [
        {
          "indexed": true,
          "internalType": "address",
          "name": "provider",
          "type": "address"
        },
        {
          "indexed": false,
          "internalType": "uint256",
          "name": "payload",
          "type": "uint256"
        },
        {
          "indexed": false,
          "internalType": "uint256",
          "name": "timestamp",
          "type": "uint256"
        }
      ],
      "name": "ProviderReportPushed",
      "type": "event"
    },
    {
      "anonymous": false,
      "inputs": [
        {
          "indexed": false,
          "internalType": "address",
          "name": "provider",
          "type": "address"
        }
      ],
      "name": "ReportTimestampOutOfRange",
      "type": "event"
    },
    {
      "inputs": [
        {
          "internalType": "address",
          "name": "provider",
          "type": "address"
        }
      ],
      "name": "addProvider",
      "outputs": [],
      "stateMutability": "nonpayable",
      "type": "function"
    },
    {
      "inputs": [],
      "name": "getData",
      "outputs": [
        {
          "internalType": "uint256",
          "name": "",
          "type": "uint256"
        },
        {
          "internalType": "bool",
          "name": "",
          "type": "bool"
        }
      ],
      "stateMutability": "nonpayable",
      "type": "function"
    },
    {
      "inputs": [
        {
          "internalType": "uint256",
          "name": "reportExpirationTimeSec_",
          "type": "uint256"
        },
        {
          "internalType": "uint256",
          "name": "reportDelaySec_",
          "type": "uint256"
        },
        {
          "internalType": "uint256",
          "name": "minimumProviders_",
          "type": "uint256"
        }
      ],
      "name": "init",
      "outputs": [],
      "stateMutability": "nonpayable",
      "type": "function"
    },
    {
      "inputs": [],
      "name": "minimumProviders",
      "outputs": [
        {
          "internalType": "uint256",
          "name": "",
          "type": "uint256"
        }
      ],
      "stateMutability": "view",
      "type": "function"
    },
    {
      "inputs": [],
      "name": "owner",
      "outputs": [
        {
          "internalType": "address",
          "name": "",
          "type": "address"
        }
      ],
      "stateMutability": "view",
      "type": "function"
    },
    {
      "inputs": [
        {
          "internalType": "address",
          "name": "",
          "type": "address"
        },
        {
          "internalType": "uint256",
          "name": "",
          "type": "uint256"
        }
      ],
      "name": "providerReports",
      "outputs": [
        {
          "internalType": "uint256",
          "name": "timestamp",
          "type": "uint256"
        },
        {
          "internalType": "uint256",
          "name": "payload",
          "type": "uint256"
        }
      ],
      "stateMutability": "view",
      "type": "function"
    },
    {
      "inputs": [
        {
          "internalType": "uint256",
          "name": "",
          "type": "uint256"
        }
      ],
      "name": "providers",
      "outputs": [
        {
          "internalType": "address",
          "name": "",
          "type": "address"
        }
      ],
      "stateMutability": "view",
      "type": "function"
    },
    {
      "inputs": [],
      "name": "providersSize",
      "outputs": [
        {
          "internalType": "uint256",
          "name": "",
          "type": "uint256"
        }
      ],
      "stateMutability": "view",
      "type": "function"
    },
    {
      "inputs": [],
      "name": "purgeReports",
      "outputs": [],
      "stateMutability": "nonpayable",
      "type": "function"
    },
    {
      "inputs": [
        {
          "internalType": "uint256",
          "name": "payload",
          "type": "uint256"
        }
      ],
      "name": "pushReport",
      "outputs": [],
      "stateMutability": "nonpayable",
      "type": "function"
    },
    {
      "inputs": [
        {
          "internalType": "address",
          "name": "provider",
          "type": "address"
        }
      ],
      "name": "removeProvider",
      "outputs": [],
      "stateMutability": "nonpayable",
      "type": "function"
    },
    {
      "inputs": [],
      "name": "renounceOwnership",
      "outputs": [],
      "stateMutability": "nonpayable",
      "type": "function"
    },
    {
      "inputs": [],
      "name": "reportDelaySec",
      "outputs": [
        {
          "internalType": "uint256",
          "name": "",
          "type": "uint256"
        }
      ],
      "stateMutability": "view",
      "type": "function"
    },
    {
      "inputs": [],
      "name": "reportExpirationTimeSec",
      "outputs": [
        {
          "internalType": "uint256",
          "name": "",
          "type": "uint256"
        }
      ],
      "stateMutability": "view",
      "type": "function"
    },
    {
      "inputs": [
        {
          "internalType": "uint256",
          "name": "minimumProviders_",
          "type": "uint256"
        }
      ],
      "name": "setMinimumProviders",
      "outputs": [],
      "stateMutability": "nonpayable",
      "type": "function"
    },
    {
      "inputs": [
        {
          "internalType": "uint256",
          "name": "reportDelaySec_",
          "type": "uint256"
        }
      ],
      "name": "setReportDelaySec",
      "outputs": [],
      "stateMutability": "nonpayable",
      "type": "function"
    },
    {
      "inputs": [
        {
          "internalType": "uint256",
          "name": "reportExpirationTimeSec_",
          "type": "uint256"
        }
      ],
      "name": "setReportExpirationTimeSec",
      "outputs": [],
      "stateMutability": "nonpayable",
      "type": "function"
    },
    {
      "inputs": [
        {
          "internalType": "address",
          "name": "newOwner",
          "type": "address"
        }
      ],
      "name": "transferOwnership",
      "outputs": [],
      "stateMutability": "nonpayable",
      "type": "function"
    }
  ],
  "bytecode": "0x6080604052600160695534801561001557600080fd5b50611279806100256000396000f3fe608060405234801561001057600080fd5b50600436106101165760003560e01c8063b577c0c7116100a2578063df98298511610071578063df98298514610212578063ef35bcce1461021b578063f10864b61461022e578063f2fde38b14610256578063f68be5131461026957600080fd5b8063b577c0c7146101e6578063d13d5971146101ef578063da6b0eea146101f7578063dcbb82531461020a57600080fd5b806350f3fc81116100e957806350f3fc811461017c578063715018a6146101a75780638a355a57146101af5780638cd8db8a146101c25780638da5cb5b146101d557600080fd5b806312e800f11461011b5780631e20d14b146101375780633bc5de301461014c57806346e2577a14610169575b600080fd5b61012460685481565b6040519081526020015b60405180910390f35b61014a6101453660046110dd565b61027c565b005b6101546103d1565b6040805192835290151560208301520161012e565b61014a610177366004611093565b6107d4565b61018f61018a3660046110dd565b61089c565b6040516001600160a01b03909116815260200161012e565b61014a6108c6565b61014a6101bd366004611093565b6108da565b61014a6101d03660046110f5565b610aa6565b6033546001600160a01b031661018f565b61012460695481565b61014a610bec565b61014a6102053660046110dd565b610c29565b606554610124565b61012460675481565b61014a6102293660046110dd565b610c36565b61024161023c3660046110b4565b610c50565b6040805192835260208301919091520161012e565b61014a610264366004611093565b610c80565b61014a6102773660046110dd565b610cf9565b336000818152606660209081526040918290208251808401909352805480845260028201549284019290925291906102b357600080fd5b6020810151815160009111156102ca5760016102cd565b60005b905060006102dc8260016111ae565b905042606854848460ff166002811061030557634e487b7160e01b600052603260045260246000fd5b6020020151610314919061116b565b111561031f57600080fd5b42848260ff166002811061034357634e487b7160e01b600052603260045260246000fd5b600202016000018190555085848260ff166002811061037257634e487b7160e01b600052603260045260246000fd5b6002020160010181905550846001600160a01b03167f460fcc5a1888965d48c2cab000fe20da51b1297d995af79a1924e2312d0d82b387426040516103c1929190918252602082015260400190565b60405180910390a2505050505050565b6065546000908190818167ffffffffffffffff81111561040157634e487b7160e01b600052604160045260246000fd5b60405190808252806020026020018201604052801561042a578160200160208202803683370190505b5090506000806067544261043e9190611197565b90506000606854426104509190611197565b905060005b858110156107a25760006065828154811061048057634e487b7160e01b600052603260045260246000fd5b60009182526020808320909101546001600160a01b031680835260669091526040808320815180830190925291935090600283835b828210156104f15783826002020160405180604001604052908160008201548152602001600182015481525050815260200190600101906104b5565b50505050905060008160016002811061051a57634e487b7160e01b600052603260045260246000fd5b6020020151518251511015610530576001610533565b60005b905060006105428260016111ae565b90506000838360ff166002811061056957634e487b7160e01b600052603260045260246000fd5b6020020151519050868111156106c6576001600160a01b038516600090815260666020526040812060ff8416600281106105b357634e487b7160e01b600052603260045260246000fd5b6002020154905088811015610604576040516001600160a01b03871681527f71f61642cb57ac11764a2f35fb4edc5361ced458af35bbed8f5ebf708c10e341906020015b60405180910390a16106c0565b87811115610645576040516001600160a01b03871681527f71f61642cb57ac11764a2f35fb4edc5361ced458af35bbed8f5ebf708c10e341906020016105f7565b6001600160a01b038616600090815260666020526040902060ff84166002811061067f57634e487b7160e01b600052603260045260246000fd5b60020201600101548b8b80610693906111e8565b9c50815181106106b357634e487b7160e01b600052603260045260246000fd5b6020026020010181815250505b5061078a565b8781101561070f576040516001600160a01b03861681527f71f61642cb57ac11764a2f35fb4edc5361ced458af35bbed8f5ebf708c10e3419060200160405180910390a161078a565b6001600160a01b038516600090815260666020526040902060ff84166002811061074957634e487b7160e01b600052603260045260246000fd5b60020201600101548a8a8061075d906111e8565b9b508151811061077d57634e487b7160e01b600052603260045260246000fd5b6020026020010181815250505b5050505050808061079a906111e8565b915050610455565b506069548310156107bc5750600096879650945050505050565b6107c68484610d17565b976001975095505050505050565b6107dc610f71565b6001600160a01b038116600090815260666020526040902054156107ff57600080fd5b6065805460018082019092557f8ff97419363ffd7000167f130ef7168fbea05faf9251824ca5043f113cc6a7c70180546001600160a01b0319166001600160a01b03841690811790915560009081526066602052604081209060020201556040516001600160a01b03821681527fae9c2c6481964847714ce58f65a7f6dcc41d0d8394449bacdf161b5920c4744a9060200160405180910390a150565b606581815481106108ac57600080fd5b6000918252602090912001546001600160a01b0316905081565b6108ce610f71565b6108d86000610fcb565b565b6108e2610f71565b6001600160a01b038116600090815260666020526040812081815560018101829055600281018290556003015560005b606554811015610aa257816001600160a01b03166065828154811061094757634e487b7160e01b600052603260045260246000fd5b6000918252602090912001546001600160a01b03161415610a905760655461097082600161116b565b14610a0c576065805461098590600190611197565b815481106109a357634e487b7160e01b600052603260045260246000fd5b600091825260209091200154606580546001600160a01b0390921691839081106109dd57634e487b7160e01b600052603260045260246000fd5b9060005260206000200160006101000a8154816001600160a01b0302191690836001600160a01b031602179055505b6065805480610a2b57634e487b7160e01b600052603160045260246000fd5b6000828152602090819020600019908301810180546001600160a01b03191690559091019091556040516001600160a01b03841681527f1589f8555933761a3cff8aa925061be3b46e2dd43f621322ab611d300f62b1d9910160405180910390a15050565b80610a9a816111e8565b915050610912565b5050565b600054610100900460ff1615808015610ac65750600054600160ff909116105b80610ae05750303b158015610ae0575060005460ff166001145b610b485760405162461bcd60e51b815260206004820152602e60248201527f496e697469616c697a61626c653a20636f6e747261637420697320616c72656160448201526d191e481a5b9a5d1a585b1a5e995960921b60648201526084015b60405180910390fd5b6000805460ff191660011790558015610b6b576000805461ff0019166101001790555b6312bed400841115610b7c57600080fd5b60008211610b8957600080fd5b606784905560688390556069829055610ba061101d565b8015610be6576000805461ff0019169055604051600181527f7f26b83ff96e1f2b6a682f133852f6798a09c465da95921460cefb38474024989060200160405180910390a15b50505050565b33600081815260666020526040902054610c0557600080fd5b6001600160a01b031660009081526066602052604090206001808255600290910155565b610c31610f71565b606855565b610c3e610f71565b60008111610c4b57600080fd5b606955565b60666020528160005260406000208160028110610c6c57600080fd5b600202018054600190910154909250905082565b610c88610f71565b6001600160a01b038116610ced5760405162461bcd60e51b815260206004820152602660248201527f4f776e61626c653a206e6577206f776e657220697320746865207a65726f206160448201526564647265737360d01b6064820152608401610b3f565b610cf681610fcb565b50565b610d01610f71565b6312bed400811115610d1257600080fd5b606755565b60008082118015610d29575081835110155b610d3257600080fd5b60015b82811015610e9457805b600081118015610da85750848181518110610d6a57634e487b7160e01b600052603260045260246000fd5b602002602001015185600183610d809190611197565b81518110610d9e57634e487b7160e01b600052603260045260246000fd5b6020026020010151115b15610e81576000858281518110610dcf57634e487b7160e01b600052603260045260246000fd5b6020026020010151905085600183610de79190611197565b81518110610e0557634e487b7160e01b600052603260045260246000fd5b6020026020010151868381518110610e2d57634e487b7160e01b600052603260045260246000fd5b60209081029190910101528086610e45600185611197565b81518110610e6357634e487b7160e01b600052603260045260246000fd5b60209081029190910101525080610e79816111d1565b915050610d3f565b5080610e8c816111e8565b915050610d35565b50610ea0600283611203565b60011415610ee15782610eb4600284611183565b81518110610ed257634e487b7160e01b600052603260045260246000fd5b60200260200101519050610f6b565b6002836001610ef08386611183565b610efa9190611197565b81518110610f1857634e487b7160e01b600052603260045260246000fd5b602002602001015184600285610f2e9190611183565b81518110610f4c57634e487b7160e01b600052603260045260246000fd5b6020026020010151610f5e919061116b565b610f689190611183565b90505b92915050565b6033546001600160a01b031633146108d85760405162461bcd60e51b815260206004820181905260248201527f4f776e61626c653a2063616c6c6572206973206e6f7420746865206f776e65726044820152606401610b3f565b603380546001600160a01b038381166001600160a01b0319831681179093556040519116919082907f8be0079c531659141344cd1fd0a4f28419497f9722a3daafe3b4186f6b6457e090600090a35050565b600054610100900460ff166110445760405162461bcd60e51b8152600401610b3f90611120565b6108d8600054610100900460ff1661106e5760405162461bcd60e51b8152600401610b3f90611120565b6108d833610fcb565b80356001600160a01b038116811461108e57600080fd5b919050565b6000602082840312156110a4578081fd5b6110ad82611077565b9392505050565b600080604083850312156110c6578081fd5b6110cf83611077565b946020939093013593505050565b6000602082840312156110ee578081fd5b5035919050565b600080600060608486031215611109578081fd5b505081359360208301359350604090920135919050565b6020808252602b908201527f496e697469616c697a61626c653a20636f6e7472616374206973206e6f74206960408201526a6e697469616c697a696e6760a81b606082015260800190565b6000821982111561117e5761117e611217565b500190565b6000826111925761119261122d565b500490565b6000828210156111a9576111a9611217565b500390565b600060ff821660ff8416808210156111c8576111c8611217565b90039392505050565b6000816111e0576111e0611217565b506000190190565b60006000198214156111fc576111fc611217565b5060010190565b6000826112125761121261122d565b500690565b634e487b7160e01b600052601160045260246000fd5b634e487b7160e01b600052601260045260246000fdfea26469706673582212201830afdebbb0a773c1612d542049c26255d8c66ab8cd1c0486dd60877074415464736f6c63430008040033",
  "linkReferences": {},
  "deployedLinkReferences": {}
}