{
  "_format": "hh-sol-artifact-1",
  "contractName": "TrancheFactory",
  "sourceName": "button-tranche/contracts/TrancheFactory.sol",
  "abi": [
    {
      "inputs": [
        {
          "internalType": "address",
          "name": "_target",
          "type": "address"
        }
      ],
      "stateMutability": "nonpayable",
      "type": "constructor"
    },
    {
      "anonymous": false,
      "inputs": [
        {
          "indexed": false,
          "internalType": "address",
          "name": "newTrancheAddress",
          "type": "address"
        }
      ],
      "name": "TrancheCreated",
      "type": "event"
    },
    {
      "inputs": [],
      "name": "DEFAULT_ADMIN_ROLE",
      "outputs": [
        {
          "internalType": "bytes32",
          "name": "",
          "type": "bytes32"
        }
      ],
      "stateMutability": "view",
      "type": "function"
    },
    {
      "inputs": [
        {
          "internalType": "string",
          "name": "name",
          "type": "string"
        },
        {
          "internalType": "string",
          "name": "symbol",
          "type": "string"
        },
        {
          "internalType": "address",
          "name": "_collateralToken",
          "type": "address"
        }
      ],
      "name": "createTranche",
      "outputs": [
        {
          "internalType": "address",
          "name": "",
          "type": "address"
        }
      ],
      "stateMutability": "nonpayable",
      "type": "function"
    },
    {
      "inputs": [],
      "name": "target",
      "outputs": [
        {
          "internalType": "address",
          "name": "",
          "type": "address"
        }
      ],
      "stateMutability": "view",
      "type": "function"
    }
  ],
  "bytecode": "0x60a060405234801561001057600080fd5b506040516104a43803806104a483398101604081905261002f91610044565b60601b6001600160601b031916608052610072565b600060208284031215610055578081fd5b81516001600160a01b038116811461006b578182fd5b9392505050565b60805160601c61040f610095600039600081816066015260b6015261040f6000f3fe608060405234801561001057600080fd5b50600436106100415760003560e01c8063a217fddf14610046578063d4b8399214610061578063ef55207c146100a0575b600080fd5b61004e600081565b6040519081526020015b60405180910390f35b6100887f000000000000000000000000000000000000000000000000000000000000000081565b6040516001600160a01b039091168152602001610058565b6100886100ae3660046102ae565b6000806100da7f0000000000000000000000000000000000000000000000000000000000000000610186565b604051630381fe1560e21b81529091506001600160a01b03821690630e07f8549061010f908890889033908990600401610379565b600060405180830381600087803b15801561012957600080fd5b505af115801561013d573d6000803e3d6000fd5b50506040516001600160a01b03841681527f23d8a4099ea84abba379e80f33847b6cb249ea6667db65318e181147178621fe9250602001905060405180910390a1949350505050565b6000604051733d602d80600a3d3981f3363d3d373d3d3d363d7360601b81528260601b60148201526e5af43d82803e903d91602b57fd5bf360881b60288201526037816000f09150506001600160a01b0381166102225760405162461bcd60e51b8152602060048201526016602482015275115490cc4c4d8dce8818dc99585d194819985a5b195960521b604482015260640160405180910390fd5b919050565b600082601f830112610237578081fd5b813567ffffffffffffffff80821115610252576102526103c3565b604051601f8301601f19908116603f0116810190828211818310171561027a5761027a6103c3565b81604052838152866020858801011115610292578485fd5b8360208701602083013792830160200193909352509392505050565b6000806000606084860312156102c2578283fd5b833567ffffffffffffffff808211156102d9578485fd5b6102e587838801610227565b945060208601359150808211156102fa578384fd5b5061030786828701610227565b92505060408401356001600160a01b0381168114610323578182fd5b809150509250925092565b60008151808452815b8181101561035357602081850181015186830182015201610337565b818111156103645782602083870101525b50601f01601f19169290920160200192915050565b60006080825261038c608083018761032e565b828103602084015261039e818761032e565b6001600160a01b03958616604085015293909416606090920191909152509392505050565b634e487b7160e01b600052604160045260246000fdfea2646970667358221220d09e2117a20dce61ad150dee14b34aa4fc24901987be48332c7746d96559f5ec64736f6c63430008030033",
  "linkReferences": {},
  "deployedLinkReferences": {}
}