{
  "_format": "hh-sol-artifact-1",
  "contractName": "Tranche",
  "sourceName": "button-tranche/contracts/Tranche.sol",
  "abi": [
    {
      "inputs": [],
      "stateMutability": "nonpayable",
      "type": "constructor"
    },
    {
      "anonymous": false,
      "inputs": [
        {
          "indexed": true,
          "internalType": "address",
          "name": "owner",
          "type": "address"
        },
        {
          "indexed": true,
          "internalType": "address",
          "name": "spender",
          "type": "address"
        },
        {
          "indexed": false,
          "internalType": "uint256",
          "name": "value",
          "type": "uint256"
        }
      ],
      "name": "Approval",
      "type": "event"
    },
    {
      "anonymous": false,
      "inputs": [
        {
          "indexed": false,
          "internalType": "uint8",
          "name": "version",
          "type": "uint8"
        }
      ],
      "name": "Initialized",
      "type": "event"
    },
    {
      "anonymous": false,
      "inputs": [
        {
          "indexed": true,
          "internalType": "address",
          "name": "from",
          "type": "address"
        },
        {
          "indexed": true,
          "internalType": "address",
          "name": "to",
          "type": "address"
        },
        {
          "indexed": false,
          "internalType": "uint256",
          "name": "value",
          "type": "uint256"
        }
      ],
      "name": "Transfer",
      "type": "event"
    },
    {
      "inputs": [
        {
          "internalType": "address",
          "name": "owner",
          "type": "address"
        },
        {
          "internalType": "address",
          "name": "spender",
          "type": "address"
        }
      ],
      "name": "allowance",
      "outputs": [
        {
          "internalType": "uint256",
          "name": "",
          "type": "uint256"
        }
      ],
      "stateMutability": "view",
      "type": "function"
    },
    {
      "inputs": [
        {
          "internalType": "address",
          "name": "spender",
          "type": "address"
        },
        {
          "internalType": "uint256",
          "name": "amount",
          "type": "uint256"
        }
      ],
      "name": "approve",
      "outputs": [
        {
          "internalType": "bool",
          "name": "",
          "type": "bool"
        }
      ],
      "stateMutability": "nonpayable",
      "type": "function"
    },
    {
      "inputs": [
        {
          "internalType": "address",
          "name": "account",
          "type": "address"
        }
      ],
      "name": "balanceOf",
      "outputs": [
        {
          "internalType": "uint256",
          "name": "",
          "type": "uint256"
        }
      ],
      "stateMutability": "view",
      "type": "function"
    },
    {
      "inputs": [],
      "name": "bond",
      "outputs": [
        {
          "internalType": "address",
          "name": "",
          "type": "address"
        }
      ],
      "stateMutability": "view",
      "type": "function"
    },
    {
      "inputs": [
        {
          "internalType": "address",
          "name": "from",
          "type": "address"
        },
        {
          "internalType": "uint256",
          "name": "amount",
          "type": "uint256"
        }
      ],
      "name": "burn",
      "outputs": [],
      "stateMutability": "nonpayable",
      "type": "function"
    },
    {
      "inputs": [],
      "name": "collateralToken",
      "outputs": [
        {
          "internalType": "address",
          "name": "",
          "type": "address"
        }
      ],
      "stateMutability": "view",
      "type": "function"
    },
    {
      "inputs": [],
      "name": "decimals",
      "outputs": [
        {
          "internalType": "uint8",
          "name": "",
          "type": "uint8"
        }
      ],
      "stateMutability": "view",
      "type": "function"
    },
    {
      "inputs": [
        {
          "internalType": "address",
          "name": "spender",
          "type": "address"
        },
        {
          "internalType": "uint256",
          "name": "subtractedValue",
          "type": "uint256"
        }
      ],
      "name": "decreaseAllowance",
      "outputs": [
        {
          "internalType": "bool",
          "name": "",
          "type": "bool"
        }
      ],
      "stateMutability": "nonpayable",
      "type": "function"
    },
    {
      "inputs": [
        {
          "internalType": "address",
          "name": "spender",
          "type": "address"
        },
        {
          "internalType": "uint256",
          "name": "addedValue",
          "type": "uint256"
        }
      ],
      "name": "increaseAllowance",
      "outputs": [
        {
          "internalType": "bool",
          "name": "",
          "type": "bool"
        }
      ],
      "stateMutability": "nonpayable",
      "type": "function"
    },
    {
      "inputs": [
        {
          "internalType": "string",
          "name": "name",
          "type": "string"
        },
        {
          "internalType": "string",
          "name": "symbol",
          "type": "string"
        },
        {
          "internalType": "address",
          "name": "_bond",
          "type": "address"
        },
        {
          "internalType": "address",
          "name": "_collateralToken",
          "type": "address"
        }
      ],
      "name": "init",
      "outputs": [],
      "stateMutability": "nonpayable",
      "type": "function"
    },
    {
      "inputs": [
        {
          "internalType": "string",
          "name": "name_",
          "type": "string"
        },
        {
          "internalType": "string",
          "name": "symbol_",
          "type": "string"
        }
      ],
      "name": "init",
      "outputs": [],
      "stateMutability": "nonpayable",
      "type": "function"
    },
    {
      "inputs": [
        {
          "internalType": "address",
          "name": "to",
          "type": "address"
        },
        {
          "internalType": "uint256",
          "name": "amount",
          "type": "uint256"
        }
      ],
      "name": "mint",
      "outputs": [],
      "stateMutability": "nonpayable",
      "type": "function"
    },
    {
      "inputs": [],
      "name": "name",
      "outputs": [
        {
          "internalType": "string",
          "name": "",
          "type": "string"
        }
      ],
      "stateMutability": "view",
      "type": "function"
    },
    {
      "inputs": [
        {
          "internalType": "address",
          "name": "from",
          "type": "address"
        },
        {
          "internalType": "address",
          "name": "to",
          "type": "address"
        },
        {
          "internalType": "uint256",
          "name": "amount",
          "type": "uint256"
        }
      ],
      "name": "redeem",
      "outputs": [],
      "stateMutability": "nonpayable",
      "type": "function"
    },
    {
      "inputs": [],
      "name": "symbol",
      "outputs": [
        {
          "internalType": "string",
          "name": "",
          "type": "string"
        }
      ],
      "stateMutability": "view",
      "type": "function"
    },
    {
      "inputs": [],
      "name": "totalSupply",
      "outputs": [
        {
          "internalType": "uint256",
          "name": "",
          "type": "uint256"
        }
      ],
      "stateMutability": "view",
      "type": "function"
    },
    {
      "inputs": [
        {
          "internalType": "address",
          "name": "recipient",
          "type": "address"
        },
        {
          "internalType": "uint256",
          "name": "amount",
          "type": "uint256"
        }
      ],
      "name": "transfer",
      "outputs": [
        {
          "internalType": "bool",
          "name": "",
          "type": "bool"
        }
      ],
      "stateMutability": "nonpayable",
      "type": "function"
    },
    {
      "inputs": [
        {
          "internalType": "address",
          "name": "sender",
          "type": "address"
        },
        {
          "internalType": "address",
          "name": "recipient",
          "type": "address"
        },
        {
          "internalType": "uint256",
          "name": "amount",
          "type": "uint256"
        }
      ],
      "name": "transferFrom",
      "outputs": [
        {
          "internalType": "bool",
          "name": "",
          "type": "bool"
        }
      ],
      "stateMutability": "nonpayable",
      "type": "function"
    }
  ],
  "bytecode": "0x60806040523480156200001157600080fd5b50604080518082018252600e81526d24a6a82622a6a2a72a20aa24a7a760911b6020808301918252835180850190945260048452631253541360e21b908401528151919291620000649160039162000095565b5080516200007a90600490602084019062000095565b50506005805462010000600160b01b03191690555062000178565b828054620000a3906200013b565b90600052602060002090601f016020900481019282620000c7576000855562000112565b82601f10620000e257805160ff191683800117855562000112565b8280016001018555821562000112579182015b8281111562000112578251825591602001919060010190620000f5565b506200012092915062000124565b5090565b5b8082111562000120576000815560010162000125565b600181811c908216806200015057607f821691505b602082108114156200017257634e487b7160e01b600052602260045260246000fd5b50919050565b6114ca80620001886000396000f3fe608060405234801561001057600080fd5b50600436106101165760003560e01c806364c9ec6f116100a25780639dc29fac116100715780639dc29fac14610242578063a457c2d714610255578063a9059cbb14610268578063b2016bd41461027b578063dd62ed3e1461029457610116565b806364c9ec6f146101e95780637029144c1461021457806370a082311461022757806395d89b411461023a57610116565b806318160ddd116100e957806318160ddd1461018457806323b872dd14610196578063313ce567146101a957806339509351146101c357806340c10f19146101d657610116565b806306fdde031461011b578063095ea7b3146101395780630e07f8541461015c5780630e6dfcd514610171575b600080fd5b6101236102cd565b60405161013091906112db565b60405180910390f35b61014c61014736600461115a565b61035f565b6040519015158152602001610130565b61016f61016a366004611204565b610375565b005b61016f61017f36600461111f565b6104f3565b6002545b604051908152602001610130565b61014c6101a436600461111f565b6105ec565b6101b161069d565b60405160ff9091168152602001610130565b61014c6101d136600461115a565b61072a565b61016f6101e436600461115a565b610761565b6006546101fc906001600160a01b031681565b6040516001600160a01b039091168152602001610130565b61016f6102223660046111a3565b610799565b6101886102353660046110cc565b6107c5565b6101236107e4565b61016f61025036600461115a565b6107f3565b61014c61026336600461115a565b610827565b61014c61027636600461115a565b6108c2565b6005546101fc906201000090046001600160a01b031681565b6101886102a23660046110ed565b6001600160a01b03918216600090815260016020908152604080832093909416825291909152205490565b6060600380546102dc9061142d565b80601f01602080910402602001604051908101604052809291908181526020018280546103089061142d565b80156103555780601f1061032a57610100808354040283529160200191610355565b820191906000526020600020905b81548152906001019060200180831161033857829003601f168201915b5050505050905090565b600061036c3384846108cf565b50600192915050565b600061038160016109f4565b90508015610399576005805461ff0019166101001790555b6001600160a01b0383166103f45760405162461bcd60e51b815260206004820152601d60248201527f5472616e6368653a20696e76616c696420626f6e64206164647265737300000060448201526064015b60405180910390fd5b6001600160a01b03821661045b5760405162461bcd60e51b815260206004820152602860248201527f5472616e6368653a20696e76616c696420636f6c6c61746572616c546f6b656e604482015267206164647265737360c01b60648201526084016103eb565b600680546001600160a01b0319166001600160a01b03858116919091179091556005805462010000600160b01b03191662010000928516929092029190911790556104a68585610799565b80156104ec576005805461ff0019169055604051600181527f7f26b83ff96e1f2b6a682f133852f6798a09c465da95921460cefb38474024989060200160405180910390a15b5050505050565b6006546001600160a01b0316331461051d5760405162461bcd60e51b81526004016103eb9061135c565b600061052860025490565b6005546040516370a0823160e01b815230600482015284916201000090046001600160a01b0316906370a082319060240160206040518083038186803b15801561057157600080fd5b505afa158015610585573d6000803e3d6000fd5b505050506040513d601f19601f820116820180604052508101906105a99190611286565b6105b391906113cb565b6105bd91906113ab565b90506105c98483610a7b565b6005546105e6906201000090046001600160a01b03168483610bca565b50505050565b60006105f9848484610cde565b6001600160a01b03841660009081526001602090815260408083203384529091529020548281101561067e5760405162461bcd60e51b815260206004820152602860248201527f45524332303a207472616e7366657220616d6f756e74206578636565647320616044820152676c6c6f77616e636560c01b60648201526084016103eb565b610692853361068d86856113ea565b6108cf565b506001949350505050565b6000600560029054906101000a90046001600160a01b03166001600160a01b031663313ce5676040518163ffffffff1660e01b815260040160206040518083038186803b1580156106ed57600080fd5b505afa158015610701573d6000803e3d6000fd5b505050506040513d601f19601f82011682018060405250810190610725919061129e565b905090565b3360008181526001602090815260408083206001600160a01b0387168452909152812054909161036c91859061068d908690611393565b6006546001600160a01b0316331461078b5760405162461bcd60e51b81526004016103eb9061135c565b6107958282610eb6565b5050565b81516107ac906003906020850190610f95565b5080516107c0906004906020840190610f95565b505050565b6001600160a01b0381166000908152602081905260409020545b919050565b6060600480546102dc9061142d565b6006546001600160a01b0316331461081d5760405162461bcd60e51b81526004016103eb9061135c565b6107958282610a7b565b3360009081526001602090815260408083206001600160a01b0386168452909152812054828110156108a95760405162461bcd60e51b815260206004820152602560248201527f45524332303a2064656372656173656420616c6c6f77616e63652062656c6f77604482015264207a65726f60d81b60648201526084016103eb565b6108b8338561068d86856113ea565b5060019392505050565b600061036c338484610cde565b6001600160a01b0383166109315760405162461bcd60e51b8152602060048201526024808201527f45524332303a20617070726f76652066726f6d20746865207a65726f206164646044820152637265737360e01b60648201526084016103eb565b6001600160a01b0382166109925760405162461bcd60e51b815260206004820152602260248201527f45524332303a20617070726f766520746f20746865207a65726f206164647265604482015261737360f01b60648201526084016103eb565b6001600160a01b0383811660008181526001602090815260408083209487168084529482529182902085905590518481527f8c5be1e5ebec7d5bd14f71427d1e84f3dd0314c0f7b2291e5b200ac8c7c3b92591015b60405180910390a3505050565b600554600090610100900460ff1615610a3d578160ff166001148015610a195750303b155b610a355760405162461bcd60e51b81526004016103eb9061130e565b5060006107df565b60055460ff808416911610610a645760405162461bcd60e51b81526004016103eb9061130e565b506005805460ff191660ff831617905560016107df565b6001600160a01b038216610adb5760405162461bcd60e51b815260206004820152602160248201527f45524332303a206275726e2066726f6d20746865207a65726f206164647265736044820152607360f81b60648201526084016103eb565b6001600160a01b03821660009081526020819052604090205481811015610b4f5760405162461bcd60e51b815260206004820152602260248201527f45524332303a206275726e20616d6f756e7420657863656564732062616c616e604482015261636560f01b60648201526084016103eb565b610b5982826113ea565b6001600160a01b03841660009081526020819052604081209190915560028054849290610b879084906113ea565b90915550506040518281526000906001600160a01b038516907fddf252ad1be2c89b69c2b068fc378daa952ba7f163c4a11628f55a4df523b3ef906020016109e7565b604080516001600160a01b038481166024830152604480830185905283518084039091018152606490920183526020820180516001600160e01b031663a9059cbb60e01b1790529151600092839290871691610c2691906112bf565b6000604051808303816000865af19150503d8060008114610c63576040519150601f19603f3d011682016040523d82523d6000602084013e610c68565b606091505b5091509150818015610c92575080511580610c92575080806020019051810190610c929190611183565b6104ec5760405162461bcd60e51b815260206004820152601f60248201527f5472616e7366657248656c7065723a205452414e534645525f4641494c45440060448201526064016103eb565b6001600160a01b038316610d425760405162461bcd60e51b815260206004820152602560248201527f45524332303a207472616e736665722066726f6d20746865207a65726f206164604482015264647265737360d81b60648201526084016103eb565b6001600160a01b038216610da45760405162461bcd60e51b815260206004820152602360248201527f45524332303a207472616e7366657220746f20746865207a65726f206164647260448201526265737360e81b60648201526084016103eb565b6001600160a01b03831660009081526020819052604090205481811015610e1c5760405162461bcd60e51b815260206004820152602660248201527f45524332303a207472616e7366657220616d6f756e7420657863656564732062604482015265616c616e636560d01b60648201526084016103eb565b610e2682826113ea565b6001600160a01b038086166000908152602081905260408082209390935590851681529081208054849290610e5c908490611393565b92505081905550826001600160a01b0316846001600160a01b03167fddf252ad1be2c89b69c2b068fc378daa952ba7f163c4a11628f55a4df523b3ef84604051610ea891815260200190565b60405180910390a350505050565b6001600160a01b038216610f0c5760405162461bcd60e51b815260206004820152601f60248201527f45524332303a206d696e7420746f20746865207a65726f20616464726573730060448201526064016103eb565b8060026000828254610f1e9190611393565b90915550506001600160a01b03821660009081526020819052604081208054839290610f4b908490611393565b90915550506040518181526001600160a01b038316906000907fddf252ad1be2c89b69c2b068fc378daa952ba7f163c4a11628f55a4df523b3ef9060200160405180910390a35050565b828054610fa19061142d565b90600052602060002090601f016020900481019282610fc35760008555611009565b82601f10610fdc57805160ff1916838001178555611009565b82800160010185558215611009579182015b82811115611009578251825591602001919060010190610fee565b50611015929150611019565b5090565b5b80821115611015576000815560010161101a565b80356001600160a01b03811681146107df57600080fd5b600082601f830112611055578081fd5b813567ffffffffffffffff808211156110705761107061147e565b604051601f8301601f19908116603f011681019082821181831017156110985761109861147e565b816040528381528660208588010111156110b0578485fd5b8360208701602083013792830160200193909352509392505050565b6000602082840312156110dd578081fd5b6110e68261102e565b9392505050565b600080604083850312156110ff578081fd5b6111088361102e565b91506111166020840161102e565b90509250929050565b600080600060608486031215611133578081fd5b61113c8461102e565b925061114a6020850161102e565b9150604084013590509250925092565b6000806040838503121561116c578182fd5b6111758361102e565b946020939093013593505050565b600060208284031215611194578081fd5b815180151581146110e6578182fd5b600080604083850312156111b5578182fd5b823567ffffffffffffffff808211156111cc578384fd5b6111d886838701611045565b935060208501359150808211156111ed578283fd5b506111fa85828601611045565b9150509250929050565b60008060008060808587031215611219578081fd5b843567ffffffffffffffff80821115611230578283fd5b61123c88838901611045565b95506020870135915080821115611251578283fd5b5061125e87828801611045565b93505061126d6040860161102e565b915061127b6060860161102e565b905092959194509250565b600060208284031215611297578081fd5b5051919050565b6000602082840312156112af578081fd5b815160ff811681146110e6578182fd5b600082516112d1818460208701611401565b9190910192915050565b60006020825282518060208401526112fa816040850160208701611401565b601f01601f19169190910160400192915050565b6020808252602e908201527f496e697469616c697a61626c653a20636f6e747261637420697320616c72656160408201526d191e481a5b9a5d1a585b1a5e995960921b606082015260800190565b6020808252601f908201527f4f776e61626c653a2063616c6c6572206973206e6f742074686520626f6e6400604082015260600190565b600082198211156113a6576113a6611468565b500190565b6000826113c657634e487b7160e01b81526012600452602481fd5b500490565b60008160001904831182151516156113e5576113e5611468565b500290565b6000828210156113fc576113fc611468565b500390565b60005b8381101561141c578181015183820152602001611404565b838111156105e65750506000910152565b600181811c9082168061144157607f821691505b6020821081141561146257634e487b7160e01b600052602260045260246000fd5b50919050565b634e487b7160e01b600052601160045260246000fd5b634e487b7160e01b600052604160045260246000fdfea264697066735822122080e3da5f5a89567452ad634366be486ebd9a12ba2f739743e3b9e5455f7710f664736f6c63430008030033",
  "linkReferences": {},
  "deployedLinkReferences": {}
}