{
  "_format": "hh-sol-artifact-1",
  "contractName": "TrancheFactory",
  "sourceName": "contracts/TrancheFactory.sol",
  "abi": [
    {
      "inputs": [
        {
          "internalType": "address",
          "name": "_target",
          "type": "address"
        }
      ],
      "stateMutability": "nonpayable",
      "type": "constructor"
    },
    {
      "anonymous": false,
      "inputs": [
        {
          "indexed": false,
          "internalType": "address",
          "name": "newTrancheAddress",
          "type": "address"
        }
      ],
      "name": "TrancheCreated",
      "type": "event"
    },
    {
      "inputs": [],
      "name": "DEFAULT_ADMIN_ROLE",
      "outputs": [
        {
          "internalType": "bytes32",
          "name": "",
          "type": "bytes32"
        }
      ],
      "stateMutability": "view",
      "type": "function"
    },
    {
      "inputs": [
        {
          "internalType": "string",
          "name": "name",
          "type": "string"
        },
        {
          "internalType": "string",
          "name": "symbol",
          "type": "string"
        },
        {
          "internalType": "address",
          "name": "_collateralToken",
          "type": "address"
        }
      ],
      "name": "createTranche",
      "outputs": [
        {
          "internalType": "address",
          "name": "",
          "type": "address"
        }
      ],
      "stateMutability": "nonpayable",
      "type": "function"
    },
    {
      "inputs": [],
      "name": "target",
      "outputs": [
        {
          "internalType": "address",
          "name": "",
          "type": "address"
        }
      ],
      "stateMutability": "view",
      "type": "function"
    }
  ],
  "bytecode": "0x60a060405234801561001057600080fd5b5060405161055538038061055583398101604081905261002f91610044565b60601b6001600160601b031916608052610072565b600060208284031215610055578081fd5b81516001600160a01b038116811461006b578182fd5b9392505050565b60805160601c6104c0610095600039600081816066015260c301526104c06000f3fe608060405234801561001057600080fd5b50600436106100415760003560e01c8063a217fddf14610046578063d4b8399214610061578063ef55207c146100ad575b600080fd5b61004e600081565b6040519081526020015b60405180910390f35b6100887f000000000000000000000000000000000000000000000000000000000000000081565b60405173ffffffffffffffffffffffffffffffffffffffff9091168152602001610058565b6100886100bb366004610337565b6000806100e77f00000000000000000000000000000000000000000000000000000000000000006101c6565b6040517f0e07f85400000000000000000000000000000000000000000000000000000000815290915073ffffffffffffffffffffffffffffffffffffffff821690630e07f8549061014290889088903390899060040161042d565b600060405180830381600087803b15801561015c57600080fd5b505af1158015610170573d6000803e3d6000fd5b505060405173ffffffffffffffffffffffffffffffffffffffff841681527f23d8a4099ea84abba379e80f33847b6cb249ea6667db65318e181147178621fe9250602001905060405180910390a1949350505050565b6000763d602d80600a3d3981f3363d3d373d3d3d363d730000008260601b60e81c176000526e5af43d82803e903d91602b57fd5bf38260781b17602052603760096000f0905073ffffffffffffffffffffffffffffffffffffffff811661028d576040517f08c379a000000000000000000000000000000000000000000000000000000000815260206004820152601660248201527f455243313136373a20637265617465206661696c656400000000000000000000604482015260640160405180910390fd5b919050565b600082601f8301126102a2578081fd5b813567ffffffffffffffff808211156102bd576102bd610484565b604051601f83017fffffffffffffffffffffffffffffffffffffffffffffffffffffffffffffffe0908116603f0116810190828211818310171561030357610303610484565b8160405283815286602085880101111561031b578485fd5b8360208701602083013792830160200193909352509392505050565b60008060006060848603121561034b578283fd5b833567ffffffffffffffff80821115610362578485fd5b61036e87838801610292565b94506020860135915080821115610383578384fd5b5061039086828701610292565b925050604084013573ffffffffffffffffffffffffffffffffffffffff811681146103b9578182fd5b809150509250925092565b60008151808452815b818110156103e9576020818501810151868301820152016103cd565b818111156103fa5782602083870101525b50601f017fffffffffffffffffffffffffffffffffffffffffffffffffffffffffffffffe0169290920160200192915050565b60006080825261044060808301876103c4565b828103602084015261045281876103c4565b91505073ffffffffffffffffffffffffffffffffffffffff808516604084015280841660608401525095945050505050565b7f4e487b7100000000000000000000000000000000000000000000000000000000600052604160045260246000fdfea164736f6c6343000803000a",
  "linkReferences": {},
  "deployedLinkReferences": {}
}