{
  "_format": "hh-sol-artifact-1",
  "contractName": "Tranche",
  "sourceName": "contracts/Tranche.sol",
  "abi": [
    {
      "inputs": [],
      "stateMutability": "nonpayable",
      "type": "constructor"
    },
    {
      "anonymous": false,
      "inputs": [
        {
          "indexed": true,
          "internalType": "address",
          "name": "owner",
          "type": "address"
        },
        {
          "indexed": true,
          "internalType": "address",
          "name": "spender",
          "type": "address"
        },
        {
          "indexed": false,
          "internalType": "uint256",
          "name": "value",
          "type": "uint256"
        }
      ],
      "name": "Approval",
      "type": "event"
    },
    {
      "anonymous": false,
      "inputs": [
        {
          "indexed": false,
          "internalType": "uint8",
          "name": "version",
          "type": "uint8"
        }
      ],
      "name": "Initialized",
      "type": "event"
    },
    {
      "anonymous": false,
      "inputs": [
        {
          "indexed": true,
          "internalType": "address",
          "name": "from",
          "type": "address"
        },
        {
          "indexed": true,
          "internalType": "address",
          "name": "to",
          "type": "address"
        },
        {
          "indexed": false,
          "internalType": "uint256",
          "name": "value",
          "type": "uint256"
        }
      ],
      "name": "Transfer",
      "type": "event"
    },
    {
      "inputs": [
        {
          "internalType": "address",
          "name": "owner",
          "type": "address"
        },
        {
          "internalType": "address",
          "name": "spender",
          "type": "address"
        }
      ],
      "name": "allowance",
      "outputs": [
        {
          "internalType": "uint256",
          "name": "",
          "type": "uint256"
        }
      ],
      "stateMutability": "view",
      "type": "function"
    },
    {
      "inputs": [
        {
          "internalType": "address",
          "name": "spender",
          "type": "address"
        },
        {
          "internalType": "uint256",
          "name": "amount",
          "type": "uint256"
        }
      ],
      "name": "approve",
      "outputs": [
        {
          "internalType": "bool",
          "name": "",
          "type": "bool"
        }
      ],
      "stateMutability": "nonpayable",
      "type": "function"
    },
    {
      "inputs": [
        {
          "internalType": "address",
          "name": "account",
          "type": "address"
        }
      ],
      "name": "balanceOf",
      "outputs": [
        {
          "internalType": "uint256",
          "name": "",
          "type": "uint256"
        }
      ],
      "stateMutability": "view",
      "type": "function"
    },
    {
      "inputs": [],
      "name": "bond",
      "outputs": [
        {
          "internalType": "address",
          "name": "",
          "type": "address"
        }
      ],
      "stateMutability": "view",
      "type": "function"
    },
    {
      "inputs": [
        {
          "internalType": "address",
          "name": "from",
          "type": "address"
        },
        {
          "internalType": "uint256",
          "name": "amount",
          "type": "uint256"
        }
      ],
      "name": "burn",
      "outputs": [],
      "stateMutability": "nonpayable",
      "type": "function"
    },
    {
      "inputs": [],
      "name": "collateralToken",
      "outputs": [
        {
          "internalType": "address",
          "name": "",
          "type": "address"
        }
      ],
      "stateMutability": "view",
      "type": "function"
    },
    {
      "inputs": [],
      "name": "decimals",
      "outputs": [
        {
          "internalType": "uint8",
          "name": "",
          "type": "uint8"
        }
      ],
      "stateMutability": "view",
      "type": "function"
    },
    {
      "inputs": [
        {
          "internalType": "address",
          "name": "spender",
          "type": "address"
        },
        {
          "internalType": "uint256",
          "name": "subtractedValue",
          "type": "uint256"
        }
      ],
      "name": "decreaseAllowance",
      "outputs": [
        {
          "internalType": "bool",
          "name": "",
          "type": "bool"
        }
      ],
      "stateMutability": "nonpayable",
      "type": "function"
    },
    {
      "inputs": [
        {
          "internalType": "address",
          "name": "spender",
          "type": "address"
        },
        {
          "internalType": "uint256",
          "name": "addedValue",
          "type": "uint256"
        }
      ],
      "name": "increaseAllowance",
      "outputs": [
        {
          "internalType": "bool",
          "name": "",
          "type": "bool"
        }
      ],
      "stateMutability": "nonpayable",
      "type": "function"
    },
    {
      "inputs": [
        {
          "internalType": "string",
          "name": "name",
          "type": "string"
        },
        {
          "internalType": "string",
          "name": "symbol",
          "type": "string"
        },
        {
          "internalType": "address",
          "name": "_bond",
          "type": "address"
        },
        {
          "internalType": "address",
          "name": "_collateralToken",
          "type": "address"
        }
      ],
      "name": "init",
      "outputs": [],
      "stateMutability": "nonpayable",
      "type": "function"
    },
    {
      "inputs": [
        {
          "internalType": "string",
          "name": "name_",
          "type": "string"
        },
        {
          "internalType": "string",
          "name": "symbol_",
          "type": "string"
        }
      ],
      "name": "init",
      "outputs": [],
      "stateMutability": "nonpayable",
      "type": "function"
    },
    {
      "inputs": [
        {
          "internalType": "address",
          "name": "to",
          "type": "address"
        },
        {
          "internalType": "uint256",
          "name": "amount",
          "type": "uint256"
        }
      ],
      "name": "mint",
      "outputs": [],
      "stateMutability": "nonpayable",
      "type": "function"
    },
    {
      "inputs": [],
      "name": "name",
      "outputs": [
        {
          "internalType": "string",
          "name": "",
          "type": "string"
        }
      ],
      "stateMutability": "view",
      "type": "function"
    },
    {
      "inputs": [
        {
          "internalType": "address",
          "name": "from",
          "type": "address"
        },
        {
          "internalType": "address",
          "name": "to",
          "type": "address"
        },
        {
          "internalType": "uint256",
          "name": "amount",
          "type": "uint256"
        }
      ],
      "name": "redeem",
      "outputs": [],
      "stateMutability": "nonpayable",
      "type": "function"
    },
    {
      "inputs": [],
      "name": "symbol",
      "outputs": [
        {
          "internalType": "string",
          "name": "",
          "type": "string"
        }
      ],
      "stateMutability": "view",
      "type": "function"
    },
    {
      "inputs": [],
      "name": "totalSupply",
      "outputs": [
        {
          "internalType": "uint256",
          "name": "",
          "type": "uint256"
        }
      ],
      "stateMutability": "view",
      "type": "function"
    },
    {
      "inputs": [
        {
          "internalType": "address",
          "name": "recipient",
          "type": "address"
        },
        {
          "internalType": "uint256",
          "name": "amount",
          "type": "uint256"
        }
      ],
      "name": "transfer",
      "outputs": [
        {
          "internalType": "bool",
          "name": "",
          "type": "bool"
        }
      ],
      "stateMutability": "nonpayable",
      "type": "function"
    },
    {
      "inputs": [
        {
          "internalType": "address",
          "name": "sender",
          "type": "address"
        },
        {
          "internalType": "address",
          "name": "recipient",
          "type": "address"
        },
        {
          "internalType": "uint256",
          "name": "amount",
          "type": "uint256"
        }
      ],
      "name": "transferFrom",
      "outputs": [
        {
          "internalType": "bool",
          "name": "",
          "type": "bool"
        }
      ],
      "stateMutability": "nonpayable",
      "type": "function"
    }
  ],
  "bytecode": "0x60806040523480156200001157600080fd5b50604080518082018252600e81526d24a6a82622a6a2a72a20aa24a7a760911b6020808301918252835180850190945260048452631253541360e21b908401528151919291620000649160039162000095565b5080516200007a90600490602084019062000095565b50506005805462010000600160b01b03191690555062000178565b828054620000a3906200013b565b90600052602060002090601f016020900481019282620000c7576000855562000112565b82601f10620000e257805160ff191683800117855562000112565b8280016001018555821562000112579182015b8281111562000112578251825591602001919060010190620000f5565b506200012092915062000124565b5090565b5b8082111562000120576000815560010162000125565b600181811c908216806200015057607f821691505b602082108114156200017257634e487b7160e01b600052602260045260246000fd5b50919050565b611b2580620001886000396000f3fe608060405234801561001057600080fd5b50600436106101365760003560e01c806364c9ec6f116100b25780639dc29fac11610081578063a9059cbb11610066578063a9059cbb146102a2578063b2016bd4146102b5578063dd62ed3e146102db57610136565b80639dc29fac1461027c578063a457c2d71461028f57610136565b806364c9ec6f146102095780637029144c1461024e57806370a082311461026157806395d89b411461027457610136565b806318160ddd11610109578063313ce567116100ee578063313ce567146101c957806339509351146101e357806340c10f19146101f657610136565b806318160ddd146101a457806323b872dd146101b657610136565b806306fdde031461013b578063095ea7b3146101595780630e07f8541461017c5780630e6dfcd514610191575b600080fd5b610143610321565b6040516101509190611944565b60405180910390f35b61016c6101673660046117c3565b6103b3565b6040519015158152602001610150565b61018f61018a36600461186d565b6103c9565b005b61018f61019f366004611788565b610702565b6002545b604051908152602001610150565b61016c6101c4366004611788565b610885565b6101d1610972565b60405160ff9091168152602001610150565b61016c6101f13660046117c3565b610a19565b61018f6102043660046117c3565b610a5d565b6006546102299073ffffffffffffffffffffffffffffffffffffffff1681565b60405173ffffffffffffffffffffffffffffffffffffffff9091168152602001610150565b61018f61025c36600461180c565b610aec565b6101a861026f366004611735565b610b18565b610143610b44565b61018f61028a3660046117c3565b610b53565b61016c61029d3660046117c3565b610bde565b61016c6102b03660046117c3565b610cb8565b6005546102299062010000900473ffffffffffffffffffffffffffffffffffffffff1681565b6101a86102e9366004611756565b73ffffffffffffffffffffffffffffffffffffffff918216600090815260016020908152604080832093909416825291909152205490565b60606003805461033090611a66565b80601f016020809104026020016040519081016040528092919081815260200182805461035c90611a66565b80156103a95780601f1061037e576101008083540402835291602001916103a9565b820191906000526020600020905b81548152906001019060200180831161038c57829003601f168201915b5050505050905090565b60006103c0338484610cc5565b50600192915050565b600554610100900460ff16158080156103e95750600554600160ff909116105b806104035750303b158015610403575060055460ff166001145b610494576040517f08c379a000000000000000000000000000000000000000000000000000000000815260206004820152602e60248201527f496e697469616c697a61626c653a20636f6e747261637420697320616c72656160448201527f647920696e697469616c697a656400000000000000000000000000000000000060648201526084015b60405180910390fd5b600580547fffffffffffffffffffffffffffffffffffffffffffffffffffffffffffffff0016600117905580156104f257600580547fffffffffffffffffffffffffffffffffffffffffffffffffffffffffffff00ff166101001790555b73ffffffffffffffffffffffffffffffffffffffff831661056f576040517f08c379a000000000000000000000000000000000000000000000000000000000815260206004820152601d60248201527f5472616e6368653a20696e76616c696420626f6e642061646472657373000000604482015260640161048b565b73ffffffffffffffffffffffffffffffffffffffff8216610612576040517f08c379a000000000000000000000000000000000000000000000000000000000815260206004820152602860248201527f5472616e6368653a20696e76616c696420636f6c6c61746572616c546f6b656e60448201527f2061646472657373000000000000000000000000000000000000000000000000606482015260840161048b565b600680547fffffffffffffffffffffffff00000000000000000000000000000000000000001673ffffffffffffffffffffffffffffffffffffffff85811691909117909155600580547fffffffffffffffffffff0000000000000000000000000000000000000000ffff1662010000928516929092029190911790556106988585610aec565b80156106fb57600580547fffffffffffffffffffffffffffffffffffffffffffffffffffffffffffff00ff169055604051600181527f7f26b83ff96e1f2b6a682f133852f6798a09c465da95921460cefb38474024989060200160405180910390a15b5050505050565b60065473ffffffffffffffffffffffffffffffffffffffff163314610783576040517f08c379a000000000000000000000000000000000000000000000000000000000815260206004820152601f60248201527f4f776e61626c653a2063616c6c6572206973206e6f742074686520626f6e6400604482015260640161048b565b600061078e60025490565b6005546040517f70a08231000000000000000000000000000000000000000000000000000000008152306004820152849162010000900473ffffffffffffffffffffffffffffffffffffffff16906370a082319060240160206040518083038186803b1580156107fd57600080fd5b505afa158015610811573d6000803e3d6000fd5b505050506040513d601f19601f8201168201806040525081019061083591906118ef565b61083f91906119e6565b61084991906119ad565b90506108558483610e79565b60055461087f9062010000900473ffffffffffffffffffffffffffffffffffffffff168483611067565b50505050565b60006108928484846111f6565b73ffffffffffffffffffffffffffffffffffffffff8416600090815260016020908152604080832033845290915290205482811015610953576040517f08c379a000000000000000000000000000000000000000000000000000000000815260206004820152602860248201527f45524332303a207472616e7366657220616d6f756e742065786365656473206160448201527f6c6c6f77616e6365000000000000000000000000000000000000000000000000606482015260840161048b565b61096785336109628685611a23565b610cc5565b506001949350505050565b6000600560029054906101000a900473ffffffffffffffffffffffffffffffffffffffff1673ffffffffffffffffffffffffffffffffffffffff1663313ce5676040518163ffffffff1660e01b815260040160206040518083038186803b1580156109dc57600080fd5b505afa1580156109f0573d6000803e3d6000fd5b505050506040513d601f19601f82011682018060405250810190610a149190611907565b905090565b33600081815260016020908152604080832073ffffffffffffffffffffffffffffffffffffffff8716845290915281205490916103c0918590610962908690611995565b60065473ffffffffffffffffffffffffffffffffffffffff163314610ade576040517f08c379a000000000000000000000000000000000000000000000000000000000815260206004820152601f60248201527f4f776e61626c653a2063616c6c6572206973206e6f742074686520626f6e6400604482015260640161048b565b610ae882826114b3565b5050565b8151610aff9060039060208501906115d3565b508051610b139060049060208401906115d3565b505050565b73ffffffffffffffffffffffffffffffffffffffff81166000908152602081905260409020545b919050565b60606004805461033090611a66565b60065473ffffffffffffffffffffffffffffffffffffffff163314610bd4576040517f08c379a000000000000000000000000000000000000000000000000000000000815260206004820152601f60248201527f4f776e61626c653a2063616c6c6572206973206e6f742074686520626f6e6400604482015260640161048b565b610ae88282610e79565b33600090815260016020908152604080832073ffffffffffffffffffffffffffffffffffffffff8616845290915281205482811015610c9f576040517f08c379a000000000000000000000000000000000000000000000000000000000815260206004820152602560248201527f45524332303a2064656372656173656420616c6c6f77616e63652062656c6f7760448201527f207a65726f000000000000000000000000000000000000000000000000000000606482015260840161048b565b610cae33856109628685611a23565b5060019392505050565b60006103c03384846111f6565b73ffffffffffffffffffffffffffffffffffffffff8316610d67576040517f08c379a0000000000000000000000000000000000000000000000000000000008152602060048201526024808201527f45524332303a20617070726f76652066726f6d20746865207a65726f2061646460448201527f7265737300000000000000000000000000000000000000000000000000000000606482015260840161048b565b73ffffffffffffffffffffffffffffffffffffffff8216610e0a576040517f08c379a000000000000000000000000000000000000000000000000000000000815260206004820152602260248201527f45524332303a20617070726f766520746f20746865207a65726f20616464726560448201527f7373000000000000000000000000000000000000000000000000000000000000606482015260840161048b565b73ffffffffffffffffffffffffffffffffffffffff83811660008181526001602090815260408083209487168084529482529182902085905590518481527f8c5be1e5ebec7d5bd14f71427d1e84f3dd0314c0f7b2291e5b200ac8c7c3b92591015b60405180910390a3505050565b73ffffffffffffffffffffffffffffffffffffffff8216610f1c576040517f08c379a000000000000000000000000000000000000000000000000000000000815260206004820152602160248201527f45524332303a206275726e2066726f6d20746865207a65726f2061646472657360448201527f7300000000000000000000000000000000000000000000000000000000000000606482015260840161048b565b73ffffffffffffffffffffffffffffffffffffffff821660009081526020819052604090205481811015610fd2576040517f08c379a000000000000000000000000000000000000000000000000000000000815260206004820152602260248201527f45524332303a206275726e20616d6f756e7420657863656564732062616c616e60448201527f6365000000000000000000000000000000000000000000000000000000000000606482015260840161048b565b610fdc8282611a23565b73ffffffffffffffffffffffffffffffffffffffff841660009081526020819052604081209190915560028054849290611017908490611a23565b909155505060405182815260009073ffffffffffffffffffffffffffffffffffffffff8516907fddf252ad1be2c89b69c2b068fc378daa952ba7f163c4a11628f55a4df523b3ef90602001610e6c565b6040805173ffffffffffffffffffffffffffffffffffffffff8481166024830152604480830185905283518084039091018152606490920183526020820180517bffffffffffffffffffffffffffffffffffffffffffffffffffffffff167fa9059cbb0000000000000000000000000000000000000000000000000000000017905291516000928392908716916110fe9190611928565b6000604051808303816000865af19150503d806000811461113b576040519150601f19603f3d011682016040523d82523d6000602084013e611140565b606091505b509150915081801561116a57508051158061116a57508080602001905181019061116a91906117ec565b6106fb576040517f08c379a000000000000000000000000000000000000000000000000000000000815260206004820152602d60248201527f5472616e7366657248656c7065723a3a736166655472616e736665723a20747260448201527f616e73666572206661696c656400000000000000000000000000000000000000606482015260840161048b565b73ffffffffffffffffffffffffffffffffffffffff8316611299576040517f08c379a000000000000000000000000000000000000000000000000000000000815260206004820152602560248201527f45524332303a207472616e736665722066726f6d20746865207a65726f20616460448201527f6472657373000000000000000000000000000000000000000000000000000000606482015260840161048b565b73ffffffffffffffffffffffffffffffffffffffff821661133c576040517f08c379a000000000000000000000000000000000000000000000000000000000815260206004820152602360248201527f45524332303a207472616e7366657220746f20746865207a65726f206164647260448201527f6573730000000000000000000000000000000000000000000000000000000000606482015260840161048b565b73ffffffffffffffffffffffffffffffffffffffff8316600090815260208190526040902054818110156113f2576040517f08c379a000000000000000000000000000000000000000000000000000000000815260206004820152602660248201527f45524332303a207472616e7366657220616d6f756e742065786365656473206260448201527f616c616e63650000000000000000000000000000000000000000000000000000606482015260840161048b565b6113fc8282611a23565b73ffffffffffffffffffffffffffffffffffffffff808616600090815260208190526040808220939093559085168152908120805484929061143f908490611995565b925050819055508273ffffffffffffffffffffffffffffffffffffffff168473ffffffffffffffffffffffffffffffffffffffff167fddf252ad1be2c89b69c2b068fc378daa952ba7f163c4a11628f55a4df523b3ef846040516114a591815260200190565b60405180910390a350505050565b73ffffffffffffffffffffffffffffffffffffffff8216611530576040517f08c379a000000000000000000000000000000000000000000000000000000000815260206004820152601f60248201527f45524332303a206d696e7420746f20746865207a65726f206164647265737300604482015260640161048b565b80600260008282546115429190611995565b909155505073ffffffffffffffffffffffffffffffffffffffff82166000908152602081905260408120805483929061157c908490611995565b909155505060405181815273ffffffffffffffffffffffffffffffffffffffff8316906000907fddf252ad1be2c89b69c2b068fc378daa952ba7f163c4a11628f55a4df523b3ef9060200160405180910390a35050565b8280546115df90611a66565b90600052602060002090601f0160209004810192826116015760008555611647565b82601f1061161a57805160ff1916838001178555611647565b82800160010185558215611647579182015b8281111561164757825182559160200191906001019061162c565b50611653929150611657565b5090565b5b808211156116535760008155600101611658565b803573ffffffffffffffffffffffffffffffffffffffff81168114610b3f57600080fd5b600082601f8301126116a0578081fd5b813567ffffffffffffffff808211156116bb576116bb611ae9565b604051601f83017fffffffffffffffffffffffffffffffffffffffffffffffffffffffffffffffe0908116603f0116810190828211818310171561170157611701611ae9565b81604052838152866020858801011115611719578485fd5b8360208701602083013792830160200193909352509392505050565b600060208284031215611746578081fd5b61174f8261166c565b9392505050565b60008060408385031215611768578081fd5b6117718361166c565b915061177f6020840161166c565b90509250929050565b60008060006060848603121561179c578081fd5b6117a58461166c565b92506117b36020850161166c565b9150604084013590509250925092565b600080604083850312156117d5578182fd5b6117de8361166c565b946020939093013593505050565b6000602082840312156117fd578081fd5b8151801515811461174f578182fd5b6000806040838503121561181e578182fd5b823567ffffffffffffffff80821115611835578384fd5b61184186838701611690565b93506020850135915080821115611856578283fd5b5061186385828601611690565b9150509250929050565b60008060008060808587031215611882578081fd5b843567ffffffffffffffff80821115611899578283fd5b6118a588838901611690565b955060208701359150808211156118ba578283fd5b506118c787828801611690565b9350506118d66040860161166c565b91506118e46060860161166c565b905092959194509250565b600060208284031215611900578081fd5b5051919050565b600060208284031215611918578081fd5b815160ff8116811461174f578182fd5b6000825161193a818460208701611a3a565b9190910192915050565b6000602082528251806020840152611963816040850160208701611a3a565b601f017fffffffffffffffffffffffffffffffffffffffffffffffffffffffffffffffe0169190910160400192915050565b600082198211156119a8576119a8611aba565b500190565b6000826119e1577f4e487b710000000000000000000000000000000000000000000000000000000081526012600452602481fd5b500490565b6000817fffffffffffffffffffffffffffffffffffffffffffffffffffffffffffffffff0483118215151615611a1e57611a1e611aba565b500290565b600082821015611a3557611a35611aba565b500390565b60005b83811015611a55578181015183820152602001611a3d565b8381111561087f5750506000910152565b600181811c90821680611a7a57607f821691505b60208210811415611ab4577f4e487b7100000000000000000000000000000000000000000000000000000000600052602260045260246000fd5b50919050565b7f4e487b7100000000000000000000000000000000000000000000000000000000600052601160045260246000fd5b7f4e487b7100000000000000000000000000000000000000000000000000000000600052604160045260246000fdfea164736f6c6343000803000a",
  "linkReferences": {},
  "deployedLinkReferences": {}
}