{
  "_format": "hh-sol-artifact-1",
  "contractName": "PerpetualTranche",
  "sourceName": "contracts/PerpetualTranche.sol",
  "abi": [
    {
      "inputs": [],
      "stateMutability": "nonpayable",
      "type": "constructor"
    },
    {
      "inputs": [],
      "name": "ExceededMaxMintPerTranche",
      "type": "error"
    },
    {
      "inputs": [],
      "name": "ExceededMaxSupply",
      "type": "error"
    },
    {
      "inputs": [],
      "name": "ReserveCountOverLimit",
      "type": "error"
    },
    {
      "inputs": [],
      "name": "UnacceptableParams",
      "type": "error"
    },
    {
      "inputs": [],
      "name": "UnacceptableRollover",
      "type": "error"
    },
    {
      "inputs": [],
      "name": "UnauthorizedCall",
      "type": "error"
    },
    {
      "inputs": [],
      "name": "UnauthorizedTransferOut",
      "type": "error"
    },
    {
      "inputs": [],
      "name": "UnexpectedAsset",
      "type": "error"
    },
    {
      "inputs": [],
      "name": "UnexpectedDecimals",
      "type": "error"
    },
    {
      "anonymous": false,
      "inputs": [
        {
          "indexed": true,
          "internalType": "address",
          "name": "owner",
          "type": "address"
        },
        {
          "indexed": true,
          "internalType": "address",
          "name": "spender",
          "type": "address"
        },
        {
          "indexed": false,
          "internalType": "uint256",
          "name": "value",
          "type": "uint256"
        }
      ],
      "name": "Approval",
      "type": "event"
    },
    {
      "anonymous": false,
      "inputs": [
        {
          "indexed": false,
          "internalType": "uint8",
          "name": "version",
          "type": "uint8"
        }
      ],
      "name": "Initialized",
      "type": "event"
    },
    {
      "anonymous": false,
      "inputs": [
        {
          "indexed": true,
          "internalType": "address",
          "name": "previousOwner",
          "type": "address"
        },
        {
          "indexed": true,
          "internalType": "address",
          "name": "newOwner",
          "type": "address"
        }
      ],
      "name": "OwnershipTransferred",
      "type": "event"
    },
    {
      "anonymous": false,
      "inputs": [
        {
          "indexed": false,
          "internalType": "address",
          "name": "account",
          "type": "address"
        }
      ],
      "name": "Paused",
      "type": "event"
    },
    {
      "anonymous": false,
      "inputs": [
        {
          "indexed": false,
          "internalType": "contract IERC20Upgradeable",
          "name": "token",
          "type": "address"
        },
        {
          "indexed": false,
          "internalType": "uint256",
          "name": "balance",
          "type": "uint256"
        }
      ],
      "name": "ReserveSynced",
      "type": "event"
    },
    {
      "anonymous": false,
      "inputs": [
        {
          "indexed": true,
          "internalType": "address",
          "name": "from",
          "type": "address"
        },
        {
          "indexed": true,
          "internalType": "address",
          "name": "to",
          "type": "address"
        },
        {
          "indexed": false,
          "internalType": "uint256",
          "name": "value",
          "type": "uint256"
        }
      ],
      "name": "Transfer",
      "type": "event"
    },
    {
      "anonymous": false,
      "inputs": [
        {
          "indexed": false,
          "internalType": "address",
          "name": "account",
          "type": "address"
        }
      ],
      "name": "Unpaused",
      "type": "event"
    },
    {
      "anonymous": false,
      "inputs": [
        {
          "indexed": false,
          "internalType": "contract IBondController",
          "name": "bond",
          "type": "address"
        }
      ],
      "name": "UpdatedDepositBond",
      "type": "event"
    },
    {
      "inputs": [],
      "name": "FEE_ONE",
      "outputs": [
        {
          "internalType": "uint256",
          "name": "",
          "type": "uint256"
        }
      ],
      "stateMutability": "view",
      "type": "function"
    },
    {
      "inputs": [],
      "name": "FEE_POLICY_DECIMALS",
      "outputs": [
        {
          "internalType": "uint8",
          "name": "",
          "type": "uint8"
        }
      ],
      "stateMutability": "view",
      "type": "function"
    },
    {
      "inputs": [],
      "name": "MAX_RESERVE_COUNT",
      "outputs": [
        {
          "internalType": "uint8",
          "name": "",
          "type": "uint8"
        }
      ],
      "stateMutability": "view",
      "type": "function"
    },
    {
      "inputs": [
        {
          "internalType": "address",
          "name": "owner",
          "type": "address"
        },
        {
          "internalType": "address",
          "name": "spender",
          "type": "address"
        }
      ],
      "name": "allowance",
      "outputs": [
        {
          "internalType": "uint256",
          "name": "",
          "type": "uint256"
        }
      ],
      "stateMutability": "view",
      "type": "function"
    },
    {
      "inputs": [
        {
          "internalType": "address",
          "name": "spender",
          "type": "address"
        },
        {
          "internalType": "uint256",
          "name": "amount",
          "type": "uint256"
        }
      ],
      "name": "approve",
      "outputs": [
        {
          "internalType": "bool",
          "name": "",
          "type": "bool"
        }
      ],
      "stateMutability": "nonpayable",
      "type": "function"
    },
    {
      "inputs": [
        {
          "internalType": "address",
          "name": "account",
          "type": "address"
        }
      ],
      "name": "balanceOf",
      "outputs": [
        {
          "internalType": "uint256",
          "name": "",
          "type": "uint256"
        }
      ],
      "stateMutability": "view",
      "type": "function"
    },
    {
      "inputs": [],
      "name": "bondIssuer",
      "outputs": [
        {
          "internalType": "contract IBondIssuer",
          "name": "",
          "type": "address"
        }
      ],
      "stateMutability": "view",
      "type": "function"
    },
    {
      "inputs": [
        {
          "internalType": "uint256",
          "name": "amount",
          "type": "uint256"
        }
      ],
      "name": "burn",
      "outputs": [],
      "stateMutability": "nonpayable",
      "type": "function"
    },
    {
      "inputs": [
        {
          "internalType": "address",
          "name": "account",
          "type": "address"
        },
        {
          "internalType": "uint256",
          "name": "amount",
          "type": "uint256"
        }
      ],
      "name": "burnFrom",
      "outputs": [],
      "stateMutability": "nonpayable",
      "type": "function"
    },
    {
      "inputs": [
        {
          "internalType": "contract ITranche",
          "name": "trancheIn",
          "type": "address"
        },
        {
          "internalType": "uint256",
          "name": "trancheInAmt",
          "type": "uint256"
        }
      ],
      "name": "computeMintAmt",
      "outputs": [
        {
          "internalType": "uint256",
          "name": "",
          "type": "uint256"
        }
      ],
      "stateMutability": "nonpayable",
      "type": "function"
    },
    {
      "inputs": [
        {
          "internalType": "uint256",
          "name": "perpAmtBurnt",
          "type": "uint256"
        }
      ],
      "name": "computeRedemptionAmts",
      "outputs": [
        {
          "components": [
            {
              "internalType": "contract IERC20Upgradeable",
              "name": "token",
              "type": "address"
            },
            {
              "internalType": "uint256",
              "name": "amount",
              "type": "uint256"
            }
          ],
          "internalType": "struct TokenAmount[]",
          "name": "",
          "type": "tuple[]"
        }
      ],
      "stateMutability": "nonpayable",
      "type": "function"
    },
    {
      "inputs": [
        {
          "internalType": "contract ITranche",
          "name": "trancheIn",
          "type": "address"
        },
        {
          "internalType": "contract IERC20Upgradeable",
          "name": "tokenOut",
          "type": "address"
        },
        {
          "internalType": "uint256",
          "name": "trancheInAmtAvailable",
          "type": "uint256"
        }
      ],
      "name": "computeRolloverAmt",
      "outputs": [
        {
          "components": [
            {
              "internalType": "uint256",
              "name": "tokenOutAmt",
              "type": "uint256"
            },
            {
              "internalType": "uint256",
              "name": "trancheInAmt",
              "type": "uint256"
            }
          ],
          "internalType": "struct RolloverData",
          "name": "",
          "type": "tuple"
        }
      ],
      "stateMutability": "nonpayable",
      "type": "function"
    },
    {
      "inputs": [],
      "name": "decimals",
      "outputs": [
        {
          "internalType": "uint8",
          "name": "",
          "type": "uint8"
        }
      ],
      "stateMutability": "view",
      "type": "function"
    },
    {
      "inputs": [
        {
          "internalType": "address",
          "name": "spender",
          "type": "address"
        },
        {
          "internalType": "uint256",
          "name": "subtractedValue",
          "type": "uint256"
        }
      ],
      "name": "decreaseAllowance",
      "outputs": [
        {
          "internalType": "bool",
          "name": "",
          "type": "bool"
        }
      ],
      "stateMutability": "nonpayable",
      "type": "function"
    },
    {
      "inputs": [
        {
          "internalType": "contract ITranche",
          "name": "trancheIn",
          "type": "address"
        },
        {
          "internalType": "uint256",
          "name": "trancheInAmt",
          "type": "uint256"
        }
      ],
      "name": "deposit",
      "outputs": [
        {
          "internalType": "uint256",
          "name": "",
          "type": "uint256"
        }
      ],
      "stateMutability": "nonpayable",
      "type": "function"
    },
    {
      "inputs": [],
      "name": "feePolicy",
      "outputs": [
        {
          "internalType": "contract IFeePolicy",
          "name": "",
          "type": "address"
        }
      ],
      "stateMutability": "view",
      "type": "function"
    },
    {
      "inputs": [],
      "name": "getDepositBond",
      "outputs": [
        {
          "internalType": "contract IBondController",
          "name": "",
          "type": "address"
        }
      ],
      "stateMutability": "nonpayable",
      "type": "function"
    },
    {
      "inputs": [],
      "name": "getDepositTranche",
      "outputs": [
        {
          "internalType": "contract ITranche",
          "name": "",
          "type": "address"
        }
      ],
      "stateMutability": "nonpayable",
      "type": "function"
    },
    {
      "inputs": [],
      "name": "getDepositTrancheRatio",
      "outputs": [
        {
          "internalType": "uint256",
          "name": "",
          "type": "uint256"
        }
      ],
      "stateMutability": "nonpayable",
      "type": "function"
    },
    {
      "inputs": [
        {
          "internalType": "uint256",
          "name": "i",
          "type": "uint256"
        }
      ],
      "name": "getReserveAt",
      "outputs": [
        {
          "internalType": "contract IERC20Upgradeable",
          "name": "",
          "type": "address"
        }
      ],
      "stateMutability": "nonpayable",
      "type": "function"
    },
    {
      "inputs": [],
      "name": "getReserveCount",
      "outputs": [
        {
          "internalType": "uint256",
          "name": "",
          "type": "uint256"
        }
      ],
      "stateMutability": "nonpayable",
      "type": "function"
    },
    {
      "inputs": [
        {
          "internalType": "contract IERC20Upgradeable",
          "name": "token",
          "type": "address"
        }
      ],
      "name": "getReserveTokenBalance",
      "outputs": [
        {
          "internalType": "uint256",
          "name": "",
          "type": "uint256"
        }
      ],
      "stateMutability": "nonpayable",
      "type": "function"
    },
    {
      "inputs": [
        {
          "internalType": "contract IERC20Upgradeable",
          "name": "token",
          "type": "address"
        }
      ],
      "name": "getReserveTokenValue",
      "outputs": [
        {
          "internalType": "uint256",
          "name": "",
          "type": "uint256"
        }
      ],
      "stateMutability": "nonpayable",
      "type": "function"
    },
    {
      "inputs": [],
      "name": "getReserveTokensUpForRollover",
      "outputs": [
        {
          "internalType": "contract IERC20Upgradeable[]",
          "name": "",
          "type": "address[]"
        }
      ],
      "stateMutability": "nonpayable",
      "type": "function"
    },
    {
      "inputs": [],
      "name": "getTVL",
      "outputs": [
        {
          "internalType": "uint256",
          "name": "",
          "type": "uint256"
        }
      ],
      "stateMutability": "nonpayable",
      "type": "function"
    },
    {
      "inputs": [
        {
          "internalType": "contract IERC20Upgradeable",
          "name": "token",
          "type": "address"
        }
      ],
      "name": "inReserve",
      "outputs": [
        {
          "internalType": "bool",
          "name": "",
          "type": "bool"
        }
      ],
      "stateMutability": "nonpayable",
      "type": "function"
    },
    {
      "inputs": [
        {
          "internalType": "address",
          "name": "spender",
          "type": "address"
        },
        {
          "internalType": "uint256",
          "name": "addedValue",
          "type": "uint256"
        }
      ],
      "name": "increaseAllowance",
      "outputs": [
        {
          "internalType": "bool",
          "name": "",
          "type": "bool"
        }
      ],
      "stateMutability": "nonpayable",
      "type": "function"
    },
    {
      "inputs": [
        {
          "internalType": "string",
          "name": "name",
          "type": "string"
        },
        {
          "internalType": "string",
          "name": "symbol",
          "type": "string"
        },
        {
          "internalType": "contract IERC20Upgradeable",
          "name": "collateral_",
          "type": "address"
        },
        {
          "internalType": "contract IBondIssuer",
          "name": "bondIssuer_",
          "type": "address"
        },
        {
          "internalType": "contract IFeePolicy",
          "name": "feePolicy_",
          "type": "address"
        }
      ],
      "name": "init",
      "outputs": [],
      "stateMutability": "nonpayable",
      "type": "function"
    },
    {
      "inputs": [],
      "name": "keeper",
      "outputs": [
        {
          "internalType": "address",
          "name": "",
          "type": "address"
        }
      ],
      "stateMutability": "view",
      "type": "function"
    },
    {
      "inputs": [],
      "name": "maxMintAmtPerTranche",
      "outputs": [
        {
          "internalType": "uint256",
          "name": "",
          "type": "uint256"
        }
      ],
      "stateMutability": "view",
      "type": "function"
    },
    {
      "inputs": [],
      "name": "maxSupply",
      "outputs": [
        {
          "internalType": "uint256",
          "name": "",
          "type": "uint256"
        }
      ],
      "stateMutability": "view",
      "type": "function"
    },
    {
      "inputs": [],
      "name": "maxTrancheMaturitySec",
      "outputs": [
        {
          "internalType": "uint256",
          "name": "",
          "type": "uint256"
        }
      ],
      "stateMutability": "view",
      "type": "function"
    },
    {
      "inputs": [],
      "name": "minTrancheMaturitySec",
      "outputs": [
        {
          "internalType": "uint256",
          "name": "",
          "type": "uint256"
        }
      ],
      "stateMutability": "view",
      "type": "function"
    },
    {
      "inputs": [
        {
          "internalType": "contract ITranche",
          "name": "",
          "type": "address"
        }
      ],
      "name": "mintedSupplyPerTranche",
      "outputs": [
        {
          "internalType": "uint256",
          "name": "",
          "type": "uint256"
        }
      ],
      "stateMutability": "view",
      "type": "function"
    },
    {
      "inputs": [],
      "name": "name",
      "outputs": [
        {
          "internalType": "string",
          "name": "",
          "type": "string"
        }
      ],
      "stateMutability": "view",
      "type": "function"
    },
    {
      "inputs": [],
      "name": "owner",
      "outputs": [
        {
          "internalType": "address",
          "name": "",
          "type": "address"
        }
      ],
      "stateMutability": "view",
      "type": "function"
    },
    {
      "inputs": [],
      "name": "pause",
      "outputs": [],
      "stateMutability": "nonpayable",
      "type": "function"
    },
    {
      "inputs": [],
      "name": "paused",
      "outputs": [
        {
          "internalType": "bool",
          "name": "",
          "type": "bool"
        }
      ],
      "stateMutability": "view",
      "type": "function"
    },
    {
      "inputs": [
        {
          "internalType": "uint256",
          "name": "perpAmtBurnt",
          "type": "uint256"
        }
      ],
      "name": "redeem",
      "outputs": [
        {
          "components": [
            {
              "internalType": "contract IERC20Upgradeable",
              "name": "token",
              "type": "address"
            },
            {
              "internalType": "uint256",
              "name": "amount",
              "type": "uint256"
            }
          ],
          "internalType": "struct TokenAmount[]",
          "name": "",
          "type": "tuple[]"
        }
      ],
      "stateMutability": "nonpayable",
      "type": "function"
    },
    {
      "inputs": [],
      "name": "renounceOwnership",
      "outputs": [],
      "stateMutability": "nonpayable",
      "type": "function"
    },
    {
      "inputs": [
        {
          "internalType": "contract ITranche",
          "name": "trancheIn",
          "type": "address"
        },
        {
          "internalType": "contract IERC20Upgradeable",
          "name": "tokenOut",
          "type": "address"
        },
        {
          "internalType": "uint256",
          "name": "trancheInAmtAvailable",
          "type": "uint256"
        }
      ],
      "name": "rollover",
      "outputs": [
        {
          "components": [
            {
              "internalType": "uint256",
              "name": "tokenOutAmt",
              "type": "uint256"
            },
            {
              "internalType": "uint256",
              "name": "trancheInAmt",
              "type": "uint256"
            }
          ],
          "internalType": "struct RolloverData",
          "name": "",
          "type": "tuple"
        }
      ],
      "stateMutability": "nonpayable",
      "type": "function"
    },
    {
      "inputs": [],
      "name": "symbol",
      "outputs": [
        {
          "internalType": "string",
          "name": "",
          "type": "string"
        }
      ],
      "stateMutability": "view",
      "type": "function"
    },
    {
      "inputs": [],
      "name": "totalSupply",
      "outputs": [
        {
          "internalType": "uint256",
          "name": "",
          "type": "uint256"
        }
      ],
      "stateMutability": "view",
      "type": "function"
    },
    {
      "inputs": [
        {
          "internalType": "address",
          "name": "to",
          "type": "address"
        },
        {
          "internalType": "uint256",
          "name": "amount",
          "type": "uint256"
        }
      ],
      "name": "transfer",
      "outputs": [
        {
          "internalType": "bool",
          "name": "",
          "type": "bool"
        }
      ],
      "stateMutability": "nonpayable",
      "type": "function"
    },
    {
      "inputs": [
        {
          "internalType": "contract IERC20Upgradeable",
          "name": "token",
          "type": "address"
        },
        {
          "internalType": "address",
          "name": "to",
          "type": "address"
        },
        {
          "internalType": "uint256",
          "name": "amount",
          "type": "uint256"
        }
      ],
      "name": "transferERC20",
      "outputs": [],
      "stateMutability": "nonpayable",
      "type": "function"
    },
    {
      "inputs": [
        {
          "internalType": "address",
          "name": "from",
          "type": "address"
        },
        {
          "internalType": "address",
          "name": "to",
          "type": "address"
        },
        {
          "internalType": "uint256",
          "name": "amount",
          "type": "uint256"
        }
      ],
      "name": "transferFrom",
      "outputs": [
        {
          "internalType": "bool",
          "name": "",
          "type": "bool"
        }
      ],
      "stateMutability": "nonpayable",
      "type": "function"
    },
    {
      "inputs": [
        {
          "internalType": "address",
          "name": "newOwner",
          "type": "address"
        }
      ],
      "name": "transferOwnership",
      "outputs": [],
      "stateMutability": "nonpayable",
      "type": "function"
    },
    {
      "inputs": [],
      "name": "underlying",
      "outputs": [
        {
          "internalType": "contract IERC20Upgradeable",
          "name": "",
          "type": "address"
        }
      ],
      "stateMutability": "view",
      "type": "function"
    },
    {
      "inputs": [],
      "name": "unpause",
      "outputs": [],
      "stateMutability": "nonpayable",
      "type": "function"
    },
    {
      "inputs": [
        {
          "internalType": "contract IBondIssuer",
          "name": "bondIssuer_",
          "type": "address"
        }
      ],
      "name": "updateBondIssuer",
      "outputs": [],
      "stateMutability": "nonpayable",
      "type": "function"
    },
    {
      "inputs": [
        {
          "internalType": "contract IFeePolicy",
          "name": "feePolicy_",
          "type": "address"
        }
      ],
      "name": "updateFeePolicy",
      "outputs": [],
      "stateMutability": "nonpayable",
      "type": "function"
    },
    {
      "inputs": [
        {
          "internalType": "address",
          "name": "keeper_",
          "type": "address"
        }
      ],
      "name": "updateKeeper",
      "outputs": [],
      "stateMutability": "nonpayable",
      "type": "function"
    },
    {
      "inputs": [
        {
          "internalType": "uint256",
          "name": "maxSupply_",
          "type": "uint256"
        },
        {
          "internalType": "uint256",
          "name": "maxMintAmtPerTranche_",
          "type": "uint256"
        }
      ],
      "name": "updateMintingLimits",
      "outputs": [],
      "stateMutability": "nonpayable",
      "type": "function"
    },
    {
      "inputs": [],
      "name": "updateState",
      "outputs": [],
      "stateMutability": "nonpayable",
      "type": "function"
    },
    {
      "inputs": [
        {
          "internalType": "uint256",
          "name": "minTrancheMaturitySec_",
          "type": "uint256"
        },
        {
          "internalType": "uint256",
          "name": "maxTrancheMaturitySec_",
          "type": "uint256"
        }
      ],
      "name": "updateTolerableTrancheMaturity",
      "outputs": [],
      "stateMutability": "nonpayable",
      "type": "function"
    },
    {
      "inputs": [
        {
          "internalType": "contract IRolloverVault",
          "name": "vault_",
          "type": "address"
        }
      ],
      "name": "updateVault",
      "outputs": [],
      "stateMutability": "nonpayable",
      "type": "function"
    },
    {
      "inputs": [],
      "name": "vault",
      "outputs": [
        {
          "internalType": "contract IRolloverVault",
          "name": "",
          "type": "address"
        }
      ],
      "stateMutability": "view",
      "type": "function"
    }
  ],
  "bytecode": "0x60806040523480156200001157600080fd5b506200001c62000022565b620000e3565b600054610100900460ff16156200008f5760405162461bcd60e51b815260206004820152602760248201527f496e697469616c697a61626c653a20636f6e747261637420697320696e697469604482015266616c697a696e6760c81b606482015260840160405180910390fd5b60005460ff90811614620000e1576000805460ff191660ff9081179091556040519081527f7f26b83ff96e1f2b6a682f133852f6798a09c465da95921460cefb38474024989060200160405180910390a15b565b6146f080620000f36000396000f3fe608060405234801561001057600080fd5b50600436106103835760003560e01c8063729256eb116101de57806397b3fcaa1161010f578063d5abeb01116100ad578063eca05e961161007c578063eca05e961461076f578063ef98f88414610779578063f2fde38b1461078c578063fbfa77cf1461079f57600080fd5b8063d5abeb01146106f9578063db006a7514610703578063dd62ed3e14610723578063e7563f3f1461075c57600080fd5b8063a457c2d7116100e9578063a457c2d7146106a7578063a9059cbb146106ba578063aced1661146106cd578063b4abecc7146106e657600080fd5b806397b3fcaa14610684578063998065461461068c5780639db5dbe41461069457600080fd5b8063876853aa1161017c5780638fb69c4b116101565780638fb69c4b1461064e57806392a18b441461065657806395d89b4114610669578063977902171461067157600080fd5b8063876853aa1461062b5780638b539382146106355780638da5cb5b1461063d57600080fd5b806378f3ae74116101b857806378f3ae74146105e957806379cc6790146105fc578063825890381461060f5780638456cb591461062357600080fd5b8063729256eb146105ba57806376500c17146105ce57806377da7d8d146105d657600080fd5b806342966c68116102b85780636048d4911161025657806369f6f92c1161023057806369f6f92c1461056e5780636f307dc31461058157806370a0823114610589578063715018a6146105b257600080fd5b80636048d4911461054b578063614b4a431461055357806361902ffc1461055b57600080fd5b80634ce2f3ca116102925780634ce2f3ca146105105780635c975abb146105235780635dcc45b71461052e5780635ec572511461054157600080fd5b806342966c68146104d757806343cda19d146104ea57806347e7ef24146104fd57600080fd5b80632cff15ce11610325578063332d83d5116102ff578063332d83d51461049f578063364d22fc146104a757806339509351146104bc5780633f4ba83a146104cf57600080fd5b80632cff15ce146104515780632e5d55e114610464578063313ce5671461048557600080fd5b806318160ddd1161036157806318160ddd146103f45780631d8557d71461040657806323b872dd146104105780632bf8f1a51461042357600080fd5b806306fdde0314610388578063095ea7b3146103a6578063107c0418146103c9575b600080fd5b6103906107b3565b60405161039d9190613f8d565b60405180910390f35b6103b96103b4366004613fd5565b610845565b604051901515815260200161039d565b6103dc6103d7366004614001565b61085f565b6040516001600160a01b03909116815260200161039d565b6035545b60405190815260200161039d565b61040e61087a565b005b6103b961041e36600461401a565b610c08565b61043661043136600461401a565b610c2e565b6040805182518152602092830151928101929092520161039d565b61040e61045f36600461405b565b610d04565b6103f861047236600461407d565b6101386020526000908152604090205481565b61012d5460ff165b60405160ff909116815260200161039d565b6103dc610d3a565b6104af610d5f565b60405161039d919061409a565b6103b96104ca366004613fd5565b611007565b61040e611046565b61040e6104e5366004614001565b61107f565b6103f86104f836600461407d565b61108c565b6103f861050b366004613fd5565b611114565b61043661051e36600461401a565b6111d6565b60c95460ff166103b9565b6103b961053c36600461407d565b61122c565b6103f86101335481565b61048d600881565b6103f861123f565b6103f8610569366004613fd5565b61124e565b61040e61057c36600461407d565b611288565b6103dc61133b565b6103f861059736600461407d565b6001600160a01b031660009081526033602052604090205490565b61040e611347565b610131546103dc906001600160a01b031681565b61048d600b81565b6103f86105e436600461407d565b611359565b61040e6105f736600461418a565b61149c565b61040e61060a366004613fd5565b6116b6565b61012e546103dc906001600160a01b031681565b61040e6116cf565b6103f86101375481565b6103f8611708565b6097546001600160a01b03166103dc565b6103dc611728565b61040e61066436600461407d565b611743565b61039061180a565b61040e61067f36600461407d565b611819565b6103f8611861565b6103f8611873565b61040e6106a236600461401a565b611888565b6103b96106b5366004613fd5565b6118ea565b6103b96106c8366004613fd5565b611987565b61012d546103dc9061010090046001600160a01b031681565b61040e6106f436600461405b565b611995565b6103f86101365481565b610716610711366004614001565b6119d3565b60405161039d9190614228565b6103f8610731366004614280565b6001600160a01b03918216600090815260346020908152604080832093909416825291909152205490565b61040e61076a36600461407d565b611af9565b6103f86101345481565b610716610787366004614001565b611b24565b61040e61079a36600461407d565b611b37565b61013d546103dc906001600160a01b031681565b6060603680546107c2906142b9565b80601f01602080910402602001604051908101604052809291908181526020018280546107ee906142b9565b801561083b5780601f106108105761010080835404028352916020019161083b565b820191906000526020600020905b81548152906001019060200180831161081e57829003601f168201915b5050505050905090565b600033610853818585611bad565b60019150505b92915050565b600061086961087a565b61087282611cd1565b90505b919050565b610882611cdf565b60c95460ff16610bfc57610131546040805163d5eb27a160e01b815290516000926001600160a01b03169163d5eb27a1916004808301926020929190829003018187875af11580156108d8573d6000803e3d6000fd5b505050506040513d601f19601f820116820180604052508101906108fc91906142f3565b610132549091506001600160a01b03808316911614801590610922575061092281611d38565b1561097a5761013280546001600160a01b0319166001600160a01b0383169081179091556040519081527f63e01b6b930f6bd3789aab43a62005627cb8a43517cd0569f997fd6b343b80239060200160405180910390a15b600061098761013a611fc5565b90506000610996600183614326565b90505b60ff811615610be55760006109b08260ff16611cd1565b90506000816001600160a01b03166364c9ec6f6040518163ffffffff1660e01b8152600401602060405180830381865afa1580156109f2573d6000803e3d6000fd5b505050506040513d601f19601f82011682018060405250810190610a1691906142f3565b90506000610a2c826001600160a01b0316611fcf565b1115610a39575050610bd3565b806001600160a01b031663ae4e7fdf6040518163ffffffff1660e01b8152600401602060405180830381865afa158015610a77573d6000803e3d6000fd5b505050506040513d601f19601f82011682018060405250810190610a9b919061433f565b610af357806001600160a01b03166387b652076040518163ffffffff1660e01b8152600401600060405180830381600087803b158015610ada57600080fd5b505af1158015610aee573d6000803e3d6000fd5b505050505b6040516370a0823160e01b81523060048201526001600160a01b03808316916333d20e34918591908216906370a0823190602401602060405180830381865afa158015610b44573d6000803e3d6000fd5b505050506040513d601f19601f82011682018060405250810190610b689190614361565b6040516001600160e01b031960e085901b1681526001600160a01b0390921660048301526024820152604401600060405180830381600087803b158015610bae57600080fd5b505af1158015610bc2573d6000803e3d6000fd5b50505050610bcf8261204e565b5050505b80610bdd8161437a565b915050610999565b50610bf8610bf36000611cd1565b61204e565b5050505b610c06600160fb55565b565b600033610c168582856121b8565b610c2185858561224a565b60019150505b9392505050565b604080518082019091526000808252602082015261013d546001600160a01b03163314610c6e57604051637bf6a16f60e01b815260040160405180910390fd5b610c7661087a565b610c7e611cdf565b610c866123f5565b610c908484612448565b610cad57604051633c37540f60e21b815260040160405180910390fd5b6000610cba8585856124a4565b60208101519091501580610ccd57508051155b15610cd9579050610cfa565b610ce785826020015161292a565b50610cf684826000015161294a565b5090505b610c27600160fb55565b610d0c612960565b80821115610d2d57604051638d2e9ded60e01b815260040160405180910390fd5b6101339190915561013455565b6000610d4461087a565b61013254610d5a906001600160a01b03166129ba565b905090565b6060610d6961087a565b6000610d7661013a611fc5565b905060008160ff1667ffffffffffffffff811115610d9657610d966140e7565b604051908082528060200260200182016040528015610dbf578160200160208202803683370190505b509050600080610dcf6000611cd1565b6040516370a0823160e01b81523060048201529091506000906001600160a01b038316906370a0823190602401602060405180830381865afa158015610e19573d6000803e3d6000fd5b505050506040513d601f19601f82011682018060405250810190610e3d9190614361565b1115610e7d578083600081518110610e5757610e57614397565b6001600160a01b039092166020928302919091019091015281610e79816143ad565b9250505b60015b8460ff168160ff161015610ef9576000610e9c8260ff16611cd1565b9050610ea781612a25565b15610ee85780858360ff1681518110610ec257610ec2614397565b6001600160a01b039092166020928302919091019091015283610ee4816143ad565b9450505b50610ef2816143ad565b9050610e80565b5060008260ff1667ffffffffffffffff811115610f1857610f186140e7565b604051908082528060200260200182016040528015610f41578160200160208202803683370190505b5090506000805b8660ff168160ff161015610ffb5760006001600160a01b0316868260ff1681518110610f7657610f76614397565b60200260200101516001600160a01b031614610feb57858160ff1681518110610fa157610fa1614397565b6020026020010151838380610fb5906143ad565b945060ff1681518110610fca57610fca614397565b60200260200101906001600160a01b031690816001600160a01b0316815250505b610ff4816143ad565b9050610f48565b50909550505050505090565b3360008181526034602090815260408083206001600160a01b038716845290915281205490919061085390829086906110419087906143cc565b611bad565b61012d5461010090046001600160a01b0316331461107757604051637bf6a16f60e01b815260040160405180910390fd5b610c06612aa6565b6110893382612af8565b50565b600061109661087a565b61109f82612c2c565b6110ab57506000919050565b6040516370a0823160e01b81523060048201526001600160a01b038316906370a08231906024015b602060405180830381865afa1580156110f0573d6000803e3d6000fd5b505050506040513d601f19601f820116820180604052508101906108729190614361565b600061111e61087a565b611126611cdf565b61112e6123f5565b61113783612c3a565b61115457604051632c88119960e11b815260040160405180910390fd5b60006111608484612c57565b905082158061116d575080155b1561117c5760009150506111cc565b611186848461292a565b506111913382612d7f565b6001600160a01b03841660009081526101386020526040812080548392906111ba9084906143cc565b909155506111c9905084612e40565b90505b610859600160fb55565b60408051808201909152600080825260208201526111f261087a565b6111fc8484612448565b61121957604051633c37540f60e21b815260040160405180910390fd5b6112248484846124a4565b949350505050565b600061123661087a565b61087282612c2c565b61124b6008600a6144c3565b81565b600061125861087a565b61126183612c3a565b61127e57604051632c88119960e11b815260040160405180910390fd5b610c278383612c57565b611290612960565b600860ff16816001600160a01b031663313ce5676040518163ffffffff1660e01b8152600401602060405180830381865afa1580156112d3573d6000803e3d6000fd5b505050506040513d601f19601f820116820180604052508101906112f791906144d2565b60ff16146113185760405163c51d798560e01b815260040160405180910390fd5b61012e80546001600160a01b0319166001600160a01b0392909216919091179055565b6000610d5a6000611cd1565b61134f612960565b610c066000612eae565b600061136361087a565b61136c82612c2c565b61137857506000919050565b61138182612f00565b156113b2576040516370a0823160e01b81523060048201526001600160a01b038316906370a08231906024016110d3565b60008290506000816001600160a01b03166364c9ec6f6040518163ffffffff1660e01b8152600401602060405180830381865afa1580156113f7573d6000803e3d6000fd5b505050506040513d601f19601f8201168201806040525081019061141b91906142f3565b9050611224828261142c6000611cd1565b6040516370a0823160e01b81523060048201526001600160a01b038716906370a08231906024015b602060405180830381865afa158015611471573d6000803e3d6000fd5b505050506040513d601f19601f820116820180604052508101906114959190614361565b6001612f27565b600054610100900460ff16158080156114bc5750600054600160ff909116105b806114d65750303b1580156114d6575060005460ff166001145b61154d5760405162461bcd60e51b815260206004820152602e60248201527f496e697469616c697a61626c653a20636f6e747261637420697320616c72656160448201527f647920696e697469616c697a656400000000000000000000000000000000000060648201526084015b60405180910390fd5b6000805460ff191660011790558015611570576000805461ff0019166101001790555b61157a8686613044565b6115826130a7565b61158a613100565b611592613161565b61159a6131c2565b836001600160a01b031663313ce5676040518163ffffffff1660e01b8152600401602060405180830381865afa1580156115d8573d6000803e3d6000fd5b505050506040513d601f19601f820116820180604052508101906115fc91906144d2565b61012d805460ff191660ff9290921691909117905561161d61013a85613223565b506116278461204e565b5061163d61067f6097546001600160a01b031690565b61164682611288565b61164f83611743565b61165c6001600019610d04565b61166860001980611995565b80156116ae576000805461ff0019169055604051600181527f7f26b83ff96e1f2b6a682f133852f6798a09c465da95921460cefb38474024989060200160405180910390a15b505050505050565b6116c18233836121b8565b6116cb8282612af8565b5050565b61012d5461010090046001600160a01b0316331461170057604051637bf6a16f60e01b815260040160405180910390fd5b610c06613238565b600061171261087a565b61013254610d5a906001600160a01b0316613275565b600061173261087a565b50610132546001600160a01b031690565b61174b612960565b6117556000611cd1565b6001600160a01b0316816001600160a01b031663d8dfeb456040518163ffffffff1660e01b8152600401602060405180830381865afa15801561179c573d6000803e3d6000fd5b505050506040513d601f19601f820116820180604052508101906117c091906142f3565b6001600160a01b0316146117e757604051632c88119960e11b815260040160405180910390fd5b61013180546001600160a01b0319166001600160a01b0392909216919091179055565b6060603780546107c2906142b9565b611821612960565b61012d80546001600160a01b03909216610100027fffffffffffffffffffffff0000000000000000000000000000000000000000ff909216919091179055565b600061186b61087a565b610d5a6132e0565b600061187d61087a565b610d5a61013a611fc5565b61189061087a565b611898611cdf565b6118a0612960565b6118a983612c2c565b156118c7576040516328071e2f60e11b815260040160405180910390fd5b6118db6001600160a01b0384168383613452565b6118e5600160fb55565b505050565b3360008181526034602090815260408083206001600160a01b03871684529091528120549091908381101561196f5760405162461bcd60e51b815260206004820152602560248201527f45524332303a2064656372656173656420616c6c6f77616e63652062656c6f77604482015264207a65726f60d81b6064820152608401611544565b61197c8286868403611bad565b506001949350505050565b60003361085381858561224a565b61012d5461010090046001600160a01b031633146119c657604051637bf6a16f60e01b815260040160405180910390fd5b6101369190915561013755565b60606119dd61087a565b6119e5611cdf565b6119ed6123f5565b60008211611a3a576040805160008082526020820190925290611a32565b6040805180820190915260008082526020820152815260200190600190039081611a0b5790505b509050611aef565b6000611a45836134ca565b9050611a513384612af8565b805160005b8160ff168160ff161015611ae9576000838260ff1681518110611a7b57611a7b614397565b6020026020010151602001511115611ad957611ad7838260ff1681518110611aa557611aa5614397565b602002602001015160000151848360ff1681518110611ac657611ac6614397565b60200260200101516020015161294a565b505b611ae2816143ad565b9050611a56565b50909150505b610875600160fb55565b611b01612960565b61013d80546001600160a01b0319166001600160a01b0392909216919091179055565b6060611b2e61087a565b610872826134ca565b611b3f612960565b6001600160a01b038116611ba45760405162461bcd60e51b815260206004820152602660248201527f4f776e61626c653a206e6577206f776e657220697320746865207a65726f206160448201526564647265737360d01b6064820152608401611544565b61108981612eae565b6001600160a01b038316611c0f5760405162461bcd60e51b8152602060048201526024808201527f45524332303a20617070726f76652066726f6d20746865207a65726f206164646044820152637265737360e01b6064820152608401611544565b6001600160a01b038216611c705760405162461bcd60e51b815260206004820152602260248201527f45524332303a20617070726f766520746f20746865207a65726f206164647265604482015261737360f01b6064820152608401611544565b6001600160a01b0383811660008181526034602090815260408083209487168084529482529182902085905590518481527f8c5be1e5ebec7d5bd14f71427d1e84f3dd0314c0f7b2291e5b200ac8c7c3b925910160405180910390a3505050565b600061087261013a83613750565b600260fb5403611d315760405162461bcd60e51b815260206004820152601f60248201527f5265656e7472616e637947756172643a207265656e7472616e742063616c6c006044820152606401611544565b600260fb55565b6000611d446000611cd1565b6001600160a01b0316826001600160a01b031663b2016bd46040518163ffffffff1660e01b8152600401602060405180830381865afa158015611d8b573d6000803e3d6000fd5b505050506040513d601f19601f82011682018060405250810190611daf91906142f3565b6001600160a01b0316148015611e265750816001600160a01b03166359eb82246040518163ffffffff1660e01b8152600401602060405180830381865afa158015611dfe573d6000803e3d6000fd5b505050506040513d601f19601f82011682018060405250810190611e229190614361565b6002145b8015611e915750816001600160a01b03166324a9d8536040518163ffffffff1660e01b8152600401602060405180830381865afa158015611e6b573d6000803e3d6000fd5b505050506040513d601f19601f82011682018060405250810190611e8f9190614361565b155b8015611eb0575061013454611eae836001600160a01b0316611fcf565b105b8015611f3857506001600160a01b038216611ecc81600061375c565b6001600160a01b03166364c9ec6f6040518163ffffffff1660e01b8152600401602060405180830381865afa158015611f09573d6000803e3d6000fd5b505050506040513d601f19601f82011682018060405250810190611f2d91906142f3565b6001600160a01b0316145b801561087257506001600160a01b038216611f5481600161375c565b6001600160a01b03166364c9ec6f6040518163ffffffff1660e01b8152600401602060405180830381865afa158015611f91573d6000803e3d6000fd5b505050506040513d601f19601f82011682018060405250810190611fb591906142f3565b6001600160a01b03161492915050565b6000610872825490565b600080826001600160a01b031663d59624b46040518163ffffffff1660e01b8152600401602060405180830381865afa158015612010573d6000803e3d6000fd5b505050506040513d601f19601f820116820180604052508101906120349190614361565b9050428111612044576000610c27565b610c2742826144f5565b6040516370a0823160e01b815230600482015260009081906001600160a01b038416906370a0823190602401602060405180830381865afa158015612097573d6000803e3d6000fd5b505050506040513d601f19601f820116820180604052508101906120bb9190614361565b604080516001600160a01b0386168152602081018390529192507fd1fbbd81a5fd46d869b5cd6883d99108cd295072be1b09d36381bbc78b686939910160405180910390a161210983612f00565b156121145792915050565b600061211f84612c2c565b905060008211801561212f575080155b156121725761214061013a85613223565b50600b61214e61013a611fc5565b111561216d57604051630aadf0b960e41b815260040160405180910390fd5b6121aa565b8115801561217d5750805b156121aa5761218e61013a856137d1565b506001600160a01b038416600090815261013860205260408120555b5092915050565b600160fb55565b6001600160a01b03838116600090815260346020908152604080832093861683529290522054600019811461224457818110156122375760405162461bcd60e51b815260206004820152601d60248201527f45524332303a20696e73756666696369656e7420616c6c6f77616e63650000006044820152606401611544565b6122448484848403611bad565b50505050565b6001600160a01b0383166122ae5760405162461bcd60e51b815260206004820152602560248201527f45524332303a207472616e736665722066726f6d20746865207a65726f206164604482015264647265737360d81b6064820152608401611544565b6001600160a01b0382166123105760405162461bcd60e51b815260206004820152602360248201527f45524332303a207472616e7366657220746f20746865207a65726f206164647260448201526265737360e81b6064820152608401611544565b6001600160a01b038316600090815260336020526040902054818110156123885760405162461bcd60e51b815260206004820152602660248201527f45524332303a207472616e7366657220616d6f756e7420657863656564732062604482015265616c616e636560d01b6064820152608401611544565b6001600160a01b0380851660008181526033602052604080822086860390559286168082529083902080548601905591517fddf252ad1be2c89b69c2b068fc378daa952ba7f163c4a11628f55a4df523b3ef906123e89086815260200190565b60405180910390a3612244565b60c95460ff1615610c065760405162461bcd60e51b815260206004820152601060248201527f5061757361626c653a20706175736564000000000000000000000000000000006044820152606401611544565b600061245382612f00565b156124685761246183612c3a565b9050610859565b8161247284612c3a565b8015612482575061248281612c2c565b8015612494575061249281612c3a565b155b8015611224575061122481612a25565b604080518082019091526000808252602082015261012e5460408051606081019091526000916001600160a01b031690638b83535b9082906301356c8c90806124eb6132e0565b815261013d5460408051634bd9fe5560e11b815290516020938401936001600160a01b03909316926397b3fcaa92600480820193918290030181865afa158015612539573d6000803e3d6000fd5b505050506040513d601f19601f8201168201806040525081019061255d9190614361565b81526101325460209091019061257b906001600160a01b0316613275565b9052604080516001600160e01b031960e085901b16815282516004820152602083015160248201529101516044820152606401602060405180830381865afa1580156125cb573d6000803e3d6000fd5b505050506040513d601f19601f820116820180604052508101906125ef9190614361565b6040518263ffffffff1660e01b815260040161260d91815260200190565b602060405180830381865afa15801561262a573d6000803e3d6000fd5b505050506040513d601f19601f8201168201806040525081019061264e9190614361565b9050600061265c6000611cd1565b61012d549091506000906126749060ff16600a6144c3565b610132549091506000906126959089906001600160a01b0316858585612f27565b9050816001600160a01b038881169085161461272357600088905061271f81826001600160a01b03166364c9ec6f6040518163ffffffff1660e01b8152600401602060405180830381865afa1580156126f2573d6000803e3d6000fd5b505050506040513d601f19601f8201168201806040525081019061271691906142f3565b87876001612f27565b9150505b6040516370a0823160e01b81523060048201526000906001600160a01b038a16906370a0823190602401602060405180830381865afa15801561276a573d6000803e3d6000fd5b505050506040513d601f19601f8201168201806040525081019061278e9190614361565b905087158061279b575080155b806127a4575082155b806127ad575081155b156127d65760405180604001604052806000815260200160008152509650505050505050610c27565b60408051808201909152818152600090602081016127f784868860016137e6565b90529050600087131561284a576128406128136008600a6144c3565b61281c89613843565b6128286008600a6144c3565b61283291906144f5565b6020840151919060016137e6565b6020820152612887565b6000871215612887576128816128626008600a6144c3565b61286b89613899565b6128776008600a6144c3565b61283291906143cc565b60208201525b888160200151111561291c57602081018990526128a58985856138ac565b815260008713156128ee576128e76128bc88613899565b6128c86008600a6144c3565b6128d291906144f5565b6128de6008600a6144c3565b835191906138ac565b815261291c565b600087121561291c5761291961290388613899565b61290f6008600a6144c3565b6128d291906143cc565b81525b9a9950505050505050505050565b60006129416001600160a01b03841633308561399e565b610c278361204e565b60006129416001600160a01b0384163384613452565b6097546001600160a01b03163314610c065760405162461bcd60e51b815260206004820181905260248201527f4f776e61626c653a2063616c6c6572206973206e6f7420746865206f776e65726044820152606401611544565b6040516313612cb160e11b8152600060048201819052906001600160a01b038316906326c25962906024016040805180830381865afa158015612a01573d6000803e3d6000fd5b505050506040513d601f19601f820116820180604052508101906121aa9190614508565b600061013354612a9e836001600160a01b03166364c9ec6f6040518163ffffffff1660e01b8152600401602060405180830381865afa158015612a6c573d6000803e3d6000fd5b505050506040513d601f19601f82011682018060405250810190612a9091906142f3565b6001600160a01b0316611fcf565b111592915050565b612aae6139d6565b60c9805460ff191690557f5db9ee0a495bf2e6ff9c91a7834c1ba4fdd244a5e8aa4e537bd38aeae4b073aa335b6040516001600160a01b03909116815260200160405180910390a1565b6001600160a01b038216612b585760405162461bcd60e51b815260206004820152602160248201527f45524332303a206275726e2066726f6d20746865207a65726f206164647265736044820152607360f81b6064820152608401611544565b6001600160a01b03821660009081526033602052604090205481811015612bcc5760405162461bcd60e51b815260206004820152602260248201527f45524332303a206275726e20616d6f756e7420657863656564732062616c616e604482015261636560f01b6064820152608401611544565b6001600160a01b03831660008181526033602090815260408083208686039055603580548790039055518581529192917fddf252ad1be2c89b69c2b068fc378daa952ba7f163c4a11628f55a4df523b3ef910160405180910390a3505050565b600061087261013a83613a28565b610132546000906001600160a01b0380841691611fb591166129ba565b610132546000908190612c809085906001600160a01b0316612c7884611cd1565b866000612f27565b61013d549091506000906001600160a01b03163314612d165761012e60009054906101000a90046001600160a01b03166001600160a01b0316630a98b70d6040518163ffffffff1660e01b8152600401602060405180830381865afa158015612ced573d6000803e3d6000fd5b505050506040513d601f19601f82011682018060405250810190612d119190614361565b612d19565b60005b90506000612d2660355490565b9050828115612d4657612d4382612d3b6132e0565b8391906138ac565b90505b8215612d7557612d7283612d5c6008600a6144c3565b612d6691906144f5565b612d3b6008600a6144c3565b90505b9695505050505050565b6001600160a01b038216612dd55760405162461bcd60e51b815260206004820152601f60248201527f45524332303a206d696e7420746f20746865207a65726f2061646472657373006044820152606401611544565b8060356000828254612de791906143cc565b90915550506001600160a01b0382166000818152603360209081526040808320805486019055518481527fddf252ad1be2c89b69c2b068fc378daa952ba7f163c4a11628f55a4df523b3ef910160405180910390a35050565b610137546001600160a01b038216600090815261013860205260409020541115612e7d57604051630381ed1760e31b815260040160405180910390fd5b6000612e8860355490565b9050610136548111156116cb5760405163fb88d21560e01b815260040160405180910390fd5b609780546001600160a01b038381166001600160a01b0319831681179093556040519116919082907f8be0079c531659141344cd1fd0a4f28419497f9722a3daafe3b4186f6b6457e090600090a35050565b6000612f0c6000611cd1565b6001600160a01b0316826001600160a01b0316149050919050565b6040516370a0823160e01b81526001600160a01b03858116600483015260009182918616906370a0823190602401602060405180830381865afa158015612f72573d6000803e3d6000fd5b505050506040513d601f19601f82011682018060405250810190612f969190614361565b90506000876001600160a01b03166318160ddd6040518163ffffffff1660e01b8152600401602060405180830381865afa158015612fd8573d6000803e3d6000fd5b505050506040513d601f19601f82011682018060405250810190612ffc9190614361565b9050600061300a8284613a4a565b90506000821161301a5785613037565b61303786838761302b57600061302e565b60015b849291906137e6565b9998505050505050505050565b600054610100900460ff1661309d5760405162461bcd60e51b815260206004820152602b602482015260008051602061469b83398151915260448201526a6e697469616c697a696e6760a81b6064820152608401611544565b6116cb8282613a60565b600054610100900460ff16610c065760405162461bcd60e51b815260206004820152602b602482015260008051602061469b83398151915260448201526a6e697469616c697a696e6760a81b6064820152608401611544565b600054610100900460ff166131595760405162461bcd60e51b815260206004820152602b602482015260008051602061469b83398151915260448201526a6e697469616c697a696e6760a81b6064820152608401611544565b610c06613ad2565b600054610100900460ff166131ba5760405162461bcd60e51b815260206004820152602b602482015260008051602061469b83398151915260448201526a6e697469616c697a696e6760a81b6064820152608401611544565b610c06613b34565b600054610100900460ff1661321b5760405162461bcd60e51b815260206004820152602b602482015260008051602061469b83398151915260448201526a6e697469616c697a696e6760a81b6064820152608401611544565b610c06613b99565b6000610c27836001600160a01b038416613bf2565b6132406123f5565b60c9805460ff191660011790557f62e78cea01bee320cd4e420270b5ea74000d11b0c9f74754ebdbfc544b05a258612adb3390565b6040516313612cb160e11b8152600060048201819052906001600160a01b038316906326c25962906024016040805180830381865afa1580156132bc573d6000803e3d6000fd5b505050506040513d601f19601f82011682018060405250810190610c279190614508565b6000806132ed6000611cd1565b6040516370a0823160e01b81523060048201529091506000906001600160a01b038316906370a0823190602401602060405180830381865afa158015613337573d6000803e3d6000fd5b505050506040513d601f19601f8201168201806040525081019061335b9190614361565b9050600061336a61013a611fc5565b905060015b8160ff168160ff16101561344957600061338b8260ff16611cd1565b90506000816001600160a01b03166364c9ec6f6040518163ffffffff1660e01b8152600401602060405180830381865afa1580156133cd573d6000803e3d6000fd5b505050506040513d601f19601f820116820180604052508101906133f191906142f3565b6040516370a0823160e01b815230600482015290915061342a908390839089906001600160a01b038416906370a0823190602401611454565b61343490866143cc565b9450505080613442906143ad565b905061336f565b50909392505050565b6040516001600160a01b0383166024820152604481018290526118e590849063a9059cbb60e01b906064015b60408051601f198184030181529190526020810180517bffffffffffffffffffffffffffffffffffffffffffffffffffffffff166001600160e01b031990931692909217909152613c41565b606060006134d760355490565b61013d549091506000906001600160a01b0316331461356d5761012e60009054906101000a90046001600160a01b03166001600160a01b031663ca9cbcbe6040518163ffffffff1660e01b8152600401602060405180830381865afa158015613544573d6000803e3d6000fd5b505050506040513d601f19601f820116820180604052508101906135689190614361565b613570565b60005b9050600061357f61013a611fc5565b905060008160ff1667ffffffffffffffff81111561359f5761359f6140e7565b6040519080825280602002602001820160405280156135e457816020015b60408051808201909152600080825260208201528152602001906001900390816135bd5790505b50905060005b8260ff168160ff1610156137465760006136068260ff16611cd1565b6040805180820182526001600160a01b03831680825291516370a0823160e01b8152306004820152929350916020830191613690918c918b916370a0823190602401602060405180830381865afa158015613665573d6000803e3d6000fd5b505050506040513d601f19601f820116820180604052508101906136899190614361565b91906138ac565b815250838360ff16815181106136a8576136a8614397565b602090810291909101015284156137355761370f856136c96008600a6144c3565b6136d391906144f5565b6136df6008600a6144c3565b858560ff16815181106136f4576136f4614397565b6020026020010151602001516138ac9092919063ffffffff16565b838360ff168151811061372457613724614397565b602002602001015160200181815250505b5061373f816143ad565b90506135ea565b5095945050505050565b6000610c278383613d29565b6040516313612cb160e11b815260ff821660048201526000906001600160a01b038416906326c25962906024016040805180830381865afa1580156137a5573d6000803e3d6000fd5b505050506040513d601f19601f820116820180604052508101906137c99190614508565b509392505050565b6000610c27836001600160a01b038416613d53565b6000806137f48686866138ac565b9050600183600281111561380a5761380a614536565b1480156138275750600084806138225761382261454c565b868809115b1561383a576138376001826143cc565b90505b95945050505050565b6000808212156138955760405162461bcd60e51b815260206004820181905260248201527f53616665436173743a2076616c7565206d75737420626520706f7369746976656044820152606401611544565b5090565b6000808212156138955781600003610872565b60008080600019858709858702925082811083820303915050806000036138e6578382816138dc576138dc61454c565b0492505050610c27565b8084116139355760405162461bcd60e51b815260206004820152601560248201527f4d6174683a206d756c446976206f766572666c6f7700000000000000000000006044820152606401611544565b60008486880960026001871981018816978890046003810283188082028403028082028403028082028403028082028403028082028403029081029092039091026000889003889004909101858311909403939093029303949094049190911702949350505050565b6040516001600160a01b03808516602483015283166044820152606481018290526122449085906323b872dd60e01b9060840161347e565b60c95460ff16610c065760405162461bcd60e51b815260206004820152601460248201527f5061757361626c653a206e6f74207061757365640000000000000000000000006044820152606401611544565b6001600160a01b03811660009081526001830160205260408120541515610c27565b6000818310613a595781610c27565b5090919050565b600054610100900460ff16613ab95760405162461bcd60e51b815260206004820152602b602482015260008051602061469b83398151915260448201526a6e697469616c697a696e6760a81b6064820152608401611544565b6036613ac583826145a8565b5060376118e582826145a8565b600054610100900460ff16613b2b5760405162461bcd60e51b815260206004820152602b602482015260008051602061469b83398151915260448201526a6e697469616c697a696e6760a81b6064820152608401611544565b610c0633612eae565b600054610100900460ff16613b8d5760405162461bcd60e51b815260206004820152602b602482015260008051602061469b83398151915260448201526a6e697469616c697a696e6760a81b6064820152608401611544565b60c9805460ff19169055565b600054610100900460ff166121b15760405162461bcd60e51b815260206004820152602b602482015260008051602061469b83398151915260448201526a6e697469616c697a696e6760a81b6064820152608401611544565b6000818152600183016020526040812054613c3957508154600181810184556000848152602080822090930184905584548482528286019093526040902091909155610859565b506000610859565b6000613c96826040518060400160405280602081526020017f5361666545524332303a206c6f772d6c6576656c2063616c6c206661696c6564815250856001600160a01b0316613e469092919063ffffffff16565b9050805160001480613cb7575080806020019051810190613cb7919061433f565b6118e55760405162461bcd60e51b815260206004820152602a60248201527f5361666545524332303a204552433230206f7065726174696f6e20646964206e60448201527f6f742073756363656564000000000000000000000000000000000000000000006064820152608401611544565b6000826000018281548110613d4057613d40614397565b9060005260206000200154905092915050565b60008181526001830160205260408120548015613e3c576000613d776001836144f5565b8554909150600090613d8b906001906144f5565b9050818114613df0576000866000018281548110613dab57613dab614397565b9060005260206000200154905080876000018481548110613dce57613dce614397565b6000918252602080832090910192909255918252600188019052604090208390555b8554869080613e0157613e01614668565b600190038181906000526020600020016000905590558560010160008681526020019081526020016000206000905560019350505050610859565b6000915050610859565b6060611224848460008585600080866001600160a01b03168587604051613e6d919061467e565b60006040518083038185875af1925050503d8060008114613eaa576040519150601f19603f3d011682016040523d82523d6000602084013e613eaf565b606091505b5091509150613ec087838387613ecb565b979650505050505050565b60608315613f3a578251600003613f33576001600160a01b0385163b613f335760405162461bcd60e51b815260206004820152601d60248201527f416464726573733a2063616c6c20746f206e6f6e2d636f6e74726163740000006044820152606401611544565b5081611224565b6112248383815115613f4f5781518083602001fd5b8060405162461bcd60e51b81526004016115449190613f8d565b60005b83811015613f84578181015183820152602001613f6c565b50506000910152565b6020815260008251806020840152613fac816040850160208701613f69565b601f01601f19169190910160400192915050565b6001600160a01b038116811461108957600080fd5b60008060408385031215613fe857600080fd5b8235613ff381613fc0565b946020939093013593505050565b60006020828403121561401357600080fd5b5035919050565b60008060006060848603121561402f57600080fd5b833561403a81613fc0565b9250602084013561404a81613fc0565b929592945050506040919091013590565b6000806040838503121561406e57600080fd5b50508035926020909101359150565b60006020828403121561408f57600080fd5b8135610c2781613fc0565b6020808252825182820181905260009190848201906040850190845b818110156140db5783516001600160a01b0316835292840192918401916001016140b6565b50909695505050505050565b634e487b7160e01b600052604160045260246000fd5b600082601f83011261410e57600080fd5b813567ffffffffffffffff80821115614129576141296140e7565b604051601f8301601f19908116603f01168101908282118183101715614151576141516140e7565b8160405283815286602085880101111561416a57600080fd5b836020870160208301376000602085830101528094505050505092915050565b600080600080600060a086880312156141a257600080fd5b853567ffffffffffffffff808211156141ba57600080fd5b6141c689838a016140fd565b965060208801359150808211156141dc57600080fd5b506141e9888289016140fd565b94505060408601356141fa81613fc0565b9250606086013561420a81613fc0565b9150608086013561421a81613fc0565b809150509295509295909350565b602080825282518282018190526000919060409081850190868401855b8281101561427357815180516001600160a01b03168552860151868501529284019290850190600101614245565b5091979650505050505050565b6000806040838503121561429357600080fd5b823561429e81613fc0565b915060208301356142ae81613fc0565b809150509250929050565b600181811c908216806142cd57607f821691505b6020821081036142ed57634e487b7160e01b600052602260045260246000fd5b50919050565b60006020828403121561430557600080fd5b8151610c2781613fc0565b634e487b7160e01b600052601160045260246000fd5b60ff828116828216039081111561085957610859614310565b60006020828403121561435157600080fd5b81518015158114610c2757600080fd5b60006020828403121561437357600080fd5b5051919050565b600060ff82168061438d5761438d614310565b6000190192915050565b634e487b7160e01b600052603260045260246000fd5b600060ff821660ff81036143c3576143c3614310565b60010192915050565b8082018082111561085957610859614310565b600181815b8085111561441a57816000190482111561440057614400614310565b8085161561440d57918102915b93841c93908002906143e4565b509250929050565b60008261443157506001610859565b8161443e57506000610859565b8160018114614454576002811461445e5761447a565b6001915050610859565b60ff84111561446f5761446f614310565b50506001821b610859565b5060208310610133831016604e8410600b841016171561449d575081810a610859565b6144a783836143df565b80600019048211156144bb576144bb614310565b029392505050565b6000610c2760ff841683614422565b6000602082840312156144e457600080fd5b815160ff81168114610c2757600080fd5b8181038181111561085957610859614310565b6000806040838503121561451b57600080fd5b825161452681613fc0565b6020939093015192949293505050565b634e487b7160e01b600052602160045260246000fd5b634e487b7160e01b600052601260045260246000fd5b601f8211156118e557600081815260208120601f850160051c810160208610156145895750805b601f850160051c820191505b818110156116ae57828155600101614595565b815167ffffffffffffffff8111156145c2576145c26140e7565b6145d6816145d084546142b9565b84614562565b602080601f83116001811461460b57600084156145f35750858301515b600019600386901b1c1916600185901b1785556116ae565b600085815260208120601f198616915b8281101561463a5788860151825594840194600190910190840161461b565b50858210156146585787850151600019600388901b60f8161c191681555b5050505050600190811b01905550565b634e487b7160e01b600052603160045260246000fd5b60008251614690818460208701613f69565b919091019291505056fe496e697469616c697a61626c653a20636f6e7472616374206973206e6f742069a2646970667358221220117437feaf340e0dba3091f1ecdc2dc97a8597e7902ee832f48f151e08b9e97d64736f6c63430008140033",
  "linkReferences": {},
  "deployedLinkReferences": {}
}