{
  "_format": "hh-sol-artifact-1",
  "contractName": "RolloverVault",
  "sourceName": "contracts/vaults/RolloverVault.sol",
  "abi": [
    {
      "inputs": [],
      "name": "DeployedCountOverLimit",
      "type": "error"
    },
    {
      "inputs": [],
      "name": "InsufficientDeployment",
      "type": "error"
    },
    {
      "inputs": [],
      "name": "OutOfBounds",
      "type": "error"
    },
    {
      "inputs": [
        {
          "internalType": "contract ITranche",
          "name": "tranche",
          "type": "address"
        }
      ],
      "name": "UnacceptableTranche",
      "type": "error"
    },
    {
      "inputs": [
        {
          "internalType": "contract IERC20Upgradeable",
          "name": "token",
          "type": "address"
        }
      ],
      "name": "UnauthorizedTransferOut",
      "type": "error"
    },
    {
      "inputs": [
        {
          "internalType": "contract IERC20Upgradeable",
          "name": "token",
          "type": "address"
        }
      ],
      "name": "UnexpectedAsset",
      "type": "error"
    },
    {
      "anonymous": false,
      "inputs": [
        {
          "indexed": true,
          "internalType": "address",
          "name": "owner",
          "type": "address"
        },
        {
          "indexed": true,
          "internalType": "address",
          "name": "spender",
          "type": "address"
        },
        {
          "indexed": false,
          "internalType": "uint256",
          "name": "value",
          "type": "uint256"
        }
      ],
      "name": "Approval",
      "type": "event"
    },
    {
      "anonymous": false,
      "inputs": [
        {
          "indexed": false,
          "internalType": "contract IERC20Upgradeable",
          "name": "token",
          "type": "address"
        },
        {
          "indexed": false,
          "internalType": "uint256",
          "name": "balance",
          "type": "uint256"
        }
      ],
      "name": "AssetSynced",
      "type": "event"
    },
    {
      "anonymous": false,
      "inputs": [
        {
          "indexed": false,
          "internalType": "uint8",
          "name": "version",
          "type": "uint8"
        }
      ],
      "name": "Initialized",
      "type": "event"
    },
    {
      "anonymous": false,
      "inputs": [
        {
          "indexed": true,
          "internalType": "address",
          "name": "previousOwner",
          "type": "address"
        },
        {
          "indexed": true,
          "internalType": "address",
          "name": "newOwner",
          "type": "address"
        }
      ],
      "name": "OwnershipTransferred",
      "type": "event"
    },
    {
      "anonymous": false,
      "inputs": [
        {
          "indexed": false,
          "internalType": "address",
          "name": "account",
          "type": "address"
        }
      ],
      "name": "Paused",
      "type": "event"
    },
    {
      "anonymous": false,
      "inputs": [
        {
          "indexed": true,
          "internalType": "address",
          "name": "from",
          "type": "address"
        },
        {
          "indexed": true,
          "internalType": "address",
          "name": "to",
          "type": "address"
        },
        {
          "indexed": false,
          "internalType": "uint256",
          "name": "value",
          "type": "uint256"
        }
      ],
      "name": "Transfer",
      "type": "event"
    },
    {
      "anonymous": false,
      "inputs": [
        {
          "indexed": false,
          "internalType": "address",
          "name": "account",
          "type": "address"
        }
      ],
      "name": "Unpaused",
      "type": "event"
    },
    {
      "inputs": [],
      "name": "HUNDRED_PERC",
      "outputs": [
        {
          "internalType": "uint256",
          "name": "",
          "type": "uint256"
        }
      ],
      "stateMutability": "view",
      "type": "function"
    },
    {
      "inputs": [],
      "name": "MAX_DEPLOYED_COUNT",
      "outputs": [
        {
          "internalType": "uint256",
          "name": "",
          "type": "uint256"
        }
      ],
      "stateMutability": "view",
      "type": "function"
    },
    {
      "inputs": [],
      "name": "PERC_DECIMALS",
      "outputs": [
        {
          "internalType": "uint8",
          "name": "",
          "type": "uint8"
        }
      ],
      "stateMutability": "view",
      "type": "function"
    },
    {
      "inputs": [],
      "name": "UNIT_PERC",
      "outputs": [
        {
          "internalType": "uint256",
          "name": "",
          "type": "uint256"
        }
      ],
      "stateMutability": "view",
      "type": "function"
    },
    {
      "inputs": [
        {
          "internalType": "address",
          "name": "owner",
          "type": "address"
        },
        {
          "internalType": "address",
          "name": "spender",
          "type": "address"
        }
      ],
      "name": "allowance",
      "outputs": [
        {
          "internalType": "uint256",
          "name": "",
          "type": "uint256"
        }
      ],
      "stateMutability": "view",
      "type": "function"
    },
    {
      "inputs": [
        {
          "internalType": "address",
          "name": "spender",
          "type": "address"
        },
        {
          "internalType": "uint256",
          "name": "amount",
          "type": "uint256"
        }
      ],
      "name": "approve",
      "outputs": [
        {
          "internalType": "bool",
          "name": "",
          "type": "bool"
        }
      ],
      "stateMutability": "nonpayable",
      "type": "function"
    },
    {
      "inputs": [
        {
          "internalType": "address",
          "name": "account",
          "type": "address"
        }
      ],
      "name": "balanceOf",
      "outputs": [
        {
          "internalType": "uint256",
          "name": "",
          "type": "uint256"
        }
      ],
      "stateMutability": "view",
      "type": "function"
    },
    {
      "inputs": [
        {
          "internalType": "uint256",
          "name": "amount",
          "type": "uint256"
        }
      ],
      "name": "burn",
      "outputs": [],
      "stateMutability": "nonpayable",
      "type": "function"
    },
    {
      "inputs": [
        {
          "internalType": "address",
          "name": "account",
          "type": "address"
        },
        {
          "internalType": "uint256",
          "name": "amount",
          "type": "uint256"
        }
      ],
      "name": "burnFrom",
      "outputs": [],
      "stateMutability": "nonpayable",
      "type": "function"
    },
    {
      "inputs": [],
      "name": "decimals",
      "outputs": [
        {
          "internalType": "uint8",
          "name": "",
          "type": "uint8"
        }
      ],
      "stateMutability": "view",
      "type": "function"
    },
    {
      "inputs": [
        {
          "internalType": "address",
          "name": "spender",
          "type": "address"
        },
        {
          "internalType": "uint256",
          "name": "subtractedValue",
          "type": "uint256"
        }
      ],
      "name": "decreaseAllowance",
      "outputs": [
        {
          "internalType": "bool",
          "name": "",
          "type": "bool"
        }
      ],
      "stateMutability": "nonpayable",
      "type": "function"
    },
    {
      "inputs": [],
      "name": "deploy",
      "outputs": [],
      "stateMutability": "nonpayable",
      "type": "function"
    },
    {
      "inputs": [
        {
          "internalType": "uint256",
          "name": "i",
          "type": "uint256"
        }
      ],
      "name": "deployedAt",
      "outputs": [
        {
          "internalType": "contract IERC20Upgradeable",
          "name": "",
          "type": "address"
        }
      ],
      "stateMutability": "view",
      "type": "function"
    },
    {
      "inputs": [],
      "name": "deployedCount",
      "outputs": [
        {
          "internalType": "uint256",
          "name": "",
          "type": "uint256"
        }
      ],
      "stateMutability": "view",
      "type": "function"
    },
    {
      "inputs": [
        {
          "internalType": "uint256",
          "name": "amount",
          "type": "uint256"
        }
      ],
      "name": "deposit",
      "outputs": [
        {
          "internalType": "uint256",
          "name": "",
          "type": "uint256"
        }
      ],
      "stateMutability": "nonpayable",
      "type": "function"
    },
    {
      "inputs": [
        {
          "internalType": "uint256",
          "name": "i",
          "type": "uint256"
        }
      ],
      "name": "earnedAt",
      "outputs": [
        {
          "internalType": "contract IERC20Upgradeable",
          "name": "",
          "type": "address"
        }
      ],
      "stateMutability": "view",
      "type": "function"
    },
    {
      "inputs": [],
      "name": "earnedCount",
      "outputs": [
        {
          "internalType": "uint256",
          "name": "",
          "type": "uint256"
        }
      ],
      "stateMutability": "pure",
      "type": "function"
    },
    {
      "inputs": [],
      "name": "getTVL",
      "outputs": [
        {
          "internalType": "uint256",
          "name": "",
          "type": "uint256"
        }
      ],
      "stateMutability": "nonpayable",
      "type": "function"
    },
    {
      "inputs": [
        {
          "internalType": "contract IERC20Upgradeable",
          "name": "token",
          "type": "address"
        }
      ],
      "name": "getVaultAssetValue",
      "outputs": [
        {
          "internalType": "uint256",
          "name": "",
          "type": "uint256"
        }
      ],
      "stateMutability": "nonpayable",
      "type": "function"
    },
    {
      "inputs": [
        {
          "internalType": "address",
          "name": "spender",
          "type": "address"
        },
        {
          "internalType": "uint256",
          "name": "addedValue",
          "type": "uint256"
        }
      ],
      "name": "increaseAllowance",
      "outputs": [
        {
          "internalType": "bool",
          "name": "",
          "type": "bool"
        }
      ],
      "stateMutability": "nonpayable",
      "type": "function"
    },
    {
      "inputs": [
        {
          "internalType": "string",
          "name": "name",
          "type": "string"
        },
        {
          "internalType": "string",
          "name": "symbol",
          "type": "string"
        },
        {
          "internalType": "contract IPerpetualTranche",
          "name": "perp_",
          "type": "address"
        }
      ],
      "name": "init",
      "outputs": [],
      "stateMutability": "nonpayable",
      "type": "function"
    },
    {
      "inputs": [
        {
          "internalType": "contract IERC20Upgradeable",
          "name": "token",
          "type": "address"
        }
      ],
      "name": "isVaultAsset",
      "outputs": [
        {
          "internalType": "bool",
          "name": "",
          "type": "bool"
        }
      ],
      "stateMutability": "view",
      "type": "function"
    },
    {
      "inputs": [],
      "name": "minDeploymentAmt",
      "outputs": [
        {
          "internalType": "uint256",
          "name": "",
          "type": "uint256"
        }
      ],
      "stateMutability": "view",
      "type": "function"
    },
    {
      "inputs": [],
      "name": "name",
      "outputs": [
        {
          "internalType": "string",
          "name": "",
          "type": "string"
        }
      ],
      "stateMutability": "view",
      "type": "function"
    },
    {
      "inputs": [],
      "name": "owner",
      "outputs": [
        {
          "internalType": "address",
          "name": "",
          "type": "address"
        }
      ],
      "stateMutability": "view",
      "type": "function"
    },
    {
      "inputs": [],
      "name": "pause",
      "outputs": [],
      "stateMutability": "nonpayable",
      "type": "function"
    },
    {
      "inputs": [],
      "name": "paused",
      "outputs": [
        {
          "internalType": "bool",
          "name": "",
          "type": "bool"
        }
      ],
      "stateMutability": "view",
      "type": "function"
    },
    {
      "inputs": [],
      "name": "perp",
      "outputs": [
        {
          "internalType": "contract IPerpetualTranche",
          "name": "",
          "type": "address"
        }
      ],
      "stateMutability": "view",
      "type": "function"
    },
    {
      "inputs": [
        {
          "internalType": "contract IERC20Upgradeable",
          "name": "token",
          "type": "address"
        }
      ],
      "name": "recover",
      "outputs": [],
      "stateMutability": "nonpayable",
      "type": "function"
    },
    {
      "inputs": [],
      "name": "recover",
      "outputs": [],
      "stateMutability": "nonpayable",
      "type": "function"
    },
    {
      "inputs": [],
      "name": "recoverAndRedeploy",
      "outputs": [],
      "stateMutability": "nonpayable",
      "type": "function"
    },
    {
      "inputs": [
        {
          "internalType": "uint256",
          "name": "notes",
          "type": "uint256"
        }
      ],
      "name": "redeem",
      "outputs": [
        {
          "components": [
            {
              "internalType": "contract IERC20Upgradeable",
              "name": "token",
              "type": "address"
            },
            {
              "internalType": "uint256",
              "name": "amount",
              "type": "uint256"
            }
          ],
          "internalType": "struct IVault.TokenAmount[]",
          "name": "",
          "type": "tuple[]"
        }
      ],
      "stateMutability": "nonpayable",
      "type": "function"
    },
    {
      "inputs": [],
      "name": "renounceOwnership",
      "outputs": [],
      "stateMutability": "nonpayable",
      "type": "function"
    },
    {
      "inputs": [],
      "name": "symbol",
      "outputs": [
        {
          "internalType": "string",
          "name": "",
          "type": "string"
        }
      ],
      "stateMutability": "view",
      "type": "function"
    },
    {
      "inputs": [],
      "name": "totalSupply",
      "outputs": [
        {
          "internalType": "uint256",
          "name": "",
          "type": "uint256"
        }
      ],
      "stateMutability": "view",
      "type": "function"
    },
    {
      "inputs": [
        {
          "internalType": "address",
          "name": "to",
          "type": "address"
        },
        {
          "internalType": "uint256",
          "name": "amount",
          "type": "uint256"
        }
      ],
      "name": "transfer",
      "outputs": [
        {
          "internalType": "bool",
          "name": "",
          "type": "bool"
        }
      ],
      "stateMutability": "nonpayable",
      "type": "function"
    },
    {
      "inputs": [
        {
          "internalType": "contract IERC20Upgradeable",
          "name": "token",
          "type": "address"
        },
        {
          "internalType": "address",
          "name": "to",
          "type": "address"
        },
        {
          "internalType": "uint256",
          "name": "amount",
          "type": "uint256"
        }
      ],
      "name": "transferERC20",
      "outputs": [],
      "stateMutability": "nonpayable",
      "type": "function"
    },
    {
      "inputs": [
        {
          "internalType": "address",
          "name": "from",
          "type": "address"
        },
        {
          "internalType": "address",
          "name": "to",
          "type": "address"
        },
        {
          "internalType": "uint256",
          "name": "amount",
          "type": "uint256"
        }
      ],
      "name": "transferFrom",
      "outputs": [
        {
          "internalType": "bool",
          "name": "",
          "type": "bool"
        }
      ],
      "stateMutability": "nonpayable",
      "type": "function"
    },
    {
      "inputs": [
        {
          "internalType": "address",
          "name": "newOwner",
          "type": "address"
        }
      ],
      "name": "transferOwnership",
      "outputs": [],
      "stateMutability": "nonpayable",
      "type": "function"
    },
    {
      "inputs": [],
      "name": "underlying",
      "outputs": [
        {
          "internalType": "contract IERC20Upgradeable",
          "name": "",
          "type": "address"
        }
      ],
      "stateMutability": "view",
      "type": "function"
    },
    {
      "inputs": [],
      "name": "unpause",
      "outputs": [],
      "stateMutability": "nonpayable",
      "type": "function"
    },
    {
      "inputs": [
        {
          "internalType": "uint256",
          "name": "minDeploymentAmt_",
          "type": "uint256"
        }
      ],
      "name": "updateMinDeploymentAmt",
      "outputs": [],
      "stateMutability": "nonpayable",
      "type": "function"
    },
    {
      "inputs": [
        {
          "internalType": "contract IERC20Upgradeable",
          "name": "token",
          "type": "address"
        }
      ],
      "name": "vaultAssetBalance",
      "outputs": [
        {
          "internalType": "uint256",
          "name": "",
          "type": "uint256"
        }
      ],
      "stateMutability": "view",
      "type": "function"
    }
  ],
  "bytecode": "0x608060405234801561001057600080fd5b50614836806100206000396000f3fe608060405234801561001057600080fd5b50600436106102695760003560e01c8063715018a6116101515780639db5dbe4116100c3578063bfa4c00c11610087578063bfa4c00c146104d7578063ce746024146104eb578063db006a75146104f3578063db81d9ef14610513578063dd62ed3e14610526578063f2fde38b1461053957600080fd5b80639db5dbe414610478578063a457c2d71461048b578063a9059cbb1461049e578063b6b55f25146104b1578063bf5d2214146104c457600080fd5b806379cc67901161011557806379cc6790146104345780638456cb5914610447578063846e7e9f1461044f5780638da5cb5b1461045757806395d89b411461046857806397b3fcaa1461047057600080fd5b8063715018a61461040157806372617687146104095780637375c5d61461041157806375d5179f14610424578063775c300c1461042c57600080fd5b806339697825116101ea5780635c975abb116101ae5780635c975abb1461038b57806362b232a4146103965780636c881178146103a95780636ee5741a146103b15780636f307dc3146103c457806370a08231146103d857600080fd5b806339697825146103335780633e0a26541461033b5780633f45e08f146103665780633f4ba83a1461037057806342966c681461037857600080fd5b80632ad537e3116102315780632ad537e3146102e95780632e0cb4af146102fc578063311705aa14610303578063313ce5671461030b578063395093511461032057600080fd5b806306fdde031461026e578063095ea7b31461028c5780630cd865ec146102af57806318160ddd146102c457806323b872dd146102d6575b600080fd5b61027661054c565b6040516102839190613f90565b60405180910390f35b61029f61029a366004613fd8565b6105de565b6040519015158152602001610283565b6102c26102bd366004614004565b6105f8565b005b6035545b604051908152602001610283565b61029f6102e4366004614021565b610800565b6102c86102f7366004614004565b610826565b60016102c8565b6102c8610a5d565b60125b60405160ff9091168152602001610283565b61029f61032e366004613fd8565b610a6c565b6102c8602f81565b61034e610349366004614062565b610a8e565b6040516001600160a01b039091168152602001610283565b6102c86101305481565b6102c2610a9c565b6102c2610386366004614062565b610aae565b60c95460ff1661029f565b61029f6103a4366004614004565b610abb565b6102c8610afe565b6102c26103bf366004614132565b610b10565b61012d5461034e906001600160a01b031681565b6102c86103e6366004614004565b6001600160a01b031660009081526033602052604090205490565b6102c2610ced565b6102c2610cff565b6102c861041f366004614004565b610d0f565b61030e600681565b6102c2610d51565b6102c2610442366004613fd8565b610e5e565b6102c2610e77565b6102c8610e87565b6097546001600160a01b031661034e565b610276610e9e565b6102c8610ead565b6102c2610486366004614021565b61111d565b61029f610499366004613fd8565b611170565b61029f6104ac366004613fd8565b6111f6565b6102c86104bf366004614062565b611204565b6102c26104d2366004614062565b6112b8565b6101315461034e906001600160a01b031681565b6102c26112c6565b610506610501366004614062565b6114de565b60405161028391906141aa565b61034e610521366004614062565b6117a0565b6102c8610534366004614202565b6117d3565b6102c2610547366004614004565b6117fe565b60606036805461055b9061423b565b80601f01602080910402602001604051908101604052809291908181526020018280546105879061423b565b80156105d45780601f106105a9576101008083540402835291602001916105d4565b820191906000526020600020905b8154815290600101906020018083116105b757829003601f168201915b5050505050905090565b6000336105ec818585611874565b60019150505b92915050565b600260fb54036106235760405162461bcd60e51b815260040161061a9061426f565b60405180910390fd5b600260fb55610630611998565b61063c61012e826119de565b6106645760405163392e11a960e11b81526001600160a01b038216600482015260240161061a565b6040516370a0823160e01b815230600482015281906000906001600160a01b038316906370a0823190602401602060405180830381865afa1580156106ad573d6000803e3d6000fd5b505050506040513d601f19601f820116820180604052508101906106d191906142a6565b9050600081116106eb576106e482611a00565b50506107f8565b6000826001600160a01b03166364c9ec6f6040518163ffffffff1660e01b8152600401602060405180830381865afa15801561072b573d6000803e3d6000fd5b505050506040513d601f19601f8201168201806040525081019061074f91906142bf565b90506000610765826001600160a01b0316611ad6565b1161078357610775818484611b55565b61077e83611a00565b6107de565b600061078e82611c76565b905060005b81515160ff821610156107db576107c982600001518260ff16815181106107bc576107bc6142dc565b6020026020010151611a00565b806107d381614308565b915050610793565b50505b61012d546107f4906001600160a01b0316611d2e565b5050505b50600160fb55565b60003361080e858285611de2565b610819858585611e56565b60019150505b9392505050565b61012d546000906001600160a01b03908116908316036108a9576040516370a0823160e01b81523060048201526001600160a01b038316906370a08231906024015b602060405180830381865afa158015610885573d6000803e3d6000fd5b505050506040513d601f19601f820116820180604052508101906105f291906142a6565b6108b561012e836119de565b15610950576000806108cf846001600160a01b0316612024565b6040516370a0823160e01b81523060048201529193509150610948906001600160a01b038616906370a0823190602401602060405180830381865afa15801561091c573d6000803e3d6000fd5b505050506040513d601f19601f8201168201806040525081019061094091906142a6565b839083612110565b949350505050565b610131546001600160a01b0390811690831603610a55576101315460408051633c0799bb60e21b815290516105f2926001600160a01b03169163f01e66ec91600480830192602092919082900301816000875af11580156109b5573d6000803e3d6000fd5b505050506040513d601f19601f820116820180604052508101906109d991906142a6565b6109e56008600a61440b565b6040516370a0823160e01b81523060048201526001600160a01b038616906370a08231906024015b602060405180830381865afa158015610a2a573d6000803e3d6000fd5b505050506040513d601f19601f82011682018060405250810190610a4e91906142a6565b9190612110565b506000919050565b610a696006600a61440b565b81565b6000336105ec818585610a7f83836117d3565b610a89919061441a565b611874565b60006105f261012e836121bf565b610aa46121cb565b610aac612225565b565b610ab83382612277565b50565b61012d546000906001600160a01b0383811691161480610ae25750610ae261012e836119de565b806105f2575050610131546001600160a01b0390811691161490565b6000610b0b61012e6123c5565b905090565b600054610100900460ff1615808015610b305750600054600160ff909116105b80610b4a5750303b158015610b4a575060005460ff166001145b610bad5760405162461bcd60e51b815260206004820152602e60248201527f496e697469616c697a61626c653a20636f6e747261637420697320616c72656160448201526d191e481a5b9a5d1a585b1a5e995960921b606482015260840161061a565b6000805460ff191660011790558015610bd0576000805461ff0019166101001790555b610bda84846123cf565b610be2612400565b610bea612427565b610bf2612456565b610bfa612485565b816001600160a01b031663d8dfeb456040518163ffffffff1660e01b8152600401602060405180830381865afa158015610c38573d6000803e3d6000fd5b505050506040513d601f19601f82011682018060405250810190610c5c91906142bf565b61012d80546001600160a01b0319166001600160a01b03929092169182179055610c8590611d2e565b61013180546001600160a01b0319166001600160a01b0384161790558015610ce7576000805461ff0019169055604051600181527f7f26b83ff96e1f2b6a682f133852f6798a09c465da95921460cefb38474024989060200160405180910390a15b50505050565b610cf56121cb565b610aac60006124b4565b610d076112c6565b610aac610d51565b6000610d1a82610abb565b610d255760006105f2565b6040516370a0823160e01b81523060048201526001600160a01b038316906370a0823190602401610868565b600260fb5403610d735760405162461bcd60e51b815260040161061a9061426f565b600260fb55610d80611998565b600080610e0561013160009054906101000a90046001600160a01b03166001600160a01b0316638fb69c4b6040518163ffffffff1660e01b81526004016020604051808303816000875af1158015610ddc573d6000803e3d6000fd5b505050506040513d601f19601f82011682018060405250810190610e0091906142bf565b612506565b610131549193509150600090610e24906001600160a01b03168361269f565b90506101305483111580610e36575080155b15610e545760405163167bb86960e11b815260040160405180910390fd5b5050600160fb5550565b610e69823383611de2565b610e738282612277565b5050565b610e7f6121cb565b610aac612a92565b610e936006600a61440b565b610a6990606461442d565b60606037805461055b9061423b565b61012d546040516370a0823160e01b815230600482015260009182916001600160a01b03909116906370a0823190602401602060405180830381865afa158015610efb573d6000803e3d6000fd5b505050506040513d601f19601f82011682018060405250810190610f1f91906142a6565b610f29908261441a565b905060005b610f3961012e6123c5565b81101561100d576000610f4e61012e836121bf565b6040516370a0823160e01b81523060048201529091506000906001600160a01b038316906370a0823190602401602060405180830381865afa158015610f98573d6000803e3d6000fd5b505050506040513d601f19601f82011682018060405250810190610fbc91906142a6565b90508015610ff857600080610fd9846001600160a01b0316612024565b9092509050610fe9828483612110565b610ff3908761441a565b955050505b5050808061100590614444565b915050610f2e565b50610131546040516370a0823160e01b81523060048201526000916001600160a01b0316906370a0823190602401602060405180830381865afa158015611058573d6000803e3d6000fd5b505050506040513d601f19601f8201168201806040525081019061107c91906142a6565b90508015611117576101315460408051633c0799bb60e21b8152905161110a926001600160a01b03169163f01e66ec91600480830192602092919082900301816000875af11580156110d2573d6000803e3d6000fd5b505050506040513d601f19601f820116820180604052508101906110f691906142a6565b6111026008600a61440b565b839190612110565b611114908361441a565b91505b50919050565b6111256121cb565b61112e83610abb565b15611157576040516397f05cc560e01b81526001600160a01b038416600482015260240161061a565b61116b6001600160a01b0384168383612acf565b505050565b6000338161117e82866117d3565b9050838110156111de5760405162461bcd60e51b815260206004820152602560248201527f45524332303a2064656372656173656420616c6c6f77616e63652062656c6f77604482015264207a65726f60d81b606482015260840161061a565b6111eb8286868403611874565b506001949350505050565b6000336105ec818585611e56565b6000600260fb54036112285760405162461bcd60e51b815260040161061a9061426f565b600260fb55611235611998565b600061124060355490565b9050600080821161125d57611258620f42408561442d565b611271565b61127184611269610ead565b849190612110565b905061128c3361012d546001600160a01b0316903087612b32565b61012d546112a2906001600160a01b0316611d2e565b6112ac3382612b6a565b600160fb559392505050565b6112c06121cb565b61013055565b600260fb54036112e85760405162461bcd60e51b815260040161061a9061426f565b600260fb556112f5611998565b600061130261012e6123c5565b90506000811161131257506114d7565b60005b8181101561148657600061132b61012e836121bf565b6040516370a0823160e01b81523060048201529091506000906001600160a01b038316906370a0823190602401602060405180830381865afa158015611375573d6000803e3d6000fd5b505050506040513d601f19601f8201168201806040525081019061139991906142a6565b9050600081116113aa575050611474565b6000826001600160a01b03166364c9ec6f6040518163ffffffff1660e01b8152600401602060405180830381865afa1580156113ea573d6000803e3d6000fd5b505050506040513d601f19601f8201168201806040525081019061140e91906142bf565b90506000611424826001600160a01b0316611ad6565b1161143957611434818484611b55565b611470565b61144d6001600160a01b0382166000612c49565b6001600160a01b0316836001600160a01b0316036114705761146e81611c76565b505b5050505b8061147e81614444565b915050611315565b50805b80156114c0576114ae6114a96114a060018461445d565b61012e906121bf565b611a00565b806114b881614470565b915050611489565b5061012d546107f8906001600160a01b0316611d2e565b600160fb55565b6060600260fb54036115025760405162461bcd60e51b815260040161061a9061426f565b600260fb5561150f611998565b600061151a60355490565b9050600061152961012e6123c5565b9050600061153882600261441a565b905060008167ffffffffffffffff8111156115555761155561407b565b60405190808252806020026020018201604052801561159a57816020015b60408051808201909152600080825260208201528152602001906001900390816115735790505b5061012d5481519192506001600160a01b03169082906000906115bf576115bf6142dc565b60209081029190910101516001600160a01b03909116905260005b83811015611634576115ee61012e826121bf565b826115fa83600161441a565b8151811061160a5761160a6142dc565b60209081029190910101516001600160a01b0390911690528061162c81614444565b9150506115da565b50610131546001600160a01b03168161164e85600161441a565b8151811061165e5761165e6142dc565b60209081029190910101516001600160a01b0390911690526116866116803390565b87612277565b60005b82811015611791576116e187868484815181106116a8576116a86142dc565b6020908102919091010151516040516370a0823160e01b81523060048201526001600160a01b03909116906370a0823190602401610a0d565b8282815181106116f3576116f36142dc565b602090810291909101810151015261175933838381518110611717576117176142dc565b602002602001015160200151848481518110611735576117356142dc565b6020026020010151600001516001600160a01b0316612acf9092919063ffffffff16565b61177f82828151811061176e5761176e6142dc565b602002602001015160000151611d2e565b8061178981614444565b915050611689565b50600160fb5595945050505050565b600081156117c157604051632d0483c560e21b815260040160405180910390fd5b5050610131546001600160a01b031690565b6001600160a01b03918216600090815260346020908152604080832093909416825291909152205490565b6118066121cb565b6001600160a01b03811661186b5760405162461bcd60e51b815260206004820152602660248201527f4f776e61626c653a206e6577206f776e657220697320746865207a65726f206160448201526564647265737360d01b606482015260840161061a565b610ab8816124b4565b6001600160a01b0383166118d65760405162461bcd60e51b8152602060048201526024808201527f45524332303a20617070726f76652066726f6d20746865207a65726f206164646044820152637265737360e01b606482015260840161061a565b6001600160a01b0382166119375760405162461bcd60e51b815260206004820152602260248201527f45524332303a20617070726f766520746f20746865207a65726f206164647265604482015261737360f01b606482015260840161061a565b6001600160a01b0383811660008181526034602090815260408083209487168084529482529182902085905590518481527f8c5be1e5ebec7d5bd14f71427d1e84f3dd0314c0f7b2291e5b200ac8c7c3b925910160405180910390a3505050565b60c95460ff1615610aac5760405162461bcd60e51b815260206004820152601060248201526f14185d5cd8589b194e881c185d5cd95960821b604482015260640161061a565b6001600160a01b0381166000908152600183016020526040812054151561081f565b6040516370a0823160e01b81523060048201526000906001600160a01b038316906370a0823190602401602060405180830381865afa158015611a47573d6000803e3d6000fd5b505050506040513d601f19601f82011682018060405250810190611a6b91906142a6565b604080516001600160a01b0385168152602081018390529192507f3498084e435368f22f5e58d4957c351579c10be5ab20874cc78c9d0e28fa0409910160405180910390a180158015611ac55750611ac561012e836119de565b15610e735761116b61012e83612cbe565b600080826001600160a01b031663d59624b46040518163ffffffff1660e01b8152600401602060405180830381865afa158015611b17573d6000803e3d6000fd5b505050506040513d601f19601f82011682018060405250810190611b3b91906142a6565b9050428111611b4b57600061081f565b61081f428261445d565b826001600160a01b031663ae4e7fdf6040518163ffffffff1660e01b8152600401602060405180830381865afa158015611b93573d6000803e3d6000fd5b505050506040513d601f19601f82011682018060405250810190611bb79190614487565b611c0f57826001600160a01b03166387b652076040518163ffffffff1660e01b8152600401600060405180830381600087803b158015611bf657600080fd5b505af1158015611c0a573d6000803e3d6000fd5b505050505b604051630cf4838d60e21b81526001600160a01b038381166004830152602482018390528416906333d20e3490604401600060405180830381600087803b158015611c5957600080fd5b505af1158015611c6d573d6000803e3d6000fd5b50505050505050565b60408051808201909152606080825260208201526060611c9f6001600160a01b03841630612cd3565b8092508193505050600081600081518110611cbc57611cbc6142dc565b6020026020010151111561111757604051637cd7d93560e11b81526001600160a01b0384169063f9afb26a90611cf69084906004016144a9565b600060405180830381600087803b158015611d1057600080fd5b505af1158015611d24573d6000803e3d6000fd5b5050505050919050565b6040516370a0823160e01b81523060048201526000906001600160a01b038316906370a0823190602401602060405180830381865afa158015611d75573d6000803e3d6000fd5b505050506040513d601f19601f82011682018060405250810190611d9991906142a6565b604080516001600160a01b0385168152602081018390529192507f3498084e435368f22f5e58d4957c351579c10be5ab20874cc78c9d0e28fa0409910160405180910390a15050565b6000611dee84846117d3565b90506000198114610ce75781811015611e495760405162461bcd60e51b815260206004820152601d60248201527f45524332303a20696e73756666696369656e7420616c6c6f77616e6365000000604482015260640161061a565b610ce78484848403611874565b6001600160a01b038316611eba5760405162461bcd60e51b815260206004820152602560248201527f45524332303a207472616e736665722066726f6d20746865207a65726f206164604482015264647265737360d81b606482015260840161061a565b6001600160a01b038216611f1c5760405162461bcd60e51b815260206004820152602360248201527f45524332303a207472616e7366657220746f20746865207a65726f206164647260448201526265737360e81b606482015260840161061a565b6001600160a01b03831660009081526033602052604090205481811015611f945760405162461bcd60e51b815260206004820152602660248201527f45524332303a207472616e7366657220616d6f756e7420657863656564732062604482015265616c616e636560d01b606482015260840161061a565b6001600160a01b03808516600090815260336020526040808220858503905591851681529081208054849290611fcb90849061441a565b92505081905550826001600160a01b0316846001600160a01b03167fddf252ad1be2c89b69c2b068fc378daa952ba7f163c4a11628f55a4df523b3ef8460405161201791815260200190565b60405180910390a3610ce7565b6000806000836001600160a01b03166364c9ec6f6040518163ffffffff1660e01b8152600401602060405180830381865afa158015612067573d6000803e3d6000fd5b505050506040513d601f19601f8201168201806040525081019061208b91906142bf565b90506120aa604051806040016040528060608152602001606081525090565b6060806120b684612f1d565b9194509250905060006120c984896134b0565b60ff1690508281815181106120e0576120e06142dc565b60200260200101518282815181106120fa576120fa6142dc565b6020026020010151965096505050505050915091565b600080806000198587098587029250828110838203039150508060000361214a57838281612140576121406144ed565b049250505061081f565b80841161215657600080fd5b60008486880960026001871981018816978890046003810283188082028403028082028403028082028403028082028403028082028403029081029092039091026000889003889004909101858311909403939093029303949094049190911702949350505050565b600061081f8383613538565b6097546001600160a01b03163314610aac5760405162461bcd60e51b815260206004820181905260248201527f4f776e61626c653a2063616c6c6572206973206e6f7420746865206f776e6572604482015260640161061a565b61222d613562565b60c9805460ff191690557f5db9ee0a495bf2e6ff9c91a7834c1ba4fdd244a5e8aa4e537bd38aeae4b073aa335b6040516001600160a01b03909116815260200160405180910390a1565b6001600160a01b0382166122d75760405162461bcd60e51b815260206004820152602160248201527f45524332303a206275726e2066726f6d20746865207a65726f206164647265736044820152607360f81b606482015260840161061a565b6001600160a01b0382166000908152603360205260409020548181101561234b5760405162461bcd60e51b815260206004820152602260248201527f45524332303a206275726e20616d6f756e7420657863656564732062616c616e604482015261636560f01b606482015260840161061a565b6001600160a01b038316600090815260336020526040812083830390556035805484929061237a90849061445d565b90915550506040518281526000906001600160a01b038516907fddf252ad1be2c89b69c2b068fc378daa952ba7f163c4a11628f55a4df523b3ef9060200160405180910390a3505050565b60006105f2825490565b600054610100900460ff166123f65760405162461bcd60e51b815260040161061a90614503565b610e7382826135ab565b600054610100900460ff16610aac5760405162461bcd60e51b815260040161061a90614503565b600054610100900460ff1661244e5760405162461bcd60e51b815260040161061a90614503565b610aac6135eb565b600054610100900460ff1661247d5760405162461bcd60e51b815260040161061a90614503565b610aac61361b565b600054610100900460ff166124ac5760405162461bcd60e51b815260040161061a90614503565b610aac61364e565b609780546001600160a01b038381166001600160a01b0319831681179093556040519116919082907f8be0079c531659141344cd1fd0a4f28419497f9722a3daafe3b4186f6b6457e090600090a35050565b6000612525604051806040016040528060608152602001606081525090565b6000612539846001600160a01b0316613675565b61012d546040516370a0823160e01b81523060048201529192506000916001600160a01b03909116906370a0823190602401602060405180830381865afa158015612588573d6000803e3d6000fd5b505050506040513d601f19601f820116820180604052508101906125ac91906142a6565b9050600081116125c25750600094909350915050565b61012d546125da906001600160a01b031686836138a0565b60405163b6b55f2560e01b8152600481018290526001600160a01b0386169063b6b55f2590602401600060405180830381600087803b15801561261c57600080fd5b505af1158015612630573d6000803e3d6000fd5b5050505060005b82515160ff8216101561267f5761266d83600001518260ff1681518110612660576126606142dc565b6020026020010151613949565b8061267781614308565b915050612637565b5061012d54612696906001600160a01b0316611d2e565b94909350915050565b600080836001600160a01b031663364d22fc6040518163ffffffff1660e01b81526004016000604051808303816000875af11580156126e2573d6000803e3d6000fd5b505050506040513d6000823e601f3d908101601f1916820160405261270a919081019061454e565b905060008060005b85515160ff83161080156127265750835181105b15612a6857600086600001518360ff1681518110612746576127466142dc565b602002602001015190506000858381518110612764576127646142dc565b602002602001015190506000806001600160a01b0316826001600160a01b031603612790576000612869565b816001600160a01b03166370a082318b6001600160a01b031663cd3293de6040518163ffffffff1660e01b8152600401602060405180830381865afa1580156127dd573d6000803e3d6000fd5b505050506040513d601f19601f8201168201806040525081019061280191906142bf565b6040516001600160e01b031960e084901b1681526001600160a01b039091166004820152602401602060405180830381865afa158015612845573d6000803e3d6000fd5b505050506040513d601f19601f8201168201806040525081019061286991906142a6565b9050600081116128865761287c84614444565b9350505050612712565b6040516370a0823160e01b81523060048201526000906001600160a01b038516906370a0823190602401602060405180830381865afa1580156128cd573d6000803e3d6000fd5b505050506040513d601f19601f820116820180604052508101906128f191906142a6565b90506000811161290f5761290486614308565b955050505050612712565b604051630546d26760e21b81526001600160a01b03858116600483015284811660248301526044820183905260648201849052600091908d169063151b499c9060840160a0604051808303816000875af1158015612971573d6000803e3d6000fd5b505050506040513d601f19601f820116820180604052508101906129959190614600565b80519091506129b3576129a787614308565b96505050505050612712565b6129be858d846138a0565b604051632bf8f1a560e01b81526001600160a01b0386811660048301528581166024830152604482018490528d1690632bf8f1a590606401600060405180830381600087803b158015612a1057600080fd5b505af1158015612a24573d6000803e3d6000fd5b50505050612a3185611a00565b61012d546001600160a01b03858116911614612a5057612a5084613949565b8051612a5c908961441a565b97505050505050612712565b61012d54612a7e906001600160a01b0316611d2e565b612a8787611d2e565b509095945050505050565b612a9a611998565b60c9805460ff191660011790557f62e78cea01bee320cd4e420270b5ea74000d11b0c9f74754ebdbfc544b05a25861225a3390565b6040516001600160a01b03831660248201526044810182905261116b90849063a9059cbb60e01b906064015b60408051601f198184030181529190526020810180516001600160e01b03166001600160e01b031990931692909217909152613a50565b6040516001600160a01b0380851660248301528316604482015260648101829052610ce79085906323b872dd60e01b90608401612afb565b6001600160a01b038216612bc05760405162461bcd60e51b815260206004820152601f60248201527f45524332303a206d696e7420746f20746865207a65726f206164647265737300604482015260640161061a565b8060356000828254612bd2919061441a565b90915550506001600160a01b03821660009081526033602052604081208054839290612bff90849061441a565b90915550506040518181526001600160a01b038316906000907fddf252ad1be2c89b69c2b068fc378daa952ba7f163c4a11628f55a4df523b3ef9060200160405180910390a35050565b6040516313612cb160e11b815260ff821660048201526000906001600160a01b038416906326c25962906024016040805180830381865afa158015612c92573d6000803e3d6000fd5b505050506040513d601f19601f82011682018060405250810190612cb69190614670565b509392505050565b600061081f836001600160a01b038416613b22565b604080518082019091526060808252602082015260606000612cf485613675565b9050600081600001515167ffffffffffffffff811115612d1657612d1661407b565b604051908082528060200260200182016040528015612d3f578160200160208202803683370190505b50905060001960005b83515160ff82161015612e9457600084600001518260ff1681518110612d7057612d706142dc565b60209081029190910101516040516370a0823160e01b81526001600160a01b038a81166004830152909116906370a0823190602401602060405180830381865afa158015612dc2573d6000803e3d6000fd5b505050506040513d601f19601f82011682018060405250810190612de691906142a6565b905084602001518260ff1681518110612e0157612e016142dc565b602002602001015181612e14919061469e565b612e1e908261445d565b90506000612e596103e887602001518560ff1681518110612e4157612e416142dc565b6020026020010151846121109092919063ffffffff16565b905083811015612e67578093505b83600003612e7f5750939550919350612f1692505050565b50508080612e8c90614308565b915050612d48565b5060005b83515160ff82161015612f0e57612edc826103e886602001518460ff1681518110612ec557612ec56142dc565b60200260200101516121109092919063ffffffff16565b838260ff1681518110612ef157612ef16142dc565b602090810291909101015280612f0681614308565b915050612e98565b509193509150505b9250929050565b60408051808201909152606080825260208201526060806000612f3f85613675565b9050600081600001515167ffffffffffffffff811115612f6157612f6161407b565b604051908082528060200260200182016040528015612f8a578160200160208202803683370190505b509050600082600001515167ffffffffffffffff811115612fad57612fad61407b565b604051908082528060200260200182016040528015612fd6578160200160208202803683370190505b509050866001600160a01b031663ae4e7fdf6040518163ffffffff1660e01b8152600401602060405180830381865afa158015613017573d6000803e3d6000fd5b505050506040513d601f19601f8201168201806040525081019061303b9190614487565b1561322d5760005b83515160ff82161015613220578351805160ff8316908110613067576130676142dc565b60200260200101516001600160a01b03166318160ddd6040518163ffffffff1660e01b8152600401602060405180830381865afa1580156130ac573d6000803e3d6000fd5b505050506040513d601f19601f820116820180604052508101906130d091906142a6565b828260ff16815181106130e5576130e56142dc565b602002602001018181525050876001600160a01b031663b2016bd46040518163ffffffff1660e01b8152600401602060405180830381865afa15801561312f573d6000803e3d6000fd5b505050506040513d601f19601f8201168201806040525081019061315391906142bf565b6001600160a01b03166370a0823185600001518360ff168151811061317a5761317a6142dc565b60200260200101516040518263ffffffff1660e01b81526004016131ad91906001600160a01b0391909116815260200190565b602060405180830381865afa1580156131ca573d6000803e3d6000fd5b505050506040513d601f19601f820116820180604052508101906131ee91906142a6565b838260ff1681518110613203576132036142dc565b60209081029190910101528061321881614308565b915050613043565b50919450925090506134a9565b6000876001600160a01b031663b2016bd46040518163ffffffff1660e01b8152600401602060405180830381865afa15801561326d573d6000803e3d6000fd5b505050506040513d601f19601f8201168201806040525081019061329191906142bf565b6040516370a0823160e01b81526001600160a01b038a8116600483015291909116906370a0823190602401602060405180830381865afa1580156132d9573d6000803e3d6000fd5b505050506040513d601f19601f820116820180604052508101906132fd91906142a6565b905060006001856000015151613313919061445d565b905060005b85515160ff8216101561349d578551805160ff831690811061333c5761333c6142dc565b60200260200101516001600160a01b03166318160ddd6040518163ffffffff1660e01b8152600401602060405180830381865afa158015613381573d6000803e3d6000fd5b505050506040513d601f19601f820116820180604052508101906133a591906142a6565b848260ff16815181106133ba576133ba6142dc565b602002602001018181525050818160ff16146134685782848260ff16815181106133e6576133e66142dc565b602002602001015111156133fa5782613418565b838160ff168151811061340f5761340f6142dc565b60200260200101515b858260ff168151811061342d5761342d6142dc565b602002602001018181525050848160ff168151811061344e5761344e6142dc565b602002602001015183613461919061445d565b925061348b565b82858260ff168151811061347e5761347e6142dc565b6020026020010181815250505b8061349581614308565b915050613318565b50939650919450925050505b9193909250565b6000805b83515160ff8216101561351357826001600160a01b031684600001518260ff16815181106134e4576134e46142dc565b60200260200101516001600160a01b0316036135015790506105f2565b8061350b81614308565b9150506134b4565b50604051630993591960e41b81526001600160a01b038316600482015260240161061a565b600082600001828154811061354f5761354f6142dc565b9060005260206000200154905092915050565b60c95460ff16610aac5760405162461bcd60e51b815260206004820152601460248201527314185d5cd8589b194e881b9bdd081c185d5cd95960621b604482015260640161061a565b600054610100900460ff166135d25760405162461bcd60e51b815260040161061a90614503565b60366135de838261470e565b50603761116b828261470e565b600054610100900460ff166136125760405162461bcd60e51b815260040161061a90614503565b610aac336124b4565b600054610100900460ff166136425760405162461bcd60e51b815260040161061a90614503565b60c9805460ff19169055565b600054610100900460ff166114d75760405162461bcd60e51b815260040161061a90614503565b604080518082019091526060808252602082015260408051808201909152606080825260208201526000613709846001600160a01b03166359eb82246040518163ffffffff1660e01b8152600401602060405180830381865afa1580156136e0573d6000803e3d6000fd5b505050506040513d601f19601f8201168201806040525081019061370491906142a6565b613c15565b90508060ff1667ffffffffffffffff8111156137275761372761407b565b604051908082528060200260200182016040528015613750578160200160208202803683370190505b50825260ff811667ffffffffffffffff81111561376f5761376f61407b565b604051908082528060200260200182016040528015613798578160200160208202803683370190505b50602083015260005b8160ff168160ff161015613897576040516313612cb160e11b815260ff8216600482015260009081906001600160a01b038816906326c25962906024016040805180830381865afa1580156137fa573d6000803e3d6000fd5b505050506040513d601f19601f8201168201806040525081019061381e9190614670565b915091508185600001518460ff168151811061383c5761383c6142dc565b60200260200101906001600160a01b031690816001600160a01b0316815250508085602001518460ff1681518110613876576138766142dc565b6020026020010181815250505050808061388f90614308565b9150506137a1565b50909392505050565b604051636eb1769f60e11b81523060048201526001600160a01b0383811660248301526000919085169063dd62ed3e90604401602060405180830381865afa1580156138f0573d6000803e3d6000fd5b505050506040513d601f19601f8201168201806040525081019061391491906142a6565b905081811015610ce7576139336001600160a01b038516846000613c7a565b610ce76001600160a01b03851684600019613c7a565b6040516370a0823160e01b81523060048201526000906001600160a01b038316906370a0823190602401602060405180830381865afa158015613990573d6000803e3d6000fd5b505050506040513d601f19601f820116820180604052508101906139b491906142a6565b604080516001600160a01b0385168152602081018390529192507f3498084e435368f22f5e58d4957c351579c10be5ab20874cc78c9d0e28fa0409910160405180910390a1600081118015613a125750613a1061012e836119de565b155b15610e7357613a2361012e83613d8f565b50602f613a3161012e6123c5565b1115610e7357604051633d816dad60e01b815260040160405180910390fd5b6000613aa5826040518060400160405280602081526020017f5361666545524332303a206c6f772d6c6576656c2063616c6c206661696c6564815250856001600160a01b0316613da49092919063ffffffff16565b80519091501561116b5780806020019051810190613ac39190614487565b61116b5760405162461bcd60e51b815260206004820152602a60248201527f5361666545524332303a204552433230206f7065726174696f6e20646964206e6044820152691bdd081cdd58d8d9595960b21b606482015260840161061a565b60008181526001830160205260408120548015613c0b576000613b4660018361445d565b8554909150600090613b5a9060019061445d565b9050818114613bbf576000866000018281548110613b7a57613b7a6142dc565b9060005260206000200154905080876000018481548110613b9d57613b9d6142dc565b6000918252602080832090910192909255918252600188019052604090208390555b8554869080613bd057613bd06147ce565b6001900381819060005260206000200160009055905585600101600086815260200190815260200160002060009055600193505050506105f2565b60009150506105f2565b600060ff821115613c765760405162461bcd60e51b815260206004820152602560248201527f53616665436173743a2076616c756520646f65736e27742066697420696e2038604482015264206269747360d81b606482015260840161061a565b5090565b801580613cf45750604051636eb1769f60e11b81523060048201526001600160a01b03838116602483015284169063dd62ed3e90604401602060405180830381865afa158015613cce573d6000803e3d6000fd5b505050506040513d601f19601f82011682018060405250810190613cf291906142a6565b155b613d5f5760405162461bcd60e51b815260206004820152603660248201527f5361666545524332303a20617070726f76652066726f6d206e6f6e2d7a65726f60448201527520746f206e6f6e2d7a65726f20616c6c6f77616e636560501b606482015260840161061a565b6040516001600160a01b03831660248201526044810182905261116b90849063095ea7b360e01b90606401612afb565b600061081f836001600160a01b038416613db3565b60606109488484600085613e02565b6000818152600183016020526040812054613dfa575081546001818101845560008481526020808220909301849055845484825282860190935260409020919091556105f2565b5060006105f2565b606082471015613e635760405162461bcd60e51b815260206004820152602660248201527f416464726573733a20696e73756666696369656e742062616c616e636520666f6044820152651c8818d85b1b60d21b606482015260840161061a565b6001600160a01b0385163b613eba5760405162461bcd60e51b815260206004820152601d60248201527f416464726573733a2063616c6c20746f206e6f6e2d636f6e7472616374000000604482015260640161061a565b600080866001600160a01b03168587604051613ed691906147e4565b60006040518083038185875af1925050503d8060008114613f13576040519150601f19603f3d011682016040523d82523d6000602084013e613f18565b606091505b5091509150613f28828286613f33565b979650505050505050565b60608315613f4257508161081f565b825115613f525782518084602001fd5b8160405162461bcd60e51b815260040161061a9190613f90565b60005b83811015613f87578181015183820152602001613f6f565b50506000910152565b6020815260008251806020840152613faf816040850160208701613f6c565b601f01601f19169190910160400192915050565b6001600160a01b0381168114610ab857600080fd5b60008060408385031215613feb57600080fd5b8235613ff681613fc3565b946020939093013593505050565b60006020828403121561401657600080fd5b813561081f81613fc3565b60008060006060848603121561403657600080fd5b833561404181613fc3565b9250602084013561405181613fc3565b929592945050506040919091013590565b60006020828403121561407457600080fd5b5035919050565b634e487b7160e01b600052604160045260246000fd5b604051601f8201601f1916810167ffffffffffffffff811182821017156140ba576140ba61407b565b604052919050565b600082601f8301126140d357600080fd5b813567ffffffffffffffff8111156140ed576140ed61407b565b614100601f8201601f1916602001614091565b81815284602083860101111561411557600080fd5b816020850160208301376000918101602001919091529392505050565b60008060006060848603121561414757600080fd5b833567ffffffffffffffff8082111561415f57600080fd5b61416b878388016140c2565b9450602086013591508082111561418157600080fd5b5061418e868287016140c2565b925050604084013561419f81613fc3565b809150509250925092565b602080825282518282018190526000919060409081850190868401855b828110156141f557815180516001600160a01b031685528601518685015292840192908501906001016141c7565b5091979650505050505050565b6000806040838503121561421557600080fd5b823561422081613fc3565b9150602083013561423081613fc3565b809150509250929050565b600181811c9082168061424f57607f821691505b60208210810361111757634e487b7160e01b600052602260045260246000fd5b6020808252601f908201527f5265656e7472616e637947756172643a207265656e7472616e742063616c6c00604082015260600190565b6000602082840312156142b857600080fd5b5051919050565b6000602082840312156142d157600080fd5b815161081f81613fc3565b634e487b7160e01b600052603260045260246000fd5b634e487b7160e01b600052601160045260246000fd5b600060ff821660ff810361431e5761431e6142f2565b60010192915050565b600181815b80851115614362578160001904821115614348576143486142f2565b8085161561435557918102915b93841c939080029061432c565b509250929050565b600082614379575060016105f2565b81614386575060006105f2565b816001811461439c57600281146143a6576143c2565b60019150506105f2565b60ff8411156143b7576143b76142f2565b50506001821b6105f2565b5060208310610133831016604e8410600b84101617156143e5575081810a6105f2565b6143ef8383614327565b8060001904821115614403576144036142f2565b029392505050565b600061081f60ff84168361436a565b808201808211156105f2576105f26142f2565b80820281158282048414176105f2576105f26142f2565b600060018201614456576144566142f2565b5060010190565b818103818111156105f2576105f26142f2565b60008161447f5761447f6142f2565b506000190190565b60006020828403121561449957600080fd5b8151801515811461081f57600080fd5b6020808252825182820181905260009190848201906040850190845b818110156144e1578351835292840192918401916001016144c5565b50909695505050505050565b634e487b7160e01b600052601260045260246000fd5b6020808252602b908201527f496e697469616c697a61626c653a20636f6e7472616374206973206e6f74206960408201526a6e697469616c697a696e6760a81b606082015260800190565b6000602080838503121561456157600080fd5b825167ffffffffffffffff8082111561457957600080fd5b818501915085601f83011261458d57600080fd5b81518181111561459f5761459f61407b565b8060051b91506145b0848301614091565b81815291830184019184810190888411156145ca57600080fd5b938501935b838510156145f457845192506145e483613fc3565b82825293850193908501906145cf565b98975050505050505050565b600060a0828403121561461257600080fd5b60405160a0810181811067ffffffffffffffff821117156146355761463561407b565b806040525082518152602083015160208201526040830151604082015260608301516060820152608083015160808201528091505092915050565b6000806040838503121561468357600080fd5b825161468e81613fc3565b6020939093015192949293505050565b6000826146bb57634e487b7160e01b600052601260045260246000fd5b500690565b601f82111561116b57600081815260208120601f850160051c810160208610156146e75750805b601f850160051c820191505b81811015614706578281556001016146f3565b505050505050565b815167ffffffffffffffff8111156147285761472861407b565b61473c81614736845461423b565b846146c0565b602080601f83116001811461477157600084156147595750858301515b600019600386901b1c1916600185901b178555614706565b600085815260208120601f198616915b828110156147a057888601518255948401946001909101908401614781565b50858210156147be5787850151600019600388901b60f8161c191681555b5050505050600190811b01905550565b634e487b7160e01b600052603160045260246000fd5b600082516147f6818460208701613f6c565b919091019291505056fea264697066735822122050aa6dce12bb5ea5cfcc979df3ceb4118e990f33983a2e451d1aa0f11cb961b164736f6c63430008130033",
  "linkReferences": {},
  "deployedLinkReferences": {}
}